:020000040800F2
:1000000000200020D915000829160008291600082C
:1000100000000000000000000000000000000000E0
:100020000000000000000000000000002916000889
:1000300029160008000000002916000829160008EB
:100040002916000829160008291600082916000894
:100050002916000829160008291600082916000884
:1000600000000000291600082916000829160008BB
:1000700029160008291600080000000029160008AB
:100080000000000029160008000000000000000029
:1000900095580008000000002916000829160008DD
:1000A0002916000829160008291600082909000841
:1000B000490900082916000800000000000000009F
:1000C00010B5064C2378002B07D1054B002B02D02E
:1000D000044800E000BF0123237010BD7804002015
:1000E00000000000185F0008084B10B5002B03D07B
:1000F0000749084800E000BF07480368002B00D10B
:1001000010BD064B002BFBD09847F9E7000000001C
:100110007C040020185F0008740400200000000028
:1001200080B586B000AF786039600023FB600023A3
:10013000BB6000233B6100237B6151E101227B69AD
:100140009A401300FB603B681B68FA681340BB6071
:10015000BA68FB689A4200D03FE13B685B68022BBB
:1001600003D03B685B68122B23D17B69DA087B687C
:1001700008329200D3583B617B69072213409B00F1
:100180000F229A401300DA433B6913403B613B68FE
:100190001A697B6907210B409B009A4013003A695A
:1001A00013433B617B69DA087B6808329200396946
:1001B000D1503B685B68012B0BD03B685B68022B1E
:1001C00007D03B685B68112B03D03B685B68122B40
:1001D00030D17B689B683B617B695B0003229A405E
:1001E0001300DA433B6913403B613B68DA687B6983
:1001F0005B009A4013003A6913433B617B683A699C
:100200009A607B685B683B6101227B699A401300BE
:10021000DA433B6913403B613B685B681B09012281
:100220001A407B699A4013003A6913433B617B682B
:100230003A695A607B681B683B617B695B000322FB
:100240009A401300DA433B6913403B613B685B68AB
:1002500003221A407B695B009A4013003A691343FA
:100260003B617B683A691A607B68DB683B617B694C
:100270005B0003229A401300DA433B6913403B6161
:100280003B689A687B695B009A4013003A691343A4
:100290003B617B683A69DA603B685A6880235B059A
:1002A000134000D199E0524B514A526B01210A434D
:1002B0005A63504A7B699B0802339B009B583B6101
:1002C0007B69032213409B00102252429A403B69F3
:1002D00013403B617A68A023DB059A4219D07B6802
:1002E000454A934213D07B68444A93420DD07B68C1
:1002F000434A934207D07B68424A934201D1042388
:1003000008E0052306E0032304E0022302E00123C2
:1003100000E000237A6903210A40920093403A6981
:1003200013433B6133497B699B0802339B003A6965
:100330005A50354B1B683B61BB68DA433B6913403D
:100340003B613B685A6880235B02134003D03A69E3
:10035000BB6813433B612C4B3A691A602A4B5B68BC
:100360003B61BB68DA433B6913403B613B685A68B9
:1003700080239B02134003D03A69BB6813433B615F
:10038000214B3A695A60204B9B683B61BB68DA435A
:100390003B6913403B613B685A6880235B03134011
:1003A00003D03A69BB6813433B61174B3A699A60C3
:1003B000154BDB683B61BB68DA433B6913403B612B
:1003C0003B685A6880239B03134003D03A69BB689B
:1003D00013433B610C4B3A69DA607B6901337B6103
:1003E0007B690F2B00D8A9E6C046BD4606B080BD8C
:1003F00000100240000001400004005000080050BE
:10040000000C0050001C00500004014080B586B074
:1004100000AF7860396000233B610023FB6000235C
:10042000BB6000237B6182E001227B699A4013005C
:100430003B613B683A691340FB60FA683B699A424A
:1004400072D17B681B687A695200032191400A00CF
:10045000D2431A407B681A607B69DA087B69D90845
:100460007B6808318900CB587969072001408900F1
:100470000F2088400100C94319407B680832920070
:10048000D1507B689B687A695200032191400A0031
:10049000D2431A407B689A607B685B6801217A6965
:1004A00091400A00D2431A407B685A607B68DB683F
:1004B0007A695200032191400A00D2431A407B68B6
:1004C000DA607B69032213409B000F229A401300DD
:1004D000BB601B487B699B0819497A699208023204
:1004E00092005258B968C9430A4002339B001A501F
:1004F000144B144A1268F968C9430A401A60114B38
:10050000104A5268F968C9430A405A600D4B0D4AB7
:100510009268F968C9430A409A600A4B094AD2684E
:10052000F968C9430A40DA607B6901337B617B6902
:100530000F2B00D878E7C046BD4606B080BDC04648
:10054000000001400004014080B584B000AF786035
:100550000A00BB1C1A807B681B69BA1C12881340F6
:1005600004D00F23FB1801221A7003E00F23FB189D
:1005700000221A700F23FB181B781800BD4604B028
:1005800080BDC04680B582B000AF78600800110021
:10059000BB1C021C1A807B1C0A1C1A707B1C1B785B
:1005A000002B04D0BB1C1A887B689A6103E0BB1C3B
:1005B0001A887B689A62C046BD4602B080BDC046BC
:1005C00080B582B000AF78600A00BB1C1A807B68DF
:1005D0005A69BB1C1B885A407B685A61C046BD469D
:1005E00002B080BD80B584B000AF78600A00BB1C4B
:1005F0001A8080235B02FB60BB1C1A88FB681343D4
:10060000FB60FA687B68DA61BB1C1A887B68DA6178
:10061000FA687B68DA617B68DB69FB607B68DA69B2
:1006200080235B02134001D0002300E00123180067
:10063000BD4604B080BDC04680B582B000AF0200A8
:10064000BB1D1A80094B5B69BA1D1288134008D084
:10065000064BBA1D12885A61BB1D1B88180000F09A
:1006600007F8C046BD4602B080BDC0460004014048
:1006700080B582B000AF0200BB1D1A80C046BD46E7
:1006800002B080BD80B582B000AF0200FB1D1A70C1
:10069000064BFA1D127811001F220A4001219140D9
:1006A0000A001A60C046BD4602B080BD00E100E00D
:1006B00080B500AF174B174A526B8021C9010A431E
:1006C0005A631B20FFF7DEFF134B144A1A60124BCC
:1006D000962292015A60104B00229A600E4B002223
:1006E000DA600D4B00221A610B4B0C225A610A4B47
:1006F00000229A61084B0022DA61074B180003F0D0
:100700004DF9064B054A126820210A431A60C0467B
:10071000BD4680BD001002404C0A00200038014058
:1007200080B500AF174B174A926B802189020A43AC
:100730009A631C20FFF7A6FF134B144A1A60124B52
:10074000E12252025A60104B00229A600E4B0022A6
:10075000DA600D4B00221A610B4B0C225A610A4BD6
:1007600000229A61084B0022DA61074B180003F05F
:1007700015F9064B054A126820210A431A60C04643
:10078000BD4680BD00100240B80A00200044004071
:1007900080B500AF164B164A926B8021C9020A43FE
:1007A0009A63144B144A1A60124B962292015A60B3
:1007B000104B00229A600F4B0022DA600D4B002292
:1007C0001A610C4B0C225A610A4B00229A61094BA8
:1007D0000022DA61074B180003F0E0F8064B064AE6
:1007E000126820210A431A60C046BD4680BDC0463B
:1007F00000100240E00900200048004080B584B0AD
:1008000000AF78600023FB6009E0FB687A68D318CA
:100810001B78180000F00EF8FB680133FB60FB68E2
:100820007A68D3181B78002BEFD1C046BD4604B0C0
:1008300080BDC04680B582B000AF0200FB1D1A70BB
:10084000C046064BDB6980221340FAD0034BFA1DE9
:1008500012789A62C046BD4602B080BD00380140A1
:1008600080B582B000AF0200FB1D1A70064BFA1D66
:1008700012789A62C046044BDB6980221340FAD09A
:10088000C046BD4602B080BD0044004080B584B083
:1008900000AF78600023FB6009E0FB687A68D3183A
:1008A0001B781800FFF7DCFFFB680133FB60FB6877
:1008B0007A68D3181B78002BEFD1C046BD4604B030
:1008C00080BDC04680B582B000AF0200FB1D1A702B
:1008D000C046064BDB6980221340FAD0034BFA1D59
:1008E00012789A62C046BD4602B080BD0048004002
:1008F00080B584B000AF78600023FB6009E0FB683E
:100900007A68D3181B781800FFF7DCFFFB68013307
:10091000FB60FB687A68D3181B78002BEFD1C046C8
:10092000BD4604B080BDC04680B500AF00F02AF8D7
:10093000044B044AD26928218A43DA61C046BD4685
:1009400080BDC0460038014080B500AF00F03AF8E5
:10095000044B044AD26928218A43DA61C046BD4665
:1009600080BDC0460044004080B500AF044B044A3F
:10097000D26928218A43DA61C046BD4680BDC0469F
:100980000048004080B500AF0B4B1A680B4B5B6A08
:10099000D9B20B4B9954084B1B685A1C064B1A6072
:1009A000054B1A68FA239B009A4202D1024B00229F
:1009B0001A60C046BD4680BD940400200038014046
:1009C000D804002080B500AF0B4B1A680B4B5B6A54
:1009D000D9B20B4B9954084B1B685A1C064B1A6032
:1009E000054B1A6882235B009A4202D1024B002217
:1009F0001A60C046BD4680BD9804002000440040F7
:100A0000DC08002080B584B000AF0200BB1D1A8056
:100A1000BB1D1A88FA239900100004F0D3FF0300CD
:100A20009AB20F23FB181A70BB1D1B883B4A9342D6
:100A300007D90F23FB181B783033DBB21800FFF700
:100A4000F9FEBB1D1A880F23FB181B7834494B4352
:100A5000D3186421180005F03FF803001A000E2394
:100A6000FB181A70BB1D1B88632B07D90E23FB18BC
:100A70001B783033DBB21800FFF7DCFEBB1D1A8891
:100A80000F23FB181B7826494B43D2180E23FB1863
:100A90001B78642149424B43D3180A21180005F002
:100AA0001BF803001A000D23FB181A70BB1D1B88CE
:100AB000092B07D90D23FB181B783033DBB2180044
:100AC000FFF7B8FEBB1D1B88DAB20E23FB181B789C
:100AD000642149424B43D9B20F23FB181B781820DD
:100AE0004343DBB2CB18DBB2D318D9B20D23FB18CA
:100AF0001B780A2252425343DAB20C23FB188A189D
:100B00001A700C23FB181B783033DBB21800FFF788
:100B100091FEC046BD4604B080BDC046E70300005C
:100B200018FCFFFF80B582B000AF78607B68002BB7
:100B300014D07B680A21180004F044FF0300180059
:100B4000FFF7F0FF7B680A21180004F0C1FF0B00DB
:100B5000DBB23033DBB21800FFF7B4FEC046BD464F
:100B600002B080BD80B582B000AF78607B68002B9A
:100B700004D07B681800FFF7D5FF05E07B68002BE9
:100B800002D13020FFF79EFEC046BD4602B080BDB8
:100B900080B582B000AF304B1A68304B1B689A4268
:100BA00017D1002353E02D4B1B685A1C2B4B1A60A6
:100BB0002A4B1A6882235B009A4202D1274B0022FB
:100BC0001A60254B1A68254B1B689A4201D10023F5
:100BD0003DE0224B1B68224AD35CAA3B5A1E93413C
:100BE000DAB21E4B1B6801331D49CB5C553B591EC5
:100BF0008B41DBB21343DBB2002BD4D100237B60EB
:100C000021E0154B1A68154B1B689A4201D101234C
:100C10001DE0124B1B68124AD15C124A7B68D31844
:100C20000A1C1A700D4B1B685A1C0C4B1A600B4B9C
:100C30001A6882235B009A4202D1084B00221A6094
:100C40007B6801337B607B68192BDADD0123180098
:100C5000BD4602B080BDC046980400209C04002020
:100C6000DC080020C008002080B500AF034B1A68E4
:100C7000034B1A60C046BD4680BDC0469C040020A0
:100C80009804002080B500AF054B1A68054B1B681F
:100C90009A4201D1002300E001231800BD4680BD27
:100CA000980400209C04002080B582B000AF00238F
:100CB0007B6000237B6007E0074A7B68D318002233
:100CC0001A707B6801337B607B68192BF4DDC046AA
:100CD000BD4602B080BDC046C008002080B500AF50
:100CE0000A4B0A4A126840210A431A60074B074A16
:100CF000126802210A431A60032000F03BF804F056
:100D000083FB00231800BD4680BDC0460020024082
:100D100080B500AF104B012252429A620E4B002266
:100D20009A620D4B012252425A620B4B00225A62C8
:100D3000094B012252421A62074B00221A62064BEB
:100D400001225242DA61044B0022DA6104F062FBB4
:100D500000231800BD4680BD0010024080B500AFE2
:100D6000C046BD4680BDC04680B500AFC046BD464A
:100D700080BDC04680B582B000AF786002F0CAFC8A
:100D80000200FA239900100004F01CFE0300180072
:100D900004F0B0FC796801235B420022180004F0E3
:100DA0006BFC00231800BD4602B080BD80B500AFCB
:100DB000034B1B685A1C024B1A60C046BD4680BDDF
:100DC000A004002080B500AF024B1B681800BD4690
:100DD00080BDC046A004002080B584B000AF78601C
:100DE0000023FB60FFF7EEFF0300FB60C046FFF748
:100DF000E9FF0200FB68D21A7B689A42F7D3C0462B
:100E0000BD4604B080BDC04680B500AF044B044A67
:100E1000126802218A431A60C046BD4680BDC046A2
:100E200010E000E080B500AF044B044A12680221D4
:100E30000A431A60C046BD4680BDC04610E000E0CF
:100E400080B500AF014B1800BD4680BD0000010118
:100E500080B500AF024B1B681B0C1800BD4680BD5F
:100E60000058014080B500AF034B1B681B051B0DEC
:100E70001800BD4680BDC0460058014080B500AF97
:100E8000044B044A526801210A435A60C046BD46D9
:100E900080BDC0460058014080B500AF044B044AF5
:100EA000526801218A435A60C046BD4680BDC04693
:100EB0000058014080B500AF044B044A526802213B
:100EC0000A435A60C046BD4680BDC0460058014036
:100ED00080B500AF044B044A526802218A435A602D
:100EE000C046BD4680BDC0460058014080B500AF39
:100EF000044B044A526804210A435A60C046BD4666
:100F000080BDC0460058014080B500AF044B044A84
:100F1000526804218A435A60C046BD4680BDC0461F
:100F20000058014080B582B000AF78600A00FB1C19
:100F30001A70FB1C1B78002B06D0094B084A51681D
:100F40007A680A435A6006E0054B054A5268796898
:100F5000C9430A405A60C046BD4602B080BDC04683
:100F60000058014080B500AF034B1A68C0239B00B6
:100F700013401800BD4680BD0000014080B582B01E
:100F800000AF78600A00FB1C1A70FB1C1B78002B5A
:100F900006D0094B084A51687A680A435A6006E04D
:100FA000054B054A52687968C9430A405A60C046F1
:100FB000BD4602B080BDC0460000014080B582B091
:100FC00000AF0200FB1D1A70FB1D1B78002B06D022
:100FD000084B084A126A01210A431A6205E0054BD0
:100FE000044A126A01218A431A62C046BD4602B011
:100FF00080BDC0460000014080B582B000AF78607F
:10100000074B074A126A30218A431A62044B044A8A
:10101000116A7A680A431A62C046BD4602B080BDB2
:101020000000014080B582B000AF0200FB1D1A70C5
:10103000FB1D1B78002B07D0084B084A126A0221BF
:10104000FF310A431A6205E0044B044A126A04495C
:101050000A401A62C046BD4602B080BD0000014091
:10106000FEFEFFFF80B582B000AF0200FB1D1A70CC
:10107000FB1D1B78002B06D0084B084A126A084952
:101080000A431A6205E0054B044A126A05490A4000
:101090001A62C046BD4602B080BDC0460000014095
:1010A00001020000FEFDFFFF80B582B000AF02002C
:1010B000FB1D1A70FB1D1B78002B06D0084B084A3D
:1010C000126A08490A431A6205E0054B044A126A8B
:1010D00005490A401A62C046BD4602B080BDC046FE
:1010E0000000014001100000FEEFFFFF80B582B05C
:1010F00000AF0200FB1D1A70FB1D1B78002B06D0F1
:10110000084B084A126A08490A431A6205E0054B6F
:10111000044A126A05490A401A62C046BD4602B036
:1011200080BDC0460000014001200000FEDFFFFF3F
:1011300080B582B000AF0200FB1D1A70FB1D1B784A
:10114000002B07D0084B084A126A802109060A437F
:101150001A6205E0044B044A126A520052081A62ED
:10116000C046BD4602B080BD0000014080B500AF62
:10117000044B054ADA60034B044ADA60C046BD46B8
:1011800080BDC04600200240EFCDAB8905040302BC
:1011900080B500AF074B5B680122134001D0FFF719
:1011A000E5FF044B034A526808210A435A60C046CF
:1011B000BD4680BD0020024080B500AF044B044A0C
:1011C000526808218A435A60C046BD4680BDC04669
:1011D0000020024080B586B000AFF860B960FB1D0A
:1011E0001A70FFF7D5FFFB68002B00DA03339B1062
:1011F0003B613B699B003B613B690421180000F0A7
:1012000033F803007B61FA683B69D31ADB00FF22E5
:101210009A401300DB431A007B691A40F9683B6966
:10122000CB1ADB00B96899400B0013437B617B69E3
:10123000002B02D101235B427B613B69084A944643
:1012400063447A691A60C046064B9B6901221340C9
:10125000FAD1FFF7B1FFC046BD4606B080BDC0461B
:10126000000008080020024080B584B000AF78601C
:101270000A00FB1C1A70FB1C1B78012B13D17B6826
:10128000124A944663441A000F23FB1812781A700E
:101290000F23FB181B78FF2B01D1002312E00F2333
:1012A000FB181B780EE0FB1C1B78022B05D17B681A
:1012B000064A944663441B8804E07B68034A9446CC
:1012C00063441B681800BD4604B080BD00000808D8
:1012D00080B582B000AF78607B68044A944663446E
:1012E0001B781800BD4602B080BDC046000008084B
:1012F00080B582B000AFFFF74BFF00237B600FE0AB
:101300007B680F4A944663449B000E4A1A60C046AD
:101310000D4B9B6901221340FAD17B6801337B603E
:101320007A689023FF339A42EADDFFF745FF074BC7
:101330001800FFF7DDFAC046BD4602B080BDC046CA
:1013400000000202FEFEFEFE00200240405E000899
:1013500080B500AFBFF34F8F024B034ADA60BFF393
:101360004F8FFEE700ED00E00400FA0580B500AF06
:10137000044B1800FFF7BCFAFFF7EAFFC046BD4672
:1013800080BDC046645E000880B500AF054B180004
:10139000FFF7AEFAFFF7ACFFFFF7E8FFC046BD4628
:1013A00080BDC046745E000880B500AFC046BD4633
:1013B00080BDC04680B500AFC046BD4680BDC046BA
:1013C00080B500AFC046BD4680BDC04680B500AF09
:1013D00000F0E8F801F072F804F06AFAFFF768F933
:1013E000024B1800FFF70AFAFAE7C046A05E0008B1
:1013F00080B500AF174B174A1268802149000A4395
:101400001A60144B134AD26813490A40DA60114B30
:10141000104A126811490A401A600E4B0D4A926830
:1014200001218A439A600B4B0A4A12680C490A4010
:101430001A60084B074AD2680A490A40DA60054B2D
:1014400000221A61084B802212059A60C046BD46F0
:1014500080BDC046001002400C40FF88F6FFF6FE3B
:10146000FFFFFBFFFFFF02FF00ED00E080B586B04D
:1014700000AF00237B6100233B610023FB6000235E
:10148000BB6000237B60414BDB680C2213407B6117
:101490007B69042B16D002D8002B05D051E0082B15
:1014A00014D00C2B16D04CE0384B5A68E0231B02AA
:1014B00013405B0BFA2212029A4013001A00344BBD
:1014C0001A604FE0324B334A1A604BE0304B324ADD
:1014D0001A6047E02D4BDA68F0239B0313403B6111
:1014E0002A4BDA68C0231B041340FB603B699B0C4A
:1014F0002A4AD35CDBB23B61FB689B0D0133FB6086
:10150000224BDA6880235B021340BB60BB68002B70
:101510000BD13B691F4A5343F968180004F052FA93
:1015200003001A001A4B1A601CE03B691A4A534325
:10153000F968180004F046FA03001A00144B1A6008
:1015400010E0124B5A68E0231B0213405B0B7B60D8
:101550007B680133802212029A4013001A000C4B60
:101560001A60C046094BDB68F02213401B090C4A85
:10157000D35CDBB27B61064B1A687B69DA40044BB3
:101580001A60C046BD4606B080BDC046001002408D
:10159000000000200024F40000127A001400002053
:1015A0000400002080B500AF0A4B0A4A12680121EE
:1015B0000A431A60C046074B1B6804221340FAD046
:1015C000044B044AD26801210A43DA60C046BD4692
:1015D00080BDC046001002400D488546002103E052
:1015E0000C4B5B58435004310B480C4B42189A4249
:1015F000F6D30B4A02E0002313600432094B9A42EF
:10160000F9D3FFF7F5FE04F053FBFFF7DFFEFEE72B
:1016100000200020185F000800000020780400204F
:1016200078040020240B0020FEE7000080B584B081
:1016300000AF78600023FB607B68002B01D10123A1
:10164000B5E07B682522022199547B681B681B68E2
:10165000FB60FB68584A1340FB607B689A687B68B4
:10166000DB681A437B681B691A437B685B691A4312
:101670007B689B691A437B68DB691A437B681B6A3A
:101680001343FA681343FB607B681B68FA681A60AF
:101690007B681B68494A93420DD1494B484A1268FE
:1016A0000F218A431A60464A454B19687B685B687C
:1016B0000B43136076E07B681B68424A93420ED16D
:1016C0003F4B3F4A1268F0218A431A603C4A3C4B28
:1016D00019687B685B681B010B43136062E07B68E1
:1016E0001B68394A93420ED1354B354A1268374947
:1016F0000A401A60324A324B19687B685B681B02E9
:101700000B4313604EE07B681B68314A93420ED155
:101710002B4B2B4A12682F490A401A60284A284B43
:1017200019687B685B681B030B4313603AE07B68B6
:101730001B68294A93420ED1214B214A126827493E
:101740000A401A601E4A1E4B19687B685B681B04BE
:101750000B43136026E07B681B68214A93420ED13D
:10176000174B174A12681F490A401A60144A144B53
:1017700019687B685B681B050B43136012E07B688C
:101780001B68194A93420DD10D4B0D4A1268174937
:101790000A401A600A4A0A4B19687B685B681B0694
:1017A0000B4313607B682522012199540023180004
:1017B000BD4604B080BDC0460FC0FFFF0800024018
:1017C000A80002401C00024030000240FFF0FFFF72
:1017D00044000240FF0FFFFF58000240FFFFF0FFF0
:1017E0006C000240FFFF0FFF80000240FFFFFFF090
:1017F00080B582B000AF78607B68002B01D10123F7
:101800005EE17B6825229B5CDBB2022B01D10123C8
:1018100056E17B681B687A681268126801218A4366
:101820001A607B681B6800221A607B681B680022B4
:101830005A607B681B6800229A607B681B680022E4
:10184000DA60A14A7B681B681900A04B99422ED030
:101850007B681B6819009E4B994226D07B681B68E9
:1018600019009C4B99421DD07B681B6819009A4B4C
:10187000994214D07B681B681900984B99420BD091
:101880007B681B681900964B994202D180235B0349
:101890000EE080235B040BE080235B0208E08023E2
:1018A0005B0105E080235B0002E0102300E00123E0
:1018B0005360854A7B681B681900844B99422ED07F
:1018C0007B681B681900824B994226D07B681B6895
:1018D0001900804B99421DD07B681B6819007E4B14
:1018E000994214D07B681B6819007C4B99420BD03D
:1018F0007B681B6819007A4B994202D180239B03B5
:101900000EE080239B040BE080239B0208E08023F1
:101910009B0105E080239B0002E0202300E00223DE
:101920005360694A7B681B681900684B99422ED046
:101930007B681B681900664B994226D07B681B6840
:101940001900644B99421DD07B681B681900624BDB
:10195000994214D07B681B681900604B99420BD0E8
:101960007B681B6819005E4B994202D180231B04DF
:101970000EE080231B050BE080231B0308E080237F
:101980001B0205E080231B0102E0802300E0082306
:1019900053604D4A7B681B6819004C4B99422ED00E
:1019A0007B681B6819004A4B994226D07B681B68EC
:1019B0001900484B99421DD07B681B681900464BA3
:1019C000994214D07B681B681900444B99420BD094
:1019D0007B681B681900424B994202D18023DB03CC
:1019E0000EE08023DB040BE08023DB0208E0802391
:1019F000DB0105E08023DB0002E0402300E004235C
:101A000053607B681B68314A934206D1354B354A97
:101A100012680F218A431A6046E07B681B682C4AD3
:101A2000934206D12F4B2F4A1268F0218A431A6045
:101A30003AE07B681B68274A934206D1294B294A22
:101A4000126829490A401A602EE07B681B68224A06
:101A5000934206D1234B234A126824490A401A6054
:101A600022E07B681B681D4A934206D11D4B1D4A2C
:101A700012681F490A401A6016E07B681B68184A02
:101A8000934206D1174B174A12681A490A401A6046
:101A90000AE07B681B68184A934205D1114B114A32
:101AA000126816490A401A607B6800229A637B68B4
:101AB0002522002199547B68242200219954002377
:101AC0001800BD4602B080BD000002400800024080
:101AD0001C00024030000240440002405800024016
:101AE0006C000240A8000240FFF0FFFFFF0FFFFF65
:101AF000FFFFF0FFFFFF0FFF80000240FFFFFFF03E
:101B000080B584B000AFF860B9607A603B60FB6874
:101B100024229B5C012B01D102231EE0FB682422BE
:101B200001219954FB68252202219954FB681B6806
:101B3000FA681268126801218A431A603B687A6861
:101B4000B968F86800F056FCFB681B68FA68126810
:101B5000126801210A431A6000231800BD4604B030
:101B600080BDC04680B584B000AFF860B9607A60CF
:101B70003B60FB6824229B5C012B01D1022336E0F1
:101B8000FB68242201219954FB68252202219954E3
:101B9000FB681B68FA681268126801218A431A60A0
:101BA0003B687A68B968F86800F024FCFB681B6839
:101BB000FA681268126802210A431A60FB681B68FF
:101BC000FA681268126804210A431A60FB681B68ED
:101BD000FA681268126808210A431A60FB681B68D9
:101BE000FA681268126801210A431A60002318007B
:101BF000BD4604B080BDC04680B584B000AF7860FB
:101C00000023FB607B681B687A68126812680121F8
:101C10008A431A60FFF7D6F80300FB6018E0FFF76D
:101C2000D1F80200FB68D21AFA239B009A420FD91E
:101C30007B689B6B20221A437B689A637B68242213
:101C4000002199547B6825220321995403230EE037
:101C50007B681B681B6801221340E0D17B6824224B
:101C6000002199547B6825220121995400231800F2
:101C7000BD4604B080BDC04680B586B000AFF860F8
:101C8000B9607A6000233B61BB68002B37D1FB68E9
:101C90001B681A00C14B9A422ED0FB681B681A00C1
:101CA000BF4B9A4226D0FB681B681A00BD4B9A4274
:101CB0001DD0FB681B681A00BB4B9A4214D0FB680E
:101CC0001B681A00B94B9A420BD0FB681B681A00BC
:101CD000B74B9A4202D180239B030EE080239B04E2
:101CE0000BE080239B0208E080239B0105E080231A
:101CF0009B0002E0202300E002237B6136E0FB68CA
:101D00001B681A00A54B9A422ED0FB681B681A006C
:101D1000A34B9A4226D0FB681B681A00A14B9A423B
:101D20001DD0FB681B681A009F4B9A4214D0FB68B9
:101D30001B681A009D4B9A420BD0FB681B681A0067
:101D40009B4B9A4202D18023DB030EE08023DB040D
:101D50000BE08023DB0208E08023DB0105E0802329
:101D6000DB0002E0402300E004237B61FFF72AF858
:101D700003003B619FE08F4B1A68FB681B681900EA
:101D8000864B99422ED0FB681B681900844B994200
:101D900026D0FB681B681900824B99421DD0FB6856
:101DA0001B681900804B994214D0FB681B6819000E
:101DB0007E4B99420BD0FB681B6819007C4B994203
:101DC00002D180231B040EE080231B050BE080233F
:101DD0001B0308E080231B0205E080231B0102E0B7
:101DE000802300E00823134047D0724AFB681B6839
:101DF00019006A4B99422ED0FB681B681900684B8A
:101E0000994226D0FB681B681900664B99421DD089
:101E1000FB681B681900644B994214D0FB681B686F
:101E20001900624B99420BD0FB681B681900604B8C
:101E3000994202D180231B040EE080231B050BE096
:101E400080231B0308E080231B0205E080231B0185
:101E500002E0802300E008235360FB689B6B0122B3
:101E60001A43FB689A63FB68252204219954FB6896
:101E70002422002199540123B7E07B6801331AD052
:101E80007B68002B07D0FEF79DFF02003B69D21A4A
:101E90007B689A420FD9FB689B6B20221A43FB6830
:101EA0009A63FB68252203219954FB6824220021B0
:101EB0009954032399E03F4B1B687A69134000D182
:101EC00059E7BB68002B40D13A4AFB681B681900F0
:101ED000324B99422ED0FB681B681900304B994257
:101EE00026D0FB681B6819002E4B99421DD0FB6859
:101EF0001B6819002C4B994214D0FB681B68190011
:101F00002A4B99420BD0FB681B681900284B994259
:101F100002D180239B030EE080239B040BE08023EF
:101F20009B0208E080239B0105E080239B0002E0E8
:101F3000202300E002235360FB68252201219954ED
:101F4000FB682422002199544EE01A4AFB681B6862
:101F50001900124B99423DD0FB681B681900104BC9
:101F6000994235D0FB681B6819000E4B99422CD062
:101F7000FB681B6819000C4B994223D0FB681B6857
:101F800019000A4B99421AD0FB681B681900084BCC
:101F9000994211D18023DB031DE0C04608000240B6
:101FA0001C00024030000240440002405800024041
:101FB0006C000240000002408023DB040BE0802321
:101FC000DB0208E08023DB0105E08023DB0002E088
:101FD000402300E004235360FB6825220521995427
:101FE000FB6824220021995400231800BD4606B046
:101FF00080BDC04680B582B000AF7860B04B1A6833
:102000007B681B681900AF4B99422ED07B681B6818
:102010001900AD4B994226D07B681B681900AB4B69
:1020200099421DD07B681B681900A94B994214D0B6
:102030007B681B681900A74B99420BD07B681B6813
:102040001900A54B994202D180231B040EE0802386
:102050001B050BE080231B0308E080231B0205E027
:1020600080231B0102E0802300E0082313405CD0A2
:102070007B681B681B680822134056D07B681B686E
:102080007A681268126808218A431A608C4A7B6851
:102090001B6819008B4B99422ED07B681B68190076
:1020A000894B994226D07B681B681900874B99425F
:1020B0001DD07B681B681900854B994214D07B6842
:1020C0001B681900834B99420BD07B681B68190071
:1020D000814B994202D180231B040EE080231B0513
:1020E0000BE080231B0308E080231B0205E0802314
:1020F0001B0102E0802300E0082353607B689B6B98
:1021000001221A437B689A637B6825220421995433
:102110007B682422002199547B685B6B002B04D0E0
:102120007B685B6B7A6810009847654B1A687B6820
:102130001B681900634B99422ED07B681B681900FD
:10214000614B994226D07B681B6819005F4B99420E
:102150001DD07B681B6819005D4B994214D07B68C9
:102160001B6819005B4B99420BD07B681B681900F8
:10217000594B994202D18023DB030EE08023DB041C
:102180000BE08023DB0208E08023DB0105E08023F5
:10219000DB0002E0402300E00423134058D07B68BA
:1021A0001B681B680422134052D07B681B681B68A5
:1021B0002022134007D17B681B687A681268126876
:1021C00004218A431A603E4A7B681B6819003D4B14
:1021D00099422ED07B681B6819003B4B994226D050
:1021E0007B681B681900394B99421DD07B681B68BE
:1021F0001900374B994214D07B681B681900354B86
:1022000099420BD07B681B681900334B994202D16D
:102210008023DB030EE08023DB040BE08023DB0262
:1022200008E08023DB0105E08023DB0002E040239F
:1022300000E0042353607B682522052199547B68C4
:102240001B6B002B04D07B681B6B7A6810009847CF
:102250001B4B1A687B681B6819001A4B99423DD0CA
:102260007B681B681900184B994226D07B681B6855
:102270001900164B99421DD07B681B681900144B3E
:10228000994214D07B681B681900124B99420BD0FD
:102290007B681B681900104B994202D180239B0375
:1022A0001DE080239B041AE080239B0217E080231B
:1022B0009B0114E080239B0011E020230FE0C04627
:1022C00000000240080002401C00024030000240B2
:1022D00044000240580002406C00024002231340B8
:1022E00060D07B681B681B68022213405AD07B6851
:1022F0001B681B682022134007D17B681B687A6823
:102300001268126802218A431A60284A7B681B6897
:102310001900274B99422ED07B681B681900254B6A
:10232000994226D07B681B681900234B99421DD027
:102330007B681B681900214B994214D07B681B688D
:1023400019001F4B99420BD07B681B6819001D4B6D
:10235000994202D180239B030EE080239B040BE073
:1023600080239B0208E080239B0105E080239B00E3
:1023700002E0202300E0022353607B689A6B7B68B5
:102380009A637B682522012199547B6824220021CD
:1023900099547B68DB6A002B04D07B68DB6A7A681F
:1023A00010009847C046BD4602B080BD0000024004
:1023B000080002401C00024030000240440002407D
:1023C000580002406C00024080B582B000AF7860D7
:1023D0007B6825229B5CDBB21800BD4602B080BD45
:1023E00080B582B000AF78607B689B6B1800BD46FB
:1023F00002B080BD80B584B000AFF860B9607A608B
:102400003B60FB681B683A685A60FB689B68102B4E
:1024100008D1FB681B687A689A60FB681B68BA6819
:10242000DA6007E0FB681B68BA689A60FB681B68A3
:102430007A68DA60C046BD4604B080BD80B586B01B
:1024400000AF3B1D00221A613B1D11225A603B1D4B
:10245000802212021A603B1D00229A603B1D03225B
:10246000DA603B1D064A19001000FDF759FE044BC7
:10247000802212069A61C046BD4606B080BDC046A5
:102480000004005080B586B000AF3B1D00221A61E9
:102490003B1D11225A603B1D802212021A603B1D17
:1024A0000322DA603B1D044A19001000FDF738FED4
:1024B000C046BD4606B080BD0004005080B586B061
:1024C00000AFD64BD54AD26A01210A43DA62D34B18
:1024D000D24AD26A02210A43DA62D04BCF4AD26A88
:1024E00004210A43DA623B1D00221A613B1D1122BE
:1024F0005A603B1D802212021A603B1D00229A6026
:102500003B1D0322DA603B1DC54A19001000FDF790
:1025100007FEC34B802212029A613B1D00221A6102
:102520003B1D02225A603B1D00229A603B1DC022C7
:102530001A603B1D0322DA603B1DB94A19001000E6
:10254000FDF7EEFD3B1D00221A613B1D02225A6081
:102550003B1D00229A603B1D0C221A603B1D03228A
:10256000DA603A1DA023DB0511001800FDF7D8FD45
:102570003B1D00221A613B1D02225A603B1D0022B6
:102580009A603B1DC02212011A603B1D0322DA60D3
:102590003B1DA34A19001000FDF7C2FD3B1D0022A0
:1025A0001A613B1D01225A603B1D802252001A60B5
:1025B0003B1D0322DA603A1DA023DB051100180041
:1025C000FDF7AEFD3B1D00221A613B1D01225A6042
:1025D0003B1D802212011A603B1D0322DA603A1D66
:1025E000A023DB0511001800FDF79AFD3B1D00221A
:1025F0001A613B1D01225A603B1D08221A603B1DD7
:102600000322DA603B1D864A19001000FDF788FDA1
:102610003B1D00221A613B1D01225A603B1D102206
:102620001A603B1D0322DA603B1D7D4A1900100031
:10263000FDF776FD3B1D00221A613B1D01225A6009
:102640003B1D20221A603B1D0322DA603B1D744AA9
:1026500019001000FDF764FD3B1D00221A613B1DAF
:1026600000225A603B1D802252011A603B1D03224A
:10267000DA603A1DA023DB0511001800FDF750FDBC
:102680003B1D00221A613B1D03225A603B1D0022A4
:102690009A603B1DF2221A603B1D0322DA603A1D4C
:1026A000A023DB0511001800FDF73AFD3B1D0022B9
:1026B0001A613B1D00225A603B1D00229A603B1D9F
:1026C000E022D2011A603B1D0322DA603B1D544A0E
:1026D00019001000FDF724FD3B1D00221A613B1D6F
:1026E00000225A603B1D00229A603B1D802212028C
:1026F0001A603B1D0322DA603A1DA023DB0511009E
:102700001800FDF70DFD3B1D00221A613B1D012243
:102710005A603B1D00229A603B1D802252001A60C5
:102720003B1D0322DA603B1D3D4A19001000FDF7F6
:10273000F7FC3B1D00221A613B1D01225A603B1D24
:1027400000229A603B1D802292001A603B1D0322EA
:10275000DA603B1D324A19001000FDF7E1FC3B1D19
:1027600000221A613B1D01225A603B1D00229A6023
:102770003B1D802292011A603B1D0322DA603B1D43
:10278000284A19001000FDF7CBFC3B1D00221A61FE
:102790003B1D01225A603B1D00229A603B1D802296
:1027A000D2011A603B1D0322DA603B1D1D4A19004D
:1027B0001000FDF7B5FC3B1D00221A613B1D0122F4
:1027C0005A603B1D00229A603B1D802212021A6053
:1027D0003B1D0322DA603B1D124A19001000FDF771
:1027E0009FFC3B1D00221A613B1D01225A603B1DCC
:1027F00000229A603B1D04221A603B1D0322DA600E
:102800003B1D074A19001000FDF78AFC044B042207
:102810009A61C046BD4606B080BDC0460010024069
:10282000000400500008005080B500AFC046BD460F
:1028300080BDC04680B586B000AFF860B9607A60F0
:102840003B6000237B61FB68002B01D1012353E037
:10285000FB6869229B5CDBB2002B03D1FB6818008C
:1028600001F04CFAFB68692202219954FB681B684D
:10287000FA681268126801218A431A60FB6818001E
:1028800002F070FAFB685B6A002B03D0FB6818004B
:1028900002F072FCFB681B68FA681268926880217B
:1028A000C9010A439A60FB681B68FA68126892685B
:1028B00013491140BA680A439A607B685B057B61E3
:1028C0003B681B047A6913437B61FB681B68FA68E9
:1028D000126812680B4911407A690A431A60FB6852
:1028E0001B68FA681268126801210A431A60FB68C3
:1028F000180002F005FC03001800BD4606B080BDBC
:10290000FF7FFFFFFFFF00FC80B582B000AF786063
:10291000C046BD4602B080BD80B582B000AF7860D1
:102920007B6868229B5C012B01D1022318E07B6845
:102930006822012199547B686922022199547B689D
:102940001B687A681268126802210A431A607B6861
:102950006922012199547B6868220021995400233F
:102960001800BD4602B080BD80B582B000AF78606F
:102970007B6868229B5C012B01D1022319E07B68F4
:102980006822012199547B686922022199547B684D
:102990001B687A6812689268802109040A439A6069
:1029A0007B686922012199547B686822002199542F
:1029B00000231800BD4602B080BDC04680B582B07D
:1029C00000AF78607B6868229B5C012B01D10223F9
:1029D00018E07B686822012199547B6869220221F2
:1029E00099547B681B687A681268126802218A43CE
:1029F0001A607B686922012199547B686822002152
:102A0000995400231800BD4602B080BD80B582B045
:102A100000AF78607B6868229B5C012B01D10223A8
:102A200018E07B686822012199547B6869220221A1
:102A300099547B681B687A681268926807490A4053
:102A40009A607B686922012199547B686822002181
:102A5000995400231800BD4602B080BDFFFF7FFFE0
:102A600080B584B000AFF8603B1D19605A60FB6808
:102A700068229B5C012B01D1022346E0FB6868229F
:102A800001219954FB68692202219954FB681B6853
:102A9000FA681268126801218A431A60FB681B6891
:102AA000FA68126892681B4911403A1D12680A437D
:102AB0009A603B1D1B68002B05D13B1DF868196807
:102AC0005A6800F05BF8FB681B68FA6812681268C5
:102AD00001210A431A60FA239A008023D903F86877
:102AE0001300002202F0F4FB031E01D003230CE0CC
:102AF000FB68682200219954FB686A2200219954DE
:102B0000FB6869220121995400231800BD4604B0D6
:102B100080BDC046FFFFCFFF80B582B000AF7860B8
:102B200039607B68002B01D1012323E07B68692297
:102B3000022199547B681B687A6812681268012127
:102B40008A431A607B681B687A6812685268102191
:102B50008A4311003A680A435A607B681B687A68A6
:102B60001268126801210A431A607B68180002F09B
:102B7000C7FA03001800BD4602B080BD80B584B01E
:102B800000AFF8603B1D19605A60FB681B68FA686B
:102B90001268526810218A43391D89880A435A6095
:102BA000FB681B68FA68126852681202110A3A1D23
:102BB000927912060A435A60C046BD4604B080BDF1
:102BC00080B500AF0D4B0D4A1268802149000A43C1
:102BD0001A600A4B094A126809490A401A60074BF1
:102BE0000022DA60054B054A126806490A401A605D
:102BF000024B00221A61C046BD4680BD0010024053
:102C0000FCFFF6FEFFFFFBFF80B584B000AF7860ED
:102C10000023FB607B681B680122134000D176E033
:102C2000C44BDB680C221340082B0BD0C14BDB6874
:102C30000C2213400C2B13D1BE4BDA6880235B02AD
:102C400013400DD0BB4B1A6880239B0213405DD00C
:102C50007B685A6880235B029A4257D00123CBE2FB
:102C6000B44BB44A1268B4490A401A60FEF7AAF895
:102C70000300FB6009E0FEF7A5F80200FB68D31A29
:102C8000AE4A934201D90323B6E2AA4B1A688023C5
:102C90009B021340EFD1A74AA64B1B68A6491940D7
:102CA0007B685B680B4313607B685A6880235B0218
:102CB0009A4215D1FEF786F80300FB6009E0FEF7A3
:102CC00081F80200FB68D31A9C4A934201D903237E
:102CD00092E2984B1A6880239B021340EFD016E0D3
:102CE000FEF770F80300FB6009E0FEF76BF80200E6
:102CF000FB68D31A914A934201D903237CE28D4B9E
:102D00001A6880239B021340EFD100E0C0467B6825
:102D10001B680222134000D170E0864BDB680C2256
:102D20001340042B0BD0834BDB680C2213400C2B7D
:102D30001BD1804BDA6880235B02134015D17D4B99
:102D40001B680422134005D07B68DB68012B01D08F
:102D5000012351E2774A774B5B68794919407B68D8
:102D60001B691B020B43536048E07B68DB68002B48
:102D700027D0704A6F4B1B6809218B4319007B6871
:102D8000DB680B431360FEF71DF80300FB6008E0EF
:102D9000FEF718F80200FB68D31A642B01D903234D
:102DA0002AE2644B1B6804221340F1D0614A614B54
:102DB0005B68634919407B681B691B020B435360C6
:102DC0001CE05C4A5B4B1B6809218B4319007B6844
:102DD000DB680B431360FDF7F5FF0300FB6008E0C1
:102DE000FDF7F0FF0200FB68D31A642B01D903231F
:102DF00002E2504B1B6804221340F1D17B681B6830
:102E00001022134000D171E04A4BDB680C221340C2
:102E10001FD1484B1A6880239B00134005D07B6864
:102E2000DB69012B01D00123E6E1424A414B5B689B
:102E3000444919407B685B6A0B4353603D4A3D4BF4
:102E40005B681B02190A7B681B6A1B060B435360F5
:102E50004CE07B68DB69002B2ED0364B354A12687C
:102E6000802149000A431A60FDF7ACFF0300FB60B4
:102E700008E0FDF7A7FF0200FB68D31A642B01D915
:102E80000323B9E12B4B1A6880239B001340F0D039
:102E9000284A284B5B682B4919407B685B6A0B43C7
:102EA0005360244A234B5B681B02190A7B681B6A28
:102EB0001B060B43536019E01E4B1E4A1268224941
:102EC0000A401A60FDF77EFF0300FB6008E0FDF793
:102ED00079FF0200FB68D31A642B01D903238BE12D
:102EE000144B1A6880239B001340F0D17B681B6849
:102EF0000822134043D07B685B69002B26D00D4B22
:102F00000C4A126D01210A431A65FDF75BFF0300AD
:102F1000FB6008E0FDF756FF0200FB68D31A642B44
:102F200001D9032368E1034B1B6D02221340F1D04A
:102F300025E0C04600100240FFFFFAFF88130000A2
:102F4000FFE0FFFFFF1FFFFFFFFEFFFFAC4BAC4AA0
:102F5000126D01218A431A65FDF734FF0300FB60FF
:102F600008E0FDF72FFF0200FB68D31A642B01D99C
:102F7000032341E1A24B1B6D02221340F1D17B6878
:102F80001B682022134048D07B689B69002B25D00A
:102F90009B4B9B4A926801210A439A60984B984A3E
:102FA000526B01210A435A63964B964A126A96491C
:102FB0000A431A62FDF706FF0300FB6008E0FDF715
:102FC00001FF0200FB68D31A642B01D9032313E12C
:102FD0008B4B9B6802221340F1D01EE0884B884A3D
:102FE000926801218A439A60864B864A126A874911
:102FF0000A401A62FDF7E6FE0300FB6008E0FDF7F9
:10300000E1FE0200FB68D31A642B01D90323F3E02D
:103010007B4B9B6802221340F1D17B681B68042222
:10302000134000D176E0764B754A926B80214905BA
:103030000A439A63764B764A1268802149000A4314
:103040001A60FDF7BFFE0300FB6008E0FDF7BAFE63
:103050000200FB68D31A642B01D90323CCE06C4B2C
:103060001A6880235B001340F0D0654B644A126DF0
:1030700068490A401A65FDF7A5FE0300FB6009E0F8
:10308000FDF7A0FE0200FB68D31A634A934201D900
:103090000323B1E05A4B1A6D80239B001340EFD1FC
:1030A000574A574B1B6D5B4919407B689B680B4324
:1030B00013657B689A6880235B009A4215D1FDF7FF
:1030C00081FE0300FB6009E0FDF77CFE0200FB6867
:1030D000D31A514A934201D903238DE0484B1A6D0C
:1030E00080239B001340EFD014E0FDF76BFE03003C
:1030F000FB6009E0FDF766FE0200FB68D31A464A52
:10310000934201D9032377E03D4B1A6D80239B0046
:103110001340EFD17B689B6A002B00D16BE0384BEA
:10312000DB680C2213400C2B63D07B689B6A022B5C
:1031300044D1334B324A126838490A401A60FDF7CD
:1031400041FE0300FB6008E0FDF73CFE0200FB6867
:10315000D31A642B01D903234EE0294B1A6880232C
:103160009B041340F0D1264A254BDB682C491940BB
:103170007B68186B7B685B6B18437B68DB6A034377
:103180000B43D3601E4B1E4A1268802149040A4338
:103190001A60FDF717FE0300FB6008E0FDF712FE62
:1031A0000200FB68D31A642B01D9032324E0144BDB
:1031B0001A6880239B041340F0D01CE0104B104A87
:1031C000126816490A401A60FDF7FCFD0300FB6017
:1031D00008E0FDF7F7FD0200FB68D31A642B01D964
:1031E000032309E0064B1A6880239B041340F0D1A7
:1031F00001E0012300E000231800BD4604B080BDBB
:10320000001002400000014001200000FEDFFFFF2F
:1032100000700040FFFAFFFF88130000FFFFFFFE71
:10322000FFFF02FF80B584B000AF786039600023F3
:10323000FB60B54B1B6801221A403B689A4200D3E1
:10324000B1E0B14BB04A126801218A4311003A68DB
:103250000A431A60AC4B1B6801221A403B689A4231
:1032600001D0012377E17B681B680222134009D05B
:10327000A64AA64BDB68F0218B4319007B689B684C
:103280000B43D3607B681B680122134000D141E1EE
:103290007B685B68022B07D19C4B1A6880239B02DA
:1032A000134020D1012356E17B685B68002B07D1D6
:1032B000964B1A6880239B00134014D101234AE1E6
:1032C0007B685B68032B07D1904B1A6880239B04B3
:1032D000134008D101233EE18C4B1B6804221340AC
:1032E00001D1012337E1894A884BDB6803218B43F5
:1032F00019007B685B680B43D360FDF763FD030037
:10330000FB607B685B68022B11D109E0FDF75AFD79
:103310000200FB68D31A7E4A934201D903231AE1C3
:103320007A4BDB680C221340082BEFD1F2E07B686C
:103330005B68032B11D109E0FDF744FD0200FB6837
:10334000D31A734A934201D9032304E16F4BDB681C
:103350000C2213400C2BEFD1DCE07B685B68002B68
:103360001AD109E0FDF72EFD0200FB68D31A684A66
:10337000934201D90323EEE0644BDB680C22134037
:10338000F0D1C7E0FDF71EFD0200FB68D31A604ACA
:10339000934201D90323DEE05C4BDB680C2213402F
:1033A000042BEFD1B6E07B681B680222134009D0E2
:1033B000564A564BDB68F0218B4319007B689B68AB
:1033C0000B43D3607B681B680122134000D189E066
:1033D0007B685B68022B07D14C4B1A6880239B02E9
:1033E000134020D10123B6E07B685B68002B07D136
:1033F000464B1A6880239B00134014D10123AAE096
:103400007B685B68032B07D1404B1A6880239B04C1
:10341000134008D101239EE03C4B1B68042213405B
:1034200001D1012397E0394A384BDB6803218B43F4
:1034300019007B685B680B43D360FDF7C3FC030096
:10344000FB607B685B68022B11D109E0FDF7BAFCD9
:103450000200FB68D31A2E4A934201D903237AE073
:103460002A4BDB680C221340082BEFD13AE07B6833
:103470005B68032B11D109E0FDF7A4FC0200FB6897
:10348000D31A234A934201D9032364E01F4BDB681C
:103490000C2213400C2BEFD124E07B685B68002BDF
:1034A0001AD109E0FDF78EFC0200FB68D31A184A16
:1034B000934201D903234EE0144BDB680C221340E6
:1034C000F0D10FE0FDF77EFC0200FB68D31A104A32
:1034D000934201D903233EE00C4BDB680C221340DE
:1034E000042BEFD1084B084A126801218A431100CE
:1034F0003A680A431A60044B1B6801221A403B6871
:103500009A4207D0012326E000200240001002402A
:10351000881300007B681B680422134008D0104AFF
:103520000F4BDB680F4919407B68DB680B43D360A6
:103530007B681B680822134009D0094A084BDB68E6
:10354000094919407B681B69DB000B43D3600320EA
:10355000FDF710FC00231800BD4604B080BDC04636
:1035600000100240FFF8FFFFFFC7FFFF80B58AB0E1
:1035700000AFF860B9607A601D4B1D4AD26A012124
:103580000A43DA62FB68002B05D11423FB18802262
:1035900052001A6004E01423FB18802292001A6083
:1035A0001423FB1802225A601423FB180322DA604A
:1035B0001423FB1800229A601423FB1800221A61BE
:1035C0001423FA18A023DB0511001800FCF7A8FD4E
:1035D000074B074AD26807491140BA6810067A6853
:1035E00002430A43DA60C046BD460AB080BDC04609
:1035F00000100240FFFFFF8080B500AF044B044A7B
:103600001268802109030A431A60C046BD4680BD86
:103610000010024080B586B000AF00233B6100235C
:10362000FB600023BB6000237B6000237B61334B86
:103630005A68E0231B0213405B0B7B60304B7A68B7
:103640009200D3587B602D4BDB680C221340042B77
:103650000BD002D8002B05D048E0082B10D00C2B43
:1036600011D043E07B687B6143E0244B1B68102250
:10367000134002D0234B7B613BE0234B7B6138E05E
:10368000224B7B6135E01D4BDA68F0239B0313402E
:103690003B611A4BDA68C0231B041340FB603B6993
:1036A0009B0C1B4AD35CDBB23B61FB689B0D013377
:1036B000FB60124BDA6880235B021340BB60BB687F
:1036C000002B09D13B69104A5343F968180002F0F6
:1036D00079F903007B610CE03B690C4A5343F968BC
:1036E000180002F06FF903007B6102E07B687B61E8
:1036F000C0467B691800BD4606B080BD0010024080
:10370000AC5E000800093D000024F40000127A00BD
:103710002000002080B500AFFFF77CFF0100084BC0
:10372000DB68F02213401B09064AD35CDBB20A00B7
:10373000DA40054B1A60044B1B681800BD4680BD7B
:10374000001002402C0000200000002080B500AFD7
:10375000FFF7E0FF0100074BDA68E023DB001340CE
:103760001B0A054AD35CDBB2D9400B001800BD46EA
:1037700080BDC046001002402C00002080B500AF84
:10378000FFF7C8FF0100074BDA68E0239B011340F5
:10379000DB0A054AD35CDBB2D9400B001800BD46FA
:1037A00080BDC046001002402C00002080B582B0D1
:1037B00000AF78607B683F221A60514B1A68802303
:1037C000DB02134004D07B68A022D2025A600DE0D5
:1037D0004B4B1A6880235B02134004D07B68802225
:1037E00052025A6002E07B6800225A60444B1A6819
:1037F00080235B00134003D07B680122DA6102E082
:103800007B680022DA613E4B1B681B0E1B061A0EFA
:103810007B681A623A4B5A68E0231B0213405A0B2A
:103820007B685A62364B9B680122134003D07B6849
:1038300001229A6102E07B6800229A61304B1B688A
:103840000122134003D07B680122DA6002E07B682A
:103850000022DA602A4B5A68F8235B0113401A0AE7
:103860007B681A61264B1A6D8023DB00134004D05D
:103870007B68A022D2009A600DE0214B1A6D802354
:103880005B00134004D07B68802252009A6002E003
:103890007B6800229A601A4B1B6D0122134003D0F3
:1038A0007B6801225A6102E07B6800225A61144B56
:1038B0001A6880235B04134003D07B6802229A625B
:1038C00002E07B6801229A620D4BDA6880235B027A
:1038D0001A407B68DA620A4BDA68F0239B031340D4
:1038E0009A0C7B681A63064BDA68C0231B041340EA
:1038F0009A0D7B685A63C046BD4602B080BDC04683
:103900000010024080B582B000AF786039607B68FB
:103910000F221A60124BDB6803221A407B685A6040
:103920000F4BDB68F0221A407B689A600C4BDA6818
:10393000E023DB001A407B68DA60094BDA68E02399
:103940009B011340DA087B681A61064B1B68012251
:103950001A403B681A60C046BD4602B080BDC046F2
:10396000001002400020024080B500AF074B5A69AA
:1039700080235B00134005D000F00AF8034B80223F
:1039800052009A61C046BD4680BDC046001002404C
:1039900080B500AFC046BD4680BDC04680B582B090
:1039A00000AF78607B68002B01D101233EE07B688B
:1039B00069229B5CDBB2002B03D17B68180000F00E
:1039C0009DF97B686922022199547B681B687A689B
:1039D0001268126801218A431A607B68180001F09E
:1039E000C1F97B685B6A002B03D07B68180001F08B
:1039F000C3FB7B681B687A68126852680D490A40ED
:103A00005A607B681B687A68126892682A218A4328
:103A10009A607B681B687A681268126801210A4301
:103A20001A607B68180001F06BFB03001800BD46AC
:103A300002B080BDFFB7FFFF80B582B000AF7860F5
:103A40007B68002B01D1012342E07B6869229B5CEB
:103A5000DBB2002B03D17B68180000F04FF97B68C4
:103A60001B687A681268126801218A431A607B68B1
:103A7000180001F077F97B685B6A002B03D07B6844
:103A8000180001F079FB7B681B687A68126852683D
:103A900011490A405A607B681B687A68126892680C
:103AA00022218A439A607B681B687A681268926850
:103AB00008210A439A607B681B687A68126812685A
:103AC00001210A431A607B68180001F019FB03000A
:103AD0001800BD4602B080BDFFB7FFFF80B582B0C1
:103AE00000AF786039607B68002B01D1012356E07C
:103AF0007B68DA6980231B029A4201D101234EE0E0
:103B00007B6869229B5CDBB2002B03D17B681800C9
:103B100000F0F4F87B681B687A681268126801216B
:103B20008A431A607B68180001F01CF97B685B6AA5
:103B3000002B03D07B68180001F01EFB7B681B681C
:103B40007A681268526818490A405A607B681B6894
:103B50007A68126892682A218A439A607B681B6897
:103B60007A68126852688021C9010A435A607B68EA
:103B70001B687A681268526820218A4311003A68EB
:103B80000A435A607B681B687A68126812680121D0
:103B90000A431A607B68180001F0B2FA03001800AB
:103BA000BD4602B080BDC046FFF7FFFF80B584B0C0
:103BB00000AFF8607A600B23FB180A1C1A70FB68D0
:103BC000002B01D101235AE0FB6869229B5CDBB228
:103BD000002B03D1FB68180000F090F8FB68692205
:103BE00002219954FB681B68FA6812681268012167
:103BF0008A431A60FB68180001F0B4F8FB685B6A3E
:103C0000002B03D0FB68180001F0B6FAFB681B68B4
:103C1000FA68126852681C490A405A60FB681B68BF
:103C2000FA68126892682A218A439A607A68802327
:103C30001B019A420CD1FB681B68FA681268526833
:103C40001202110A0B22BA18127812060A435A609D
:103C5000FB681B68FA68126812680C4911407A68A0
:103C60000A431A60FB681B68FA681268126801212F
:103C70000A431A60FB68180001F042FA03001800BA
:103C8000BD4604B080BDC046FFB7FFFFFFF7FFFF92
:103C900080B582B000AF78607B68002B01D1012332
:103CA00028E07B686922022199547B681B687A6846
:103CB0001268126801218A431A607B681B6800221F
:103CC0001A607B681B6800225A607B681B680022B0
:103CD0009A607B68180000F019F87B686A2200215E
:103CE00099547B686922002199547B6868220021DD
:103CF000995400231800BD4602B080BD80B582B043
:103D000000AF7860C046BD4602B080BD80B582B0CD
:103D100000AF7860C046BD4602B080BD80B586B0B9
:103D200000AFF860B9603B60BB1D1A80FB68692278
:103D30009B5CDBB2012B06D0FB6869229B5CDBB28B
:103D4000222B00D085E0BB68002B03D0BB1D1B8855
:103D5000002B01D101237DE0FB6868229B5C012BD5
:103D600001D1022376E0FB68682201219954FB68A7
:103D70006A2200219954FB6869229B5CDBB2222BEA
:103D800004D1FB6869223221995403E0FB6869225F
:103D900012219954FB68BA1D502112885A52FB68AF
:103DA000BA1D522112885A522FE0FB6852229B5AA8
:103DB000013B99B2FB68522299523B68F868002295
:103DC000802101F085FA031E01D0032342E0FB6845
:103DD0009A6880235B019A4210D1FB681B69002B13
:103DE0000CD1BB687B61FB681B687A691288D205BD
:103DF000D20D9A62BB680233BB6006E0FB681B68A9
:103E0000BA68511CB96012789A62FB6852229B5AB8
:103E1000002BCAD13B68F8680022402101F058FA13
:103E2000031E01D0032315E0FB6869229B5CDBB213
:103E3000322B04D1FB6869222221995403E0FB68EC
:103E4000692201219954FB686822002199540023BA
:103E500000E002231800BD4606B080BD80B586B0E4
:103E600000AFF860B9603B60BB1D1A80FB68692237
:103E70009B5CDBB2012B06D0FB6869229B5CDBB24A
:103E8000122B00D0C5E0BB68002B03D0BB1D1B88E4
:103E9000002B01D10123BDE0FB6868229B5C012B54
:103EA00001D10223B6E0FB68682201219954FB6826
:103EB0006A2200219954FB6869229B5CDBB2122BB9
:103EC00004D1FB6869223221995403E0FB6869221E
:103ED00022219954FB68BA1D582112885A52FB6856
:103EE000BA1D5A2112885A52FB689A6880235B01D6
:103EF0009A420DD1FB681B69002B04D1FB685C2240
:103F00004649995229E0FB685C22FF21995224E03E
:103F1000FB689B68002B0DD1FB681B69002B04D14B
:103F2000FB685C22FF21995217E0FB685C227F212D
:103F3000995212E0FB689A6880235B059A420CD183
:103F4000FB681B69002B04D1FB685C227F2199521E
:103F500003E0FB685C223F2199521623FB18FA68A4
:103F60005C21525A1A803AE0FB685A229B5A013B64
:103F700099B2FB685A2299523B68F86800222021C6
:103F800001F0A6F9031E01D0032343E0FB689A6801
:103F900080235B019A4214D1FB681B69002B10D16E
:103FA000BB683B61FB681B685B6A9BB21622BA1850
:103FB000128813409AB23B691A80BB680233BB6017
:103FC0000DE0BB685A1CBA60FA681268526AD2B235
:103FD000162179180988C9B20A40D2B21A70FB6852
:103FE0005A229B5A002BBFD1FB6869229B5CDBB233
:103FF000322B04D1FB6869221221995403E0FB683B
:10400000692201219954FB686822002199540023F8
:1040100000E002231800BD4606B080BDFF0100008D
:1040200080B584B000AFF860B960BB1D1A80FB6832
:1040300069229B5CDBB2012B05D0FB6869229B5C8B
:10404000DBB2222B52D1BB68002B03D0BB1D1B88D7
:10405000002B01D101234AE0FB6868229B5C012B05
:1040600001D1022343E0FB68682201219954FB68D7
:10407000BA68DA64FB68BA1D502112885A52FB688C
:10408000BA1D522112885A52FB686A2200219954A3
:10409000FB6869229B5CDBB2222B04D1FB6869229E
:1040A0003221995403E0FB68692212219954FB687C
:1040B0001B68FA6812681268802149000A431A6076
:1040C000FB681B68FA681268926801210A439A60CB
:1040D000FB68682200219954FB681B68FA68126823
:1040E000126880210A431A60002300E002231800AE
:1040F000BD4604B080BDC04680B584B000AFF86056
:10410000B960BB1D1A80FB6869229B5CDBB2012B86
:1041100006D0FB6869229B5CDBB2122B00D08BE0DF
:10412000BB68002B03D0BB1D1B88002B01D10123D2
:1041300083E0FB6868229B5C012B01D102237CE0B9
:10414000FB68682201219954FB68BA685A65FB68CC
:10415000BA1D582112885A52FB68BA1D5A2112887A
:104160005A52FB689A6880235B019A420DD1FB6822
:104170001B69002B04D1FB685C223249995229E06B
:10418000FB685C22FF21995224E0FB689B68002BAE
:104190000DD1FB681B69002B04D1FB685C22FF2159
:1041A000995217E0FB685C227F21995212E0FB686C
:1041B0009A6880235B059A420CD1FB681B69002B2F
:1041C00004D1FB685C227F21995203E0FB685C22EA
:1041D0003F219952FB686A2200219954FB686922A9
:1041E0009B5CDBB2122B04D1FB686922322199540B
:1041F00003E0FB68692222219954FB681B68FA6876
:1042000012681268802149000A431A60FB681B6823
:10421000FA681268926801210A439A60FB68682272
:1042200000219954FB681B68FA6812681268202103
:104230000A431A60002300E002231800BD4604B0C0
:1042400080BDC046FF01000080B586B000AFF860B9
:10425000B960BB1D1A80FB6869229B5CDBB2012B35
:1042600005D0FB6869229B5CDBB2222B5CD1BB686A
:10427000002B03D0BB1D1B88002B01D1012354E070
:10428000FB6868229B5C012B01D102234DE0FB6897
:10429000682201219954BA68FB68DA64FB68BA1D88
:1042A000502112885A52FB68BA1D522112885A5264
:1042B000FB686A2200219954FB6869229B5CDBB28F
:1042C000222B04D1FB6869223221995403E0FB6858
:1042D000692212219954FB681B6E164ADA62FB6848
:1042E0001B6E154A1A63FB681B6E144A5A63082337
:1042F000FB187B61FB68186E7B691968FB681B689B
:1043000028331A00BB1D1B88FDF72CFCFB681B68BB
:10431000FA681268926880210A439A60FB686822F2
:1043200000219954002300E002231800BD4606B086
:1043300080BDC046C5490008554A0008F54A000836
:1043400080B586B000AFF860B960BB1D1A80FB680D
:1043500069229B5CDBB2012B05D0FB6869229B5C68
:10436000DBB2122B57D1BB68002B03D0BB1D1B88BF
:10437000002B01D101234FE0FB6868229B5C012BDD
:1043800001D1022348E0FB68682201219954BA68F0
:10439000FB685A65FB68BA1D582112885A52FB689F
:1043A0006A2200219954FB6869229B5CDBB2122BC4
:1043B00004D1FB6869223221995403E0FB68692229
:1043C00022219954FB685B6E154ADA62FB685B6ECA
:1043D000144A1A63FB685B6E134A5A630823FB187E
:1043E0007B61FB68586EFB681B68243319007B698E
:1043F0001A68BB1D1B88FDF7B5FBFB681B68FA68D4
:104400001268926840210A439A60FB686822002182
:104410009954002300E002231800BD4606B080BD79
:10442000754A0008D54A0008F54A000880B582B0F0
:1044300000AF78607B6868229B5C012B01D102236E
:104440003CE07B686822012199547B6869229B5C6F
:10445000DBB2122B08D17B681B687A6812689268FD
:1044600080218A439A6024E07B6869229B5CDBB2EE
:10447000222B08D17B681B687A68126892684021F9
:104480008A439A6015E07B6869229B5CDBB2322B21
:104490000FD17B681B687A681268926880218A4312
:1044A0009A607B681B687A681268926840218A4328
:1044B0009A607B6868220021995400231800BD4649
:1044C00002B080BD80B582B000AF78607B686822A2
:1044D0009B5C012B01D1022344E07B68682201210F
:1044E00099547B6869229B5CDBB2122B08D17B68F4
:1044F0001B687A681268926880210A439A602CE0EF
:104500007B6869229B5CDBB2222B0CD17B681B6829
:1045100008221A627B681B687A68126892684021D8
:104520000A439A6019E07B6869229B5CDBB2322BFC
:1045300013D17B681B6808221A627B681B687A6843
:104540001268926840210A439A607B681B687A6807
:104550001268926880210A439A607B686822002171
:10456000995400231800BD4602B080BD80B582B0CA
:1045700000AF78607B681B687A6812689268802157
:104580008A439A607B681B687A6812689268402147
:104590008A439A607B681B6E002B04D07B681B6E7D
:1045A0001800FDF729FB7B685B6E002B04D07B684D
:1045B0005B6E1800FDF720FB7B686922012199548E
:1045C00000231800BD4602B080BDC04680B582B051
:1045D00000AF78607B681B68DB690122134018D04C
:1045E0007B681B681A6880235B00134011D07B68CE
:1045F0001B6801221A627B686A229B5CDBB2012283
:104600001343D9B27B686A2299547B6869220121DD
:1046100099547B681B68DB690222134017D07B68C2
:104620001B689B680122134011D07B681B68022223
:104630001A627B686A229B5CDBB204221343D9B204
:104640007B686A2299547B686922012199547B68AE
:104650001B68DB690422134017D07B681B689B68CA
:104660000122134011D07B681B6804221A627B6808
:104670006A229B5CDBB202221343D9B27B686A22B6
:1046800099547B686922012199547B681B68DB6916
:104690000822134017D07B681B689B6801221340D7
:1046A00011D07B681B6808221A627B686A229B5CB7
:1046B000DBB208221343D9B27B686A2299547B6823
:1046C0006922012199547B686A229B5CDBB2002B32
:1046D00003D07B68180000F069F87B681B68DA6912
:1046E00080235B03134013D07B681B689A68802388
:1046F000DB0313400CD07B681B68802252031A62D4
:104700007B686922012199547B681800FEF7FCF848
:104710007B681B68DB692022134009D07B681B681B
:104720001B682022134003D07B68180000F08AFA2F
:104730007B681B68DB698022134009D07B681B689B
:104740001B688022134003D07B68180000F0F8F942
:104750007B686A229B5CDBB2002B03D07B6818006D
:1047600000F024F8C046BD4602B080BD80B582B0DE
:1047700000AF7860C046BD4602B080BD80B582B053
:1047800000AF7860C046BD4602B080BD80B582B043
:1047900000AF7860C046BD4602B080BD80B582B033
:1047A00000AF7860C046BD4602B080BD80B582B023
:1047B00000AF7860C046BD4602B080BD80B582B013
:1047C00000AF78607B6868229B5C012B01D10223DB
:1047D00019E07B686822012199547B6869220221D3
:1047E00099547B681B687A68126812688021890175
:1047F0000A431A607B686922012199547B6818007A
:1048000000F07EFC03001800BD4602B080BDC0462B
:1048100080B582B000AF78607B6868229B5C012B1A
:1048200001D1022318E07B686822012199547B683A
:104830006922022199547B681B687A6812681268A1
:1048400007490A401A607B686922012199547B68F4
:10485000180000F055FC03001800BD4602B080BDF2
:10486000FFDFFFFF80B582B000AF78607B681B6818
:104870007A681268926904210A439A61C046BD466B
:1048800002B080BD80B582B000AF78607B686822DE
:104890009B5C012B01D1022320E07B68682201216F
:1048A00099547B686922022199547B681B687A6855
:1048B000126812680C218A431A607B681B687A6848
:1048C0001268126808210A431A607B686922012174
:1048D00099547B6868220021995400231800BD4632
:1048E00002B080BD80B582B000AF78607B6868227E
:1048F0009B5C012B01D1022320E07B68682201210F
:1049000099547B686922022199547B681B687A68F4
:10491000126812680C218A431A607B681B687A68E7
:104920001268126804210A431A607B686922012117
:1049300099547B6868220021995400231800BD46D1
:1049400002B080BD80B582B000AF78607B6868221D
:104950009B5C012B01D1022318E07B6868220121B6
:1049600099547B686922022199547B681B687A6894
:104970001268926902210A439A617B6869220121C7
:1049800099547B6868220021995400231800BD4681
:1049900002B080BD80B582B000AF78607B686922CC
:1049A0009B5CDBB21800BD4602B080BD80B582B012
:1049B00000AF78607B686A229B5CDBB21800BD4662
:1049C00002B080BD80B584B000AF78607B689B6A20
:1049D000FB607B681B681B682022134030D1FB689A
:1049E000522200219952FB681B68FA68126892688B
:1049F00080218A439A60164BF8680022402100F01B
:104A000067FC031E08D0FB68692203219954FB68E8
:104A10001800FFF7CBFE17E0FB6869229B5CDBB256
:104A2000322B04D1FB6869222221995403E0FB68F0
:104A3000692201219954FB681800FFF797FE03E0F3
:104A4000FB681800FFF792FEC046BD4604B080BD6B
:104A5000F055000080B584B000AF78607B689B6A39
:104A6000FB60FB681800FFF789FEC046BD4604B036
:104A700080BDC04680B584B000AF78607B689B6A1B
:104A8000FB607B681B681B68202213401AD1FB68FF
:104A90005A2200219952FB681B68FA6812689268D2
:104AA00040218A439A60FB6869229B5CDBB2322B0F
:104AB00004D1FB6869221221995403E0FB68692242
:104AC00001219954FB681800FFF760FEC046BD46FF
:104AD00004B080BD80B584B000AF78607B689B6A0D
:104AE000FB60FB681800FFF759FEC046BD4604B0E6
:104AF00080BDC04680B584B000AF78607B689B6A9B
:104B0000FB60FB685A2200219952FB685222002167
:104B10009952FB68692201219954FB686A229B5CC7
:104B2000DBB210221343D9B2FB686A229954FB68A6
:104B30001800FFF73BFEC046BD4604B080BDC0462E
:104B400080B584B000AF78607B6869229B5CDBB283
:104B5000122B05D07B6869229B5CDBB2322B68D1BB
:104B60007B6852229B5A002B36D17B681B687A687F
:104B70001268126880218A431A607B6869229B5CF4
:104B8000DBB2322B04D17B6869222221995413E0D5
:104B90007B681B687A681268126828490A401A60A4
:104BA0007B681B687A681268926801218A439A6060
:104BB0007B68692201219954214B786800224021A9
:104BC00000F086FB031E01D0032333E07B6818004E
:104BD000FFF7CCFD00232DE07B689A6880235B0102
:104BE0009A4213D17B681B69002B0FD17B68DB6C69
:104BF000FB607B681B68FA681288D205D20D9A6246
:104C00007B68DB6C9A1C7B68DA6408E07B681B6855
:104C10007A68D26C501C7968C86412789A627B6892
:104C200052229B5A013B99B27B685222995200232F
:104C300000E002231800BD4604B080BDFFFEFFFF68
:104C4000F055000080B584B000AF78600E23FB18EB
:104C50007A685C21525A1A807B6869229B5CDBB2BD
:104C6000222B06D07B6869229B5CDBB2322B00D002
:104C700070E07B689A6880235B019A4217D17B6859
:104C80001B69002B13D17B685B6DBB607B681B6865
:104C90005B6A9BB20E22BA18128813409AB2BB68A4
:104CA0001A807B685B6D9A1C7B685A650FE07B6895
:104CB0005B6D591C7A6851657A681268526AD2B283
:104CC0000E2179180988C9B20A40D2B21A707B68DD
:104CD0005A229B5A013B99B27B685A2299527B68AF
:104CE0005A229B5A002B33D1C0467B681B68DB6974
:104CF00020221340F9D17B681B687A681268126819
:104D000020218A431A607B6869229B5CDBB2322BCC
:104D100004D17B6869221221995413E07B681B68D7
:104D20007A68126812680E490A401A607B681B682C
:104D30007A681268926801218A439A607B686922C6
:104D4000012199547B681800FFF720FD002302E041
:104D5000002300E002231800BD4604B080BDC04619
:104D6000FFFEFFFF90B587B000AF78600023FB60C7
:104D700000237B610A23FB1800221A801223FB18F0
:104D800000221A807B689A687B681B691A437B68DB
:104D90005B691A437B68DB691343FB607B681B68B4
:104DA0007A6812681268C7491140FA680A431A60A3
:104DB0007B681B687A6812685268C34911407A6838
:104DC000D2680A435A607B689A697B681B6A1343FE
:104DD000FB607B681B687A6812689268BB49114067
:104DE000FA680A439A607B681B68B94A934217D1F4
:104DF000B84BDB6C03221340012B0BD004D3022BE6
:104E000005D0032B09D054E001237B6151E002233C
:104E10007B614EE004237B614BE008237B6148E02B
:104E20007B681B68AC4A93421AD1AA4BDB6C0C22FC
:104E30001340042B0ED002D8002B05D039E0082BEC
:104E400005D00C2B09D034E000237B6131E0022334
:104E50007B612EE004237B612BE008237B6128E04B
:104E60007B681B689D4A934224D19A4BDA6CC0231D
:104E70001B0113408022D200934215D08022D20021
:104E8000934202D8002B09D013E0802212019342F2
:104E900007D0C0221201934209D00AE000237B61AF
:104EA00007E002237B6104E004237B6101E0082327
:104EB0007B61C0467B681B68884A934240D17B690E
:104EC000022B17D002D8002B05D014E1042B1CD0E4
:104ED000082B29D00FE17B681C68FEF737FC030024
:104EE0001A027B685B681900100000F06BFD03007C
:104EF000E36000E17B681C687B685B6819007848A8
:104F000000F060FD0300E360F5E07B681C68FEF7DD
:104F100081FB03001A027B685B681900100000F037
:104F200051FD0300E360E6E07B681C687B685B681A
:104F300019008023180400F045FD0300E360DAE067
:104F40007B68DA6980231B029A4271D17B69082B46
:104F50004DD87B699A00634BD3181B689F46FEF7B8
:104F6000F5FB03005A007B685B681900100000F035
:104F700029FD03001A001223FB181A8038E0FEF7FF
:104F8000FDFB03005A007B685B681900100000F00D
:104F900019FD03001A001223FB181A8028E07B6811
:104FA0005B681900504800F00DFD03001A00122341
:104FB000FB181A801CE07B681C68FEF72BFB0300C3
:104FC0005A007B685B681900100000F0FBFC0300CE
:104FD000E3600DE07B685B6819008023580200F0F5
:104FE000F1FC03001A001223FB181A8000E0C046EF
:104FF0000A23FB181222BA1812880F218A431A803A
:105000001223FB181B885B101BB2072213401AB235
:105010000A23FB1800215B5E13431AB20A23FB1814
:105020001A807B681B680A22BA181288DA6062E06C
:105030007B69082B5ED87B699A002C4BD3181B68C0
:105040009F467B681C68FEF781FB02007B685B68FB
:105050001900100000F0B6FC0300E3604BE07B6831
:105060001C68FEF78BFB02007B685B681900100070
:1050700000F0A8FC0300E3603DE07B681C687B68EF
:105080005B6819001A4800F09DFC0300E36032E001
:105090007B681C68FEF7BEFA02007B685B6819003B
:1050A000100000F08FFC0300E36024E07B681C68C4
:1050B0007B685B6819008023180200F083FC030002
:1050C000E36018E0F369FFEFFFCFFFFFFFF4FFFF9E
:1050D00000380140001002400044004000480040F9
:1050E000000024F4C85E00080048E801EC5E0008F7
:1050F0000024F400C046C046BD4607B090BDC0467F
:1051000080B582B000AF78607B681B681B6808229E
:1051100013400BD0174A80239903786813000022AC
:1051200000F0D6F8031E01D003231EE07B681B6845
:105130001B68042213400BD00E4A8023D9037868E1
:105140001300002200F0C4F8031E01D003230CE07A
:105150007B686822002199547B686A220021995457
:105160007B6869220121995400231800BD4602B0D2
:1051700080BDC046F055000080B582B000AF7860B9
:105180007B685B6A012213400AD07B681B687A68DF
:1051900012685268454911407A68926A0A435A6017
:1051A0007B685B6A022213400AD07B681B687A68BE
:1051B000126852683E4911407A68D26A0A435A60BE
:1051C0007B685B6A042213400AD07B681B687A689C
:1051D00012685268374911407A68126B0A435A6064
:1051E0007B685B6A082213400AD07B681B687A6878
:1051F00012685268304911407A68526B0A435A600B
:105200007B685B6A102213400AD07B681B687A684F
:1052100012689268294911407A68926B0A439A6031
:105220007B685B6A202213400AD07B681B687A681F
:1052300012689268224911407A68D26B0A439A60D8
:105240007B685B6A402213401BD07B681B687A68CE
:10525000126852681B4911407A68126C0A435A60FE
:105260007B681A6C80235B039A420AD17B681B68B7
:105270007A6812685268144911407A68526C0A437D
:105280005A607B685B6A802213400AD07B681B6887
:105290007A68126852680D4911407A68926C0A4324
:1052A0005A60C046BD4602B080BDC046FFFFFDFF4C
:1052B000FFFFFEFFFFFFFBFFFF7FFFFFFFEFFFFF93
:1052C000FFDFFFFFFFFFEFFFFFFF9FFFFFFFF7FF86
:1052D00080B586B000AFF860B9603B60FB1D1A7006
:1052E00000237B61FBF76EFD03007B61FB1D1B78D8
:1052F000002B00D079E037E03B68013334D03B68C5
:10530000002B07D0FBF75EFD02007B69D21A3B68D9
:105310009A4229D9FB681B68FA68126812688021D2
:105320008A431A60FB681B68FA68126812682021B9
:105330008A431A60FB681B68FA6812681268314970
:105340000A401A60FB681B68FA68126892680121BB
:105350008A439A60FB68692203219954FB6868229A
:1053600000219954032349E0FB681B68DB69BA6894
:105370001A40BB689A42BFD13FE03B68013334D04A
:105380003B68002B07D0FBF71DFD02007B69D21A9A
:105390003B689A4229D9FB681B68FA681268126850
:1053A00080218A431A60FB681B68FA6812681268D9
:1053B00020218A431A60FB681B68FA681268126829
:1053C00010490A401A60FB681B68FA681268926804
:1053D00001218A439A60FB68692203219954FB6882
:1053E000682200219954032308E0FB681B68DB69ED
:1053F000BA681A40BB689A42BFD000231800BD4665
:1054000006B080BDFFFEFFFF80B500AFC046BD46C1
:1054100080BDC04680B500AFC046BD4680BDC04619
:1054200080B500AFC046BD4680BDC04680B500AF68
:10543000C046BD4680BDC04680B582B000AF020008
:10544000FB1D1A70064BFA1D127811001F220A402C
:10545000012191400A001A60C046BD4602B080BDDD
:1054600000E100E080B582B000AF0200FB1D1A70C1
:10547000074AFB1D1B7819001F230B40012199408F
:105480000B0019008023D150C046BD4602B080BD3C
:1054900000E100E080B582B000AF0200FB1D1A7091
:1054A0000A4A80235B00D358FA1D127811001F228C
:1054B0000A40012191400A00134001D0012300E07D
:1054C00000231800BD4602B080BDC04600E100E0E8
:1054D00080B582B000AF0200FB1D1A70084AFB1DA8
:1054E0001B7819001F230B40012199400B00190064
:1054F00080235B00D150C046BD4602B080BDC0468F
:1055000000E100E080B582B000AF0200FB1D1A7020
:10551000084AFB1D1B7819001F230B4001219940ED
:105520000B001900C0235B00D150C046BD4602B03D
:1055300080BDC04600E100E0B0B582B000AF02001F
:105540003960FB1D1A70FB1D1B787F2B32D92F4C45
:10555000FB1D1B781A000F231340083B99082B4AA8
:10556000FB1D1B7818000F230340083B9B080633E4
:105570009B00D31804331B68FA1D12781000032215
:105580000240D200FF2090400200D2431A403B6804
:105590009B01FF201840FB1D1B781D0003232B409F
:1055A000DB00984003001A438B1D9B00E318043373
:1055B0001A6027E0164CFB1D1B785BB29B08144950
:1055C000FA1D127852B29208C03292005258F91D58
:1055D0000978080003210140C900FF20884001002C
:1055E000C94311403A689201FF201040FA1D127819
:1055F000150003222A40D200904002000A43C03323
:105600009B001A51C046BD4602B0B0BD00ED00E09F
:1056100000E100E080B500AFBFF34F8F024B034ABB
:10562000DA60BFF34F8FFEE700ED00E00400FA05FB
:1056300080B582B000AF78607B68013B0C4A934232
:1056400001D9012310E00B4B7A68013A5A6001231B
:105650005B4203211800FFF76FFF064B00229A60A0
:10566000044B07221A6000231800BD4602B080BD1B
:10567000FFFFFF0010E000E080B584B000AFB9602C
:105680007A600F23FB18021C1A70BA680F23FB18EC
:105690001B785BB211001800FFF74EFFC046BD46F5
:1056A00004B080BD80B582B000AF0200FB1D1A704F
:1056B000FB1D1B785BB21800FFF7BEFEC046BD465F
:1056C00002B080BD80B582B000AF0200FB1D1A7031
:1056D000FB1D1B785BB21800FFF7C4FEC046BD4639
:1056E00002B080BD80B500AFFFF794FFC046BD4655
:1056F00080BDC04680B582B000AF78607B6818007E
:10570000FFF796FF03001800BD4602B080BDC046FB
:1057100080B582B000AF0200FB1D1A70FB1D1B7824
:105720005BB21800FFF7D4FEC046BD4602B080BD94
:1057300080B582B000AF0200FB1D1A70FB1D1B7804
:105740005BB21800FFF7A6FE03001800BD4602B0CA
:1057500080BDC04680B582B000AF0200FB1D1A704C
:10576000FB1D1B785BB21800FFF7CCFEC046BD46A0
:1057700002B080BD80B582B000AF78607B68042B3A
:1057800006D1084B074A126804210A431A6005E053
:10579000044B044A126804218A431A60C046BD467D
:1057A00002B080BD10E000E080B500AF00F004F86A
:1057B000C046BD4680BDC04680B500AFC046BD46B0
:1057C00080BDC04680B582B000AF0200FB1D1A70DC
:1057D000064BFA1D127811001F220A400121914048
:1057E0000A001A60C046BD4602B080BD00E100E07C
:1057F00080B500AF104B104A926B01210A439A63A7
:105800008023DB058022D205126A10210A431A6226
:105810008023DB058022D2059269C021C9010A4399
:105820009A618023DB058022D205126801210A4398
:105830001A60C046BD4680BD0010024080B500AF72
:10584000114B114A526B04210A435A630F4B0F4A02
:10585000126880210A431A600C4B0C4AD26801215D
:105860000A43DA60094B6422DA62084B084A9A62FA
:105870001420FFF7A7FF054B044A126801210A43D1
:105880001A60C046BD4680BD0010024000080140BD
:105890007F3E000080B500AF044B044A126901212D
:1058A0008A431A61C046BD4680BDC046000801401B
:1058B00080B500AF084B084A926B10210A439A63E7
:1058C000064B064A126808210A431A60034B0F224E
:1058D0009A62C046BD4680BD0010024000100040E4
:1058E00080B582B000AF78600B4B7A68DA620A4B01
:1058F000094A526901210A435A61074B1B69064B49
:1059000000221A61044B044A126801210A431A60FA
:10591000C046BD4602B080BD0010004080B500AF5B
:10592000C046044B1B6901221340FAD0C046BD4655
:1059300080BDC0460010004080B582B000AF7860E6
:10594000034B7A681A60C046BD4602B080BDC046AF
:10595000CC04002080B500AFC046034B1B68002B71
:10596000FBD1C046BD4680BDCC04002080B500AF51
:10597000064B064A526901210A435A61034B1B69CF
:10598000024B00221A61C046BD4680BD0010004097
:1059900080B582B000AF0200FB1D1A70FB1D1B78A2
:1059A000642B02D9FB1D64221A708023DB05FA1DCB
:1059B000127803494A439A63C046BD4602B080BD8F
:1059C0008F020000002243088B4274D303098B42EC
:1059D0005FD3030A8B4244D3030B8B4228D3030CBF
:1059E0008B420DD3FF22090212BA030C8B4202D361
:1059F0001212090265D0030B8B4219D300E0090A89
:105A0000C30B8B4201D3CB03C01A5241830B8B4291
:105A100001D38B03C01A5241430B8B4201D34B037A
:105A2000C01A5241030B8B4201D30B03C01A5241DF
:105A3000C30A8B4201D3CB02C01A5241830A8B4264
:105A400001D38B02C01A5241430A8B4201D34B024D
:105A5000C01A5241030A8B4201D30B02C01A5241B1
:105A6000CDD2C3098B4201D3CB01C01A5241830965
:105A70008B4201D38B01C01A524143098B4201D39F
:105A80004B01C01A524103098B4201D30B01C01ACA
:105A90005241C3088B4201D3CB00C01A5241830844
:105AA0008B4201D38B00C01A524143088B4201D371
:105AB0004B00C01A5241411A00D2014652411046D1
:105AC0007047FFE701B5002000F0F0F802BDC046C6
:105AD0000029F7D076E7704703460B437FD40022B6
