:020000040800F2
:100000000020002025610008756100087561000866
:1000100000000000000000000000000000000000E0
:1000200000000000000000000000000075610008F2
:100030007561000800000000756100087561000826
:100040007561000875610008756100087561000838
:100050007561000875610008756100087561000828
:1000600000000000756100087561000875610008F6
:1000700075610008756100080000000075610008E6
:100080000000000075610008000000000000000092
:1000900071B8000800000000756100087561000873
:1000A0007561000875610008756100084145000828
:1000B00061450008756100080000000000000000B4
:1000C00010B5064C2378002B07D1054B002B02D02E
:1000D000044800E000BF0123237010BDF806002093
:1000E0000000000024E80008084B10B5002B03D0E6
:1000F0000749084800E000BF07480368002B00D10B
:1001000010BD064B002BFBD09847F9E7000000001C
:10011000FC06002024E80008F4060020000000008F
:1001200080B500AF094B1B78002B0BD0074B1B7819
:10013000013BDAB2054B1A70044B1B78002B01D13E
:1001400004F020FFC046BD4680BDC0461C0700200D
:1001500080B500AF084B00229B5E002B08D0064BF9
:1001600000229B5E9BB2013B9BB21AB2024B1A80EB
:10017000C046BD4680BDC0460A00002080B500AF25
:10018000074B00229B5E002B06D105F011FC054BAE
:100190001B781AB2024B1A80C046BD4680BDC046CD
:1001A0000A0000200C00002080B582B000AF0200E1
:1001B000FB1D1A70114BFA1D12781A70FB1D1B786B
:1001C000002B02D1FB1DFE221A70FB1D1978B623ED
:1001D000FF330122180004F009FE094B180004F057
:1001E00093F9FB1D1B78180004F0C8FA054B1800A2
:1001F00004F08AF9C046BD4602B080BD1C0700204D
:1002000080DB0008A8DB000880B582B000AF0200E8
:10021000FB1D1A70184BFA1D12781A70FB1D197805
:10022000DB235B000122180004F0E0FDFB1D1B78BE
:10023000002B0BD1114B012252421A80DB235B00B1
:100240000122FE21180004F0D1FD04E00A4B1B78C6
:100250001AB20A4B1A800A4B180004F055F9FB1D1C
:100260001B78180004F08AFA064B180004F04CF9C9
:10027000C046BD4602B080BD0C0000200A00002030
:10028000B0DB0008D4DB000880B582B000AF0121EC
:10029000022004F0F5FD0200FB1D1A70FB1D1B7807
:1002A000FE2B04D0FB1D1B781AB2404B1A80012193
:1002B000002004F0E5FD0200FB1D1A70FB1D1B78F9
:1002C000FE2B03D03A4BFA1D12781A70012101203F
:1002D00004F0D6FD0200FB1D1A70FB1D1B78FE2BDF
:1002E00003D0344BFA1D12781A70B623FF33012164
:1002F000180004F0C5FD0200FB1D1A70FB1D1B78E1
:10030000FE2B03D02C4BFA1D12781A70DB235B00F6
:100310000121180004F0B4FD0200FB1D1A70FB1D42
:100320001B78FE2B03D0254BFA1D12781A70234B35
:100330001B78FE2B08D0214B1B78002B04D01F4BC1
:100340001B781AB21E4B1A80B823FF330121180004
:1003500004F096FD0200FB1D1A70FB1D1B78FE2B9E
:1003600004D0184BFA1D12781A7002E0012000F038
:10037000CBFBBA23FF330121180004F081FD0200FA
:10038000FB1D1A70FB1D1B78FE2B04D00E4BFA1DB3
:1003900012781A7005E00B4B1B780B3BDAB20A4B54
:1003A0001A70C046BD4602B080BDC0461807002086
:1003B00015070020040000201C0700200C0000206E
:1003C0000A000020010000200200002090B583B048
:1003D00000AF040008001100FB1D221C1A70BB1D99
:1003E000021C1A707B1D0A1C1A70684BFA1D1278C9
:1003F0001A70FB1D1B7801221900002004F0F6FC86
:10040000BB1D1B781AB2624B1A80BB1D1B780122E0
:100410001900022004F0EAFC5E4B7A1D12781A7073
:100420007B1D1B7801221900012004F0DFFC5A4BD0
:10043000180004F069F8594B180004F065F8012021
:1004400000F0C6F8031E04D0554B180004F05CF809
:1004500003E0544B180004F057F8534B180004F015
:1004600053F8022000F0B4F8031E04D04C4B1800DF
:1004700004F04AF803E04B4B180004F045F84B4BEE
:10048000180004F041F8042000F0A2F8031E04D084
:10049000434B180004F038F803E0424B180004F016
:1004A00033F8434B180004F02FF8082000F090F8C0
:1004B000031E04D03A4B180004F026F803E0394B31
:1004C000180004F021F83B4B180004F01DF8102030
:1004D00000F07EF8031E04D0314B180004F014F82D
:1004E00003E0304B180004F00FF8334B180004F011
:1004F0000BF8202000F06CF8031E04D0284B1800E5
:1005000004F002F803E0274B180003F0FDFF2B4B2B
:10051000180003F0F9FF402000F05AF8031E04D041
:100520001F4B180003F0F0FF03E01E4B180003F010
:10053000EBFF234B180003F0E7FF802000F048F8A2
:10054000031E04D0164B180003F0DEFF03E0154B2A
:10055000180003F0D9FF1B4B180003F0D5FFBB1D9B
:100560001B78180004F00AF9174B180003F0CCFFB1
:100570007B1D1B78180004F001F9144B180003F0E0
:10058000C3FFC046BD4603B090BDC046150700205E
:100590000600002004000020DCDB000808DC000866
:1005A00028DC000830DC000838DC000850DC0008DB
:1005B00060DC000878DC00088CDC0008A4DC0008A3
:1005C000BCDC0008D0DC0008E4DC0008F4DC000837
:1005D00080B582B000AF0200FB1D1A70044B1B787F
:1005E000FA1D12781340DBB21800BD4602B080BD80
:1005F0001507002080B500AF6F2009F05FFF084BA2
:1006000001221A706F2000F0F7F8012000F070F856
:10061000044B180003F078FFC046BD4680BDC046BD
:100620001B070020FCDC000880B500AF114B002246
:100630009B5E002B12D0104B00229B5E01330AD12F
:100640000C4B00229A5E0C4B1A80052205216F206C
:1006500009F0F2FE0BE000F013F808E0074B1B78FE
:10066000002B02D000F0B2F801E0FFF7C3FFC04654
:10067000BD4680BD18070020060000201A07002094
:1006800080B500AF6F2009F019FF0C4B01225242D8
:100690001A800B4B00221A706F2000F0C1F800F096
:1006A00095F803F0CDFB002000F022F8054B180070
:1006B00003F02AFFC046BD4680BDC04606000020AC
:1006C0001B0700200CDD000880B500AF024B1B7833
:1006D0001800BD4680BDC0461B07002080B500AF96
:1006E000024B1B781800BD4680BDC0461A0700208B
:1006F00080B582B000AF78607B68002B01D00F4AD4
:1007000000E00F4A0F480023462103F087FC0E4A01
:100710000C480D23462103F081FC0B4B1B78002B6A
:1007200004D0084B0621180000F01AFC00F020FB52
:1007300002F080FBC046BD4602B080BD1CDD000853
:1007400028DD0008C80800205C09002080B500AF43
:10075000742000F051F8184B01221A70174A1848FB
:100760000023462103F05AFC03F092FB03005A1CBD
:10077000134B1100180003F08FFC124A104800239D
:10078000462103F04BFC03F083FB02000C4B1100ED
:10079000180003F087FB03F07BFB0200084B1100FD
:1007A000180000F0DDFB0AF08DFE074B180003F087
:1007B000ABFEC046BD4680BD1A07002038DD0008EC
:1007C000C808002048DD00084CDD000880B500AFF7
:1007D000742000F025F86C2000F022F8044B002271
:1007E0001A70044B180003F08FFEC046BD4680BD52
:1007F0001A07002060DD000880B582B000AF02005B
:10080000FB1D1A70FB1D1B78180009F0C9FDFB1DAC
:100810001B78180005F0D4FAC046BD4602B080BD72
:1008200080B582B000AF0200FB1D1A70FB1D1B7863
:10083000180009F0DBFDFB1D1B78180005F0E8FA35
:10084000C046BD4602B080BDB0B586B000AF9B4B80
:10085000180003F007FD03003B6138690DF072F8E2
:100860000022974B0CF028FA03000C00180021001E
:100870000022944B0BF0FCFD03000C00180021003B
:100880000BF0ACFA0300FB60FB6864225A438E4B0A
:100890001B78190010000BF0EDF80300DAB28B4B57
:1008A0001A708A4B1B78642B02D9884B64221A7009
:1008B000F8680DF047F804000D00854B1B78180010
:1008C0000CF0FEFF386079607F4B1B781A00804B7C
:1008D0001B78D31A18000CF0F3FF7E4A7E4B0CF005
:1008E000EBF902000B00386879680BF095FA02000A
:1008F0000B00200029000BF049FA031E00D18DE007
:10090000764B1B78002B00D088E0754B1B68C82BFA
:1009100077D1744B180003F0F7FD714B1B685A1C1C
:100920006F4B1A606D4B01221A707020FFF764FF45
:10093000654B1A780B23FB18283A1A701E200BF00F
:1009400053F80BF05FF85D4B180003F08BFC0300CD
:100950003B610B23FB181B78FA68D31A64225A43B5
:100960005B4B1B7819000B23FB181B78CB1A190063
:1009700010000BF07FF803001A000F2308218C46AB
:10098000BC4463441A700F2308229446BC44634459
:100990001B78642B06D90F2308229446BC44634479
:1009A00064221A700120FFF713FE031E00D17FE0BE
:1009B0004D4A4E480023462103F030FB4C4A4B4839
:1009C0000023462103F02AFB4A4A484800234621D7
:1009D00003F024FB0F2308229446BC4463441A7896
:1009E000424B1100180003F057FB434A3F480023D5
:1009F000462103F013FB3D4B0721180000F0B0FA2D
:100A000056E0702009F0CCFC354B1B68C72B4FDC3F
:100A1000334B1B685A1C324B1A6049E0F8680CF0E3
:100A200091FF04000D002A4B1B7818000CF048FFC2
:100A300038607960244B1B781A00254B1B78D31A39
:100A400018000CF03DFF234A2C4B0CF035F9020046
:100A50000B00386879680BF0DFF902000B0020000A
:100A600029000BF0A7F9031E00D122E01B4B1B78D5
:100A7000012B1ED11A4B00221A60184B00221A704B
:100A80007020FFF7CDFE0120FFF7A2FD031E0AD064
:100A90001B4A16480023462103F0C0FA134B0721D6
:100AA000180000F05DFA174B180003F02DFD00E070
:100AB000C046C046BD4606B0B0BDC04602000004F8
:100AC00000B066400000B04001000020030000209C
:100AD000020000209A9999999999C93F140700201A
:100AE0002007002074DD00088CDD0008C808002005
:100AF000A4DD0008A8DD0008B0DD00089999D93F01
:100B0000B4DD0008C8DD000890B585B000AF020074
:100B1000FB1D1A70324B180003F0A4FB02000E23D9
:100B2000FB181A800E23FB181B8818000CF0C8FE57
:100B300000222C4B0CF0C0F803000C001800210020
:100B40000022294B0BF094FC03000C001A00230038
:100B50000D217C18100019000BF040F903002370E0
:100B6000FB1D1B78012B0ED1204B0D22BA181278D9
:100B70001A700D23FB181978B823FF3301221800CF
:100B800004F034F911E0FB1D1B78022B0DD1184B3A
:100B90000D22BA1812781A700D23FB181978BA238F
:100BA000FF330122180004F021F9124B180003F062
:100BB000ABFC0E4B1B78180003F0E0FD0E4B180049
:100BC00003F0A2FC0A4B1B78180003F0D7FD0B4B77
:100BD000180003F099FCC046BD4605B090BDC04664
:100BE0000200000400B066400000B0400100002098
:100BF00002000020DCDD0008F4DD00080CDE000847
:100C000080B500AF024B1B781800BD4680BDC046C2
:100C10001407002080B500AF064B1B88002B05D0C1
:100C2000044B1B88013B9AB2024B1A80C046BD465A
:100C300080BDC0461607002080B582B000AF1D4BB6
:100C40001B88002B2FD109F08BFF031E2BD17620A0
:100C5000FFF7E6FD06F0B8FB031E26D000F0AAFF62
:100C600003007B607B68FE2B20D0124B14221A807D
:100C70007620FFF7C1FD00F07BF80F4A0F480023F4
:100C80000D2103F0CBF97A680C4B1100180003F02A
:100C900003FA0B4B1B78002B02D0FFF7F1FC05E0A9
:100CA000FFF7C2FC02E0C04600E0C046BD4602B00D
:100CB00080BDC0461607002010DE00085C09002039
:100CC0001B07002080B500AF01F072FB06F086FB29
:100CD00009F0A2FC02F04AFC04F0A0FF09F0A8FA17
:100CE000FFF7D2FA012000F093F8C046BD4680BD60
:100CF00080B500AF114B1B78002B1CD0104B1B781C
:100D00005BB2002B03DD6C20FFF776FD02E06C2068
:100D1000FFF786FD0A4B1B785BB2DBB2013BDBB20F
:100D20005AB2074B1A70064B1B785BB2053302D1DF
:100D3000034B05221A70C046BD4680BD1A0700202D
:100D40000800002080B500AF084B00229B5E002BFE
:100D500008DD064B00229B5E9BB2013B9BB21AB2A0
:100D6000024B1A80C046BD4680BDC046060000202A
:100D700080B582B000AF00237B6007E0074A7B6844
:100D8000D31800221A707B6801337B607B680C2BC0
:100D9000F4D9C046BD4602B080BDC0465C09002003
:100DA00080B500AF0F4B1B78002B0DD00E4B0022EF
:100DB0009B5E013308D10D4B1B78002B02D0FFF74F
:100DC00019FC01E0FFF75CFC074B00229B5E002B47
:100DD00005D1054B012252421A80FFF70BFCC04699
:100DE000BD4680BD5C09002006000020B60800203A
:100DF00080B582B000AF0200FB1D1A70034BFA1DD4
:100E000012781A70C046BD4602B080BDB6080020F8
:100E100080B584B000AF78607B68012B56D12E4B33
:100E2000FB60FB681B682D4A93420ED1FB680433BC
:100E30001B682B4A934208D1FB6808331B68294A78
:100E4000934202D1284B01221A60284B180003F06C
:100E50005BFBFB681B68180003F090FC244B180038
:100E600003F052FB1D4B180003F088FC214B1800C7
:100E700003F04AFBFB6804331B68180003F07EFC98
:100E80001B4B180003F040FB154B180003F076FCD9
:100E9000194B180003F038FBFB6808331B68180077
:100EA00003F06CFC124B180003F02EFB0D4B1800E6
:100EB00003F064FC114B180003F026FB0A4B1B687F
:100EC000002B03D10E4B180003F01EFB064B1B68D2
:100ED0001800BD4604B080BD5000F81F35344701EE
:100EE00039353132006665652407002018DE0008B8
:100EF00024DE000828DE000838DE000848DE00088E
:100F00004CDE000880B582B002AF0E4A0E490F4891
:100F10000A230093022301F0D5FE0A4A0C490D482A
:100F20000A230093022301F0CDFE064A0A490B482A
:100F300000230093022301F0C5FE04F06BF9C046C4
:100F4000BD4680BD5807002068DE000870DE00083E
:100F50007CDE000884DE000888DE00088CDE0008E5
:100F600080B584B000AF786039600023FB6031E069
:100F70001D49FA6813005B009B189B00CB180B33CC
:100F80001B78612B17D01849FA6813005B009B1877
:100F90009B00CB180B331B78642B0CD01249FA68DA
:100FA00013005B009B189B00CB180B331B781A00B7
:100FB0003B689A420BD1FA6813005B009B189B00B8
:100FC000094A9B187A681100180000F00FF8FB68B6
:100FD0000133FB60FB68042BCAD901F02BFF01230E
:100FE0001800BD4604B080BD1000002080B586B05A
:100FF00002AF78603960594B1B78032B05D97B68A9
:1010000018000AF00BFA0023A4E0554B1B68042BD0
:1010100007D17B681B78002B03D0524B1B68002B39
:1010200008D04F4B1B68072B02D14D4B00221A6092
:1010300000238FE0052205216D2009F0FDF9494BC1
:1010400003221A60484B180003F05EFA7B68180010
:1010500003F05AFA454B180003F056FA3B681800A3
:1010600003F052FA424B180003F04EFA414B1800BD
:1010700003F0D0F93B68180002F0BAFF03005B00F0
:101080000D33180003F0CAFA3B4A3C493C48502350
:101090000093022301F016FE031E03D101F0E2FDCE
:1010A000002357E0374B180003F0B4F9364B180013
:1010B00003F0B0F90023FB6009E0FB687A68D318FD
:1010C0001B78180003F0C2F9FB680133FB60FB6872
:1010D000092BF2DD2D4B180003F09CF93B6818003A
:1010E00002F086FF03005B00180001F0BBFE3B68C6
:1010F000180002F07DFF02003B681100180001F0AB
:10110000B7FF1A2003F0A2F91B4A21491C48C82343
:101110000093052301F0D6FD031E11D11D4B1800CD
:1011200003F0F2F9124B180003F0EEF901F09AFD0A
:101130000A4B1B780133DAB2084B1A70002309E01E
:10114000154B180003F0E0F9044B00221A7001F06F
:1011500089FD01231800BD4604B080BDC4080020ED
:101160002C0700202807002098DE0008B4DE0008C5
:10117000BCDE0008C0DE000858070020CCDE0008F6
:1011800084DE0008D0DE0008DCDE00087CDE00081B
:10119000E0DE0008E8DE000800DF000880B584B06B
:1011A00000AF786039607B6835331B78402B09D9F4
:1011B0007B6835331B78373B002B00DA01335B103B
:1011C000FB6004E07B6835331B78303BFB607B6859
:1011D00034331B78303B1B011A00FB68D3189B008B
:1011E000FB60FA6839687868362301F093FEC046E0
:1011F000BD4604B080BDC04680B586B000AFF86083
:10120000B960FB1D1A701623FB1800221A701523F3
:10121000FB1800221A701723FB1800221A7058E0DE
:101220001723FB181B78FA68D3181B780A2B07D0F2
:101230001723FB181B78FA68D3181B78002B2ED1C4
:101240001523FA18FB1D12781B789A421BD10DE06A
:101250001623FB181B78BA68D31800221A701623BD
:10126000FB181A781623FB1801321A701623FB1884
:101270001B78452BECD9BB681B78002B01D00123D0
:101280002DE000232BE01623FB1800221A701523F3
:10129000FB181A781523FB1801321A7012E0162376
:1012A000FB181B78BA68D3181722BA181278F96895
:1012B0008A1812781A701623FB181A781623FB184E
:1012C00001321A701723FB181A781723FB18013202
:1012D0001A701723FB181B78452BA1D9002318007F
:1012E000BD4606B080BDC04680B500AFA023DB057B
:1012F0001B690122134001D0012300E000231800E4
:10130000BD4680BD80B582B000AF0200FB1D1A70E3
:1013100000F028F9FB1D1B78002B14D002200AF0E6
:1013200037FBC046144B1B6901221340FAD000F072
:1013300023F941200AF02CFBC0460F4B1B69012208
:101340001340FAD013E041200AF022FBC0460A4BBA
:101350001B6901221340FAD000F00EF902200AF0B6
:1013600017FBC046044B1B6901221340FAD0C0464C
:10137000BD4602B080BDC0460010004080B584B0BC
:1013800000AF0200FB1D1A700F23FB1808221A7011
:1013900013E0FB1D1B7801221340DBB21800FFF79E
:1013A000B1FFFB1DFA1D127852081A700F23FB18AB
:1013B0001A780F23FB18013A1A700F23FB181B78B9
:1013C000002BE6D1C046BD4604B080BD90B583B0C9
:1013D00000AF00F0C7F802200AF0DAFAC046144B5A
:1013E0001B6901221340FAD000F0C6F8FB1D05224C
:1013F0001A7004E0FB1D1A78FB1D013A1A70FB1DE0
:101400001B78002BF6D1BC1DFFF76EFF0300237085
:1014100041200AF0BDFAC046054B1B69012213406A
:10142000FAD0BB1D1B781800BD4603B090BDC04666
:101430000010004080B582B000AFFB1D00221A7082
:10144000BB1D00221A70BB1D08221A7014E0FB1D80
:10145000FA1D127852081A70FFF7B8FF031E06D063
:10146000FB1DFA1D1278802149420A431A70BB1DE8
:101470001A78BB1D013A1A70BB1D1B78002BE6D1F0
:10148000FB1D1B781800BD4602B080BD80B500AFC3
:1014900000F036F8031E01D1002303E0CC20FFF753
:1014A0006DFF01231800BD4680BDC04690B585B0D4
:1014B00000AF786000F024F8031E01D100231BE088
:1014C0003320FFF75BFF0F23FB1800221A700DE09B
:1014D0007C68631C7B60FFF7ADFF030023700F2364
:1014E000FB181A780F23FB1801321A700F23FB1810
:1014F0001B78072BECD901231800BD4605B090BD21
:1015000080B500AF00F02EF8F0235B0018000AF061
:101510003FFAC046124B1B6901221340FAD000F07B
:101520002BF846200AF034FAC0460D4B1B69012205
:101530001340FAD0FFF7D8FE031E0CD1CD235B0079
:1015400018000AF025FAC046054B1B69012213401A
:10155000FAD0012300E000231800BD4680BDC0463C
:101560000010004080B500AFA023DB0580225202AE
:101570009A61C046BD4680BD80B500AFA023DB05A3
:1015800001229A61C046BD4680BDC04680B582B08A
:1015900000AFFB1D00221A7009E0FB1D1B78094AF1
:1015A0000021D154FB1D1A78FB1D01321A70FB1D5E
:1015B0001B78072BF1D9044B41221A70C046BD4657
:1015C00002B080BD780D0020740D002090B585B06C
:1015D00000AF5C4B1B78002B01D10023ADE0FFF77F
:1015E0008FFF031E01D10023A7E00F23FB18082261
:1015F0001A70554BBB60FB1DBA6812781A70BB1D80
:1016000000221A707B1D01221A70F020FFF7B6FE2F
:101610003B1D00221A70FC1CFFF7D8FE030023704C
:10162000BC1CFFF7D3FE03002370FB1C1B78002BB0
:101630002ED1BB1C1B78002B38D1424B1B787A1D56
:1016400012789A4211D2FB1D1B780122134007D059
:10165000BB1DBA1D1278802149420A431A7025E049
:101660003B1D7A1D12781A7020E0364B1B787A1DCC
:1016700012789A4207D1BB1DBA1D127880214942C7
:101680000A431A7012E03B1D7A1D12781A700DE0A1
:10169000BB1C1B78002B07D1BB1DBA1D1278802103
:1016A00049420A431A7001E0002346E0BB1D1B7843
:1016B0007F229343DBB21800FFF724FE0F23FB18B1
:1016C0001A780F23FB18013A1A700F23FB181B78A6
:1016D000002B16D1BB68BA1D12781A707B1D1B78BF
:1016E0003F2B22D8BB1D00221A70BB680133BB60A0
:1016F000FB1DBA6812781A700F23FB1808221A70A3
:101700000DE07B1D1B783F2B11D8FB1DFA1D1278B5
:1017100052081A70BB1DBA1D127852081A707B1D30
:101720001A787B1D01321A7075E7C04600E0C0468A
:10173000044B3A1D12781A70034B1800BD4605B0D1
:1017400090BDC046740D0020780D002090B585B086
:1017500000AF78600E23FB1800221A700F23FB18CD
:1017600000221A7017E00F23FB181B787A68D31831
:101770001A780E23FC180E23FB181B781100180092
:1017800000F016F8030023700F23FB181A780F23BC
:10179000FB1801321A700F23FB181B78072BE2D9B4
:1017A0000E23FB181B781800BD4605B090BDC0463F
:1017B00080B584B000AF0200FB1D1A70BB1D0A1C6F
:1017C0001A700F23FB1808221A7024E0FA1DBB1DA3
:1017D00012781B785340DBB21A000123134008D063
:1017E000FB1D1B785B08DBB2742252425340DBB214
:1017F00003E0FB1D1B785B08DBB2FA1D1370BB1DF9
:10180000BA1D127852081A700F23FB181A780F238A
:10181000FB18013A1A700F23FB181B78002BD5D147
:10182000FB1D1B781800BD4604B080BD80B500AF1D
:10183000FFF766FE031E01D1002303E0CC20FFF773
:101840009DFD01231800BD4680BDC04680B500AF98
:10185000FFF7ECFF031E04D04420FFF78FFD0123A8
:1018600000E000231800BD4680BDC04690B587B09B
:1018700000AF7860FFF744FE031E00D1B0E05520B2
:10188000FFF77CFD1723FB1800221A701723FB18A3
:1018900000221A700FE01723FB181B787A68D31800
:1018A0001B781800FFF76AFD1723FB181A78172317
:1018B000FB1801321A701723FB181B78072BEAD983
:1018C000BE20FFF75BFD1623FB1800221A701523BC
:1018D000FB1800221A7021E01523FB181C78FFF773
:1018E000A9FD03001A000823FB181A551523FB183D
:1018F0001B780822BA18D25C1623FC181623FB1892
:101900001B7811001800FFF753FF03002370152305
:10191000FB181A781523FB1801321A701523FB18CF
:101920001B78072BD8D9FFF785FD03001A00162373
:10193000FB181B78934202D0FA23DB0152E0082304
:10194000FB185B781B021AB20823FB181B781BB22A
:1019500013431AB21223FB181A807B681B78102BD2
:1019600020D11223FB181222BA181288D2001A8032
:101970000823FB18DB79102B14D11223FB18122239
:10198000BA1812880F218A431A800823FB189B7902
:101990009BB21222BA181288D31A9AB21223FB18D9
:1019A0000C321A801223FB181222BA18128812095C
:1019B0001A801223FB181A8880235B009A420AD9E6
:1019C0001223FB181B88FF2213409AB21223FB1824
:1019D000013AFF3A1A801223FB1800229B5E01E0B5
:1019E000FA23DB011800BD4607B090BD90B587B063
:1019F00000AFFFF71BFF031E00D1C5E04420FFF737
:101A0000BDFC1723FB1800221A700CE0684B18006D
:101A100009F0BEFF09F0DAFF1723FB181A78172325
:101A2000FB1801321A701723FB181B78632BEDD9B2
:101A3000FFF7ACFDFFF7CAFD03003B613B69002BDC
:101A400000D19CE03B695A1C3A610F22BA181B78FE
:101A500013700E23FB1800221A700B23FB180F22A1
:101A6000BA1812781A700D23FB1800221A701BE0A6
:101A70000E23FC180F23FB181A780E23FB181B7873
:101A800011001800FFF794FE030023703B695A1CF5
:101A90003A610F22BA181B7813700D23FB181A78BD
:101AA0000D23FB1801321A700D23FB181B78072B2E
:101AB000DED90E23FB181B78002B59D10B23FB1802
:101AC0001B78282B09D00B23FB181B78222B04D062
:101AD0000B23FB181B78102B45D1BE20FFF74EFCC3
:101AE0000E23FB1800221A700C23FB1800221A7018
:101AF0001FE00C23FB181C78FFF79CFC03001A0066
:101B00003B001A550C23FB181B783A00D25C0E23BD
:101B1000FC180E23FB181B7811001800FFF748FE75
:101B2000030023700C23FB181A780C23FB180132D6
:101B30001A700C23FB181B78072BDAD9FFF77AFCF5
:101B400003001A000E23FB181B7893420FD13B00B1
:101B50005B781B0219B23B001B781AB20823FB18F2
:101B60000A431A8003E03F2002F070FC00E0C04608
:101B70000A2002F06BFC0D2002F068FC5AE7C04618
:101B80002E2002F063FC02E02D2002F05FFC0A2010
:101B900002F05CFC0D2002F059FCFA23DB01180076
:101BA00009F0F6FE09F012FFC046BD4607B090BD31
:101BB0001027000090B587B000AF00237B61FFF7CE
:101BC00093FB031E05D1444B180002F09DFCFE233D
:101BD0007EE0FFF72BFE031E00D178E0FFF7D6FC76
:101BE000FFF7F4FC03003B613B69002B6ED07B697F
:101BF00001337B617B69402B04DD384B180002F018
:101C000083FC64E03B695A1C3A610F22BA181B78C6
:101C100013700E23FB1800221A700C23FB180F22DE
:101C2000BA1812781A700D23FB1800221A7023E0DC
:101C30000D23FB181B783A000F2179180978D1542D
:101C40000E23FC180F23FB181A780E23FB181B78A1
:101C500011001800FFF7ACFD030023703B695A1C0C
:101C60003A610F22BA181B7813700D23FB181A78EB
:101C70000D23FB1801321A700D23FB181B78072B5C
:101C8000D6D90E23FB181B78002BA9D10C23FB18E7
:101C90001B78012B09D00C23FB181B78012B04D0D7
:101CA0000C23FB181B78012B9AD10B23FC183B004B
:101CB000180005F067FC030023700B23FB181B784A
:101CC000FE2B8DD00B23FB181B7801E0C046FE23B2
:101CD0001800BD4607B090BD18DF00082CDF0008D3
:101CE00090B585B000AFFFF7A1FD031E00D197E0CE
:101CF000FFF74CFCFFF76AFC0300FB60FB68002B5E
:101D000001D1C0468CE0FB685A1CFA600B22BA185D
:101D10001B7813700A23FB1800221A700823FB1883
:101D20000B22BA1812781A700923FB1800221A70B5
:101D300023E00923FB181B783A000B217918097856
:101D4000D1540A23FC180B23FB181A780A23FB181A
:101D50001B7811001800FFF72BFD03002370FB68B0
:101D60005A1CFA600B22BA181B7813700923FB184F
:101D70001A780923FB1801321A700923FB181B7803
:101D8000072BD6D90A23FB181B78002B41D1082337
:101D9000FB181B78012B09D00823FB181B78012B9B
:101DA00004D00823FB181B78012B14D13B0018002A
:101DB00005F0E8FB0300FE2B04D13B00180005F002
:101DC00085FB02E0032008F0B3FA052009F00CFEC1
:101DD00009F018FE1DE00823FB181B78282B09D0FA
:101DE0000823FB181B78222B04D00823FB181B7830
:101DF000102B0ED13B00180008F028FE031E08D15E
:101E00003B00180008F0C6FD052009F0EDFD09F0C3
:101E1000F9FD032008F0A8FA042008F0A5FA69E704
:101E2000C046BD4605B090BD80B586B000AF7860B5
:101E300039600023FB600023BB6000233B6100236B
:101E40007B6151E101227B699A401300FB603B6892
:101E50001B68FA681340BB60BA68FB689A4200D0FE
:101E60003FE13B685B68022B03D03B685B68122B49
:101E700023D17B69DA087B6808329200D3583B6132
:101E80007B69072213409B000F229A401300DA431C
:101E90003B6913403B613B681A697B6907210B4032
:101EA0009B009A4013003A6913433B617B69DA084F
:101EB0007B68083292003969D1503B685B68012B1E
:101EC0000BD03B685B68022B07D03B685B68112B2B
:101ED00003D03B685B68122B30D17B689B683B6109
:101EE0007B695B0003229A401300DA433B6913408D
:101EF0003B613B68DA687B695B009A4013003A6992
:101F000013433B617B683A699A607B685B683B611D
:101F100001227B699A401300DA433B6913403B611D
:101F20003B685B681B0901221A407B699A401300D9
:101F30003A6913433B617B683A695A607B681B6866
:101F40003B617B695B0003229A401300DA433B69E3
:101F500013403B613B685B6803221A407B695B006E
:101F60009A4013003A6913433B617B683A691A60EF
:101F70007B68DB683B617B695B0003229A4013004E
:101F8000DA433B6913403B613B689A687B695B00BD
:101F90009A4013003A6913433B617B683A69DA60FF
:101FA0003B685A6880235B05134000D199E0524B8F
:101FB000514A526B01210A435A63504A7B699B087C
:101FC00002339B009B583B617B69032213409B00BB
:101FD000102252429A403B6913403B617A68A02329
:101FE000DB059A4219D07B68454A934213D07B683F
:101FF000444A93420DD07B68434A934207D07B68A2
:10200000424A934201D1042308E0052306E003235A
:1020100004E0022302E0012300E000237A690321A7
:102020000A40920093403A6913433B6133497B690C
:102030009B0802339B003A695A50354B1B683B6141
:10204000BB68DA433B6913403B613B685A688023B5
:102050005B02134003D03A69BB6813433B612C4BCE
:102060003A691A602A4B5B683B61BB68DA433B699B
:1020700013403B613B685A6880239B02134003D0A6
:102080003A69BB6813433B61214B3A695A60204B64
:102090009B683B61BB68DA433B6913403B613B682B
:1020A0005A6880235B03134003D03A69BB6813432B
:1020B0003B61174B3A699A60154BDB683B61BB6823
:1020C000DA433B6913403B613B685A6880239B03BA
:1020D000134003D03A69BB6813433B610C4B3A6928
:1020E000DA607B6901337B617B690F2B00D8A9E63D
:1020F000C046BD4606B080BD001002400000014051
:102100000004005000080050000C0050001C00505B
:102110000004014080B586B000AF786039600023CC
:102120003B610023FB600023BB6000237B6182E0F6
:1021300001227B699A4013003B613B683A69134076
:10214000FB60FA683B699A4272D17B681B687A69C6
:102150005200032191400A00D2431A407B681A6062
:102160007B69DA087B69D9087B6808318900CB581C
:1021700079690720014089000F2088400100C94388
:1021800019407B6808329200D1507B689B687A695D
:102190005200032191400A00D2431A407B689A60A2
:1021A0007B685B6801217A6991400A00D2431A403A
:1021B0007B685A607B68DB687A6952000321914032
:1021C0000A00D2431A407B68DA607B69032213401D
:1021D0009B000F229A401300BB601B487B699B0841
:1021E00019497A699208023292005258B968C94373
:1021F0000A4002339B001A50144B144A1268F968C3
:10220000C9430A401A60114B104A5268F968C94321
:102210000A405A600D4B0D4A9268F968C9430A405A
:102220009A600A4B094AD268F968C9430A40DA60E1
:102230007B6901337B617B690F2B00D878E7C0464F
:10224000BD4606B080BDC04600000140000401400C
:1022500080B584B000AF78600A00BB1C1A807B6830
:102260001B69BA1C1288134004D00F23FB180122EB
:102270001A7003E00F23FB1800221A700F23FB18BB
:102280001B781800BD4604B080BDC04680B582B042
:1022900000AF786008001100BB1C021C1A807B1C78
:1022A0000A1C1A707B1C1B78002B04D0BB1C1A88DC
:1022B0007B689A6103E0BB1C1A887B689A62C046FF
:1022C000BD4602B080BDC04680B582B000AF786028
:1022D0000A00BB1C1A807B685A69BB1C1B885A40C9
:1022E0007B685A61C046BD4602B080BD80B584B0EF
:1022F00000AF78600A00BB1C1A8080235B02FB6081
:10230000BB1C1A88FB681343FB60FA687B68DA61C0
:10231000BB1C1A887B68DA61FA687B68DA617B68C3
:10232000DB69FB607B68DA6980235B02134001D0C4
:10233000002300E001231800BD4604B080BDC04664
:1023400080B582B000AF0200BB1D1A80094B5B69EB
:10235000BA1D1288134008D0064BBA1D12885A6164
:10236000BB1D1B88180000F007F8C046BD4602B030
:1023700080BDC0460004014080B582B000AF0200BD
:10238000BB1D1A80C046BD4602B080BD80B500AFFF
:10239000FEF752FCFEF704FD08F000FC01F0FEFB26
:1023A000FEF752FAFDF7EAFEC046BD4680BDC046C4
:1023B00080B582B000AF00233B60CCE03B68353392
:1023C0000121180002F05CFD0300D8B266493A68AA
:1023D00013005B009B189B00CB180B33021C1A7078
:1023E00061493A6813005B009B189B00CB180B33C4
:1023F0001B78FE2B00D1A1E000237B6056E03A68F9
:1024000013009B009B185B00DA1C7B68D31801212A
:10241000180002F035FD0300D8B253493A681300A2
:102420005B009B189B00CA187B68D318021C1A70AB
:102430004D493A6813005B009B189B00CA187B68E3
:10244000D3181B782F2B0BD947493A6813005B0030
:102450009B189B00CA187B68D3181B78392B01D9AD
:10246000012300E000231A1C01231340D9B23E4887
:102470003A6813005B009B189B00C2187B68D31856
:102480001B78463B5A1E9341DBB20B40DBB2002B5C
:1024900009D035493A6813005B009B189B00CB18A4
:1024A0000B3300221A707B6801337B607B68092B39
:1024B000A5DD2D493A6813005B009B189B00CB18E3
:1024C0000A3300221A70294B180002F01DF83A68EE
:1024D00013005B009B189B00234A9B18180002F016
:1024E00013F8234B180002F00FF81F493A68130045
:1024F0005B009B189B00CB180B331B78092B0CD867
:1025000019493A6813005B009B189B00CB180B33EA
:102510001B78180002F032F90BE013493A681300F7
:102520005B009B189B00CB180B331B78180001F045
:10253000D5FF104B180001F0E7FF09E00A493A689F
:1025400013005B009B189B00CB180B3300221A7002
:102550003B6801333B603B68042B00DC2EE7C04640
:10256000BD4602B080BDC0461000002040DF00081C
:1025700050DF000858DF000880B500AF064B1B781D
:10258000002B05D0044B1B78013BDAB2024B1A70CA
:10259000C046BD4680BDC0463907002080B500AFAB
:1025A0000F4B1B68042B0FD10E4B1B68012B0BDD4F
:1025B0000020FEF72DFC031E0ED10B4A0B4B110021
:1025C0001800FEF713FD07E000F012F8042009F0F0
:1025D0000BFA09F017FAE3E7C046BD4680BDC046D6
:1025E0002C070020840D00205CDF000864DF000859
:1025F00080B500AF00F09EF91E4B1B78002B33D145
:102600001C4B1E221A701C4B1B68002B2FD11B4B1E
:102610001B68072B2BD89A00194BD3181B689F46B1
:10262000022202216D2007F007FF00F02DF81EE0C6
:1026300000F0CAF81BE000F0C7F818E0114B1B7857
:10264000002B13D100F080FB03001A000D4B1A7011
:102650000C4B1B78002B09D0084B04221A6005E0B4
:1026600000F0C2F8C04602E0C04600E0C046BD46E9
:1026700080BDC04639070020280700202C07002015
:1026800070DF00083807002080B582B002AF1C4B15
:10269000180001F039FF1B4B00221A7000F04AF9B4
:1026A00026E0194B802292049A610A2009F09CF9D5
:1026B00009F0A8F9144B802292009A61142009F0C5
:1026C00093F909F09FF9114A114912481E2300930A
:1026D0000A2300F0F7FA031E0AD00F4B180001F08E
:1026E00013FF0E4B180001F00FFF0D4B01221A6073
:1026F0000B4B1B68002BD4D0C046BD4680BDC046E6
:1027000090DF000838070020000400505807002020
:10271000A0DF0008A4DF0008A8DF000858DF0008D9
:102720002C07002080B582B002AF1E4B180001F0CC
:10273000EBFE1D4B180001F0E7FE1C4B00221A6057
:1027400000F0F8F826E01A4B802292049A610A20E1
:1027500009F04AF909F056F9154B802292009A6166
:10276000142009F041F909F04DF9124A12491348B1
:1027700010230093022300F0A5FA031E0AD1104B88
:10278000180001F0C1FE084B180001F0BDFE0D4B12
:1027900007221A600B4B1B68072BD4D1C046BD46DD
:1027A00080BDC046B8DF000858DF000834070020AD
:1027B0000004005058070020A0DF0008A4DF000834
:1027C000C8DF00082C07002080B500AF044B14229E
:1027D0001A70044B180001F01DFEC046BD4680BDB6
:1027E00039070020D8DF000880B500AF044B142261
:1027F0001A70044B180001F00DFEC046BD4680BDA6
:1028000039070020E4DF000880B582B000AF002364
:102810007B6000F035FA424B1A68424B1B689A42C3
:1028200000D168E03E4B1B68013B3F4AD35C3E2B26
:102830000BD13B4B1B683C4AD35C202B05D1384B5A
:102840001B685A1C364B1A6056E0354B1B68364ADB
:10285000D35C0A2B19D0324B1B68334AD35C0D2B47
:1028600020D112E02E4B1B682F4A0021D1542C4B53
:102870001B685A1C2A4B1A60294B1A68FA239B00C2
:102880009A4202D1264B00221A60254B1B68264A29
:10289000D35C0D2BE6D0224B1B68234AD35C0A2B5A
:1028A000E0D029E01E4B1B68013B1F4AD35C0A2B7A
:1028B00022D01B4B1B68013B1B4AD35C0D2B1BD04A
:1028C000174B1B68184AD15C184A7B68D3180A1C3E
:1028D0001A70134B1B685A1C114B1A60104B1A6864
:1028E000FA239B009A4202D10D4B00221A607B68AA
:1028F00001337B608FE7C0460C4B1B78002B09D05F
:102900000A4B180001F000FE094B180001F0FCFD15
:10291000012300E000231800BD4602B080BDC04680
:10292000300700203C0700206C09002058070020D9
:1029300058DF000880B500AF01E000F013F8FFF7A2
:1029400063FF031EF9D100231800BD4680BDC046B9
:1029500080B500AF024B1B681800BD4680BDC04665
:10296000840D002080B582B000AF00237B60A04AB8
:10297000A04B1100180001F0EBFA031E04D0FEF783
:10298000C1FA03237B6023E1994A9B4B1100180095
:1029900001F0DEFA031E02D001237B6018E1944AA5
:1029A000964B1100180001F0D3FA031E02D0022347
:1029B0007B600DE18E4A924B1100180001F0C8FABD
:1029C000031E3BD08A4BDB792C2B06D1884B9B799D
:1029D000303B1A008B4B1A600EE0854B9B79303BE5
:1029E0001A0013009B009B185B001A00804BDB79D8
:1029F000303BD218834B1A60834B180001F084FDE2
:102A0000804B1B68180001F0B9FE804B180001F0E4
:102A10007BFD7F4BDB7A002B00D1D9E0794B1B6823
:102A20001F2B03DC774B1B68052B03DC6D20FDF7A8
:102A3000F7FECDE06D20FDF7DFFEC9E06C4A754B77
:102A40001100180001F084FA031E1CD0684A724B72
:102A50001100180001F07CFA654A704B1100180053
:102A600001F076FA031E00D1B2E06D4B180001F0C0
:102A70004BFD664B180001F047FD6A4B02221A60BD
:102A800004237B60A4E05A4A674B1100180001F050
:102A90005FFA031E1AD0564B180001F0A9FA030082
:102AA0000F2B0FD9614B180001F02EFD504B180071
:102AB00001F02AFD554B180001F026FD594B052267
:102AC0001A6085E0574B03221A6081E0484A584B50
:102AD0001100180001F03CFA031E0FD0554B1800EE
:102AE00001F012FD494B180001F00EFD524B662219
:102AF0001A6000F0B7F806237B6069E03C4A4F4B50
:102B00001100180001F024FA031E0FD04C4B1800DE
:102B100001F0FAFC3D4B180001F0F6FC464B682230
:102B20001A6000F09FF807237B6051E0304A454B64
:102B30001100180001F00CFA031E0FD008F0D8FDA8
:102B4000414B180001F0E0FC404B5B78180001F0AD
:102B500015FE2E4B180001F0D7FC39E0244A3C4BFF
:102B60001100180001F0F4F9031E02D008F02CFD4A
:102B70002EE01F4A374B1100180001F0E9F9031E3F
:102B800026D11B4A344B1100180001F0E1F9031E55
:102B90000AD0174BDB79312B1AD1154BDB7A303B3E
:102BA0001A00254B1A6013E0114A2C4B1100180033
:102BB00001F0CEF9031E0BD008237B60284A0C4B92
:102BC0001100180000F03EFA254B180001F09CFCA3
:102BD00000F056F87B68082B04D1214B0721180020
:102BE000FEF7BEF97B68DBB21800BD4602B080BDBF
:102BF00058070020ECDF0008F4DF0008FCDF0008C5
:102C000004E00008840D00200CE0000858DF0008F4
:102C10001000002020E0000828E0000830E0000854
:102C200040E000082C07002058E0000860E00008A1
:102C300068E0000870E00008B802002084E00008A6
:102C400090E00008A8E00008B4E00008C4080020F4
:102C5000CCE00008D4E00008E0E00008E8E000086C
:102C6000C808002080B500AF6D2007F027FC034B9B
:102C700000221A60C046BD4680BDC046280700201D
:102C800080B582B000AF00237B600DE00C4A7B680A
:102C9000D3181B78002B0DD0094A7B68D31800226B
:102CA0001A707B6801337B607A685E23FF339A4237
:102CB000ECDD00E0C046C046BD4602B080BDC04667
:102CC0005807002090B587B000AFF860B9607A600F
:102CD0003B60FB68180001F09DFB0D2001F0B6FB86
:102CE0002AE03B68180008F07FFE08F08BFE1723EF
:102CF000FC18FFF789FD030023701723FB181B78CE
:102D0000002B04D1BA6A3B68D31ABB6214E07A681C
:102D1000BB681100180001F01BF9031E01D001234C
:102D20000EE0BA6A3B68D31ABB62FFF71BFE0300D2
:102D3000022B01D1002303E0BB6A002BD1DC00236E
:102D40001800BD4607B090BD80B582B002AF2E4AD4
:102D50002E492F48052300930223FFF7B3FF031EDC
:102D600001D100234CE0284A28492A480523009332
:102D70000223FFF7A7FF031E01D1002340E0224AF0
:102D800022492548052300930223FFF79BFF031EDA
:102D900001D1002334E01C4A1C492048052300933C
:102DA0000223FFF78FFF031E01D1002328E0164AFC
:102DB00016491B48052300930223FFF783FF031ED8
:102DC00001D100231CE0104A104916480523009346
:102DD0000223FFF777FF6D2007F070FB124B1800FE
:102DE00001F092FB114BDB7A002B08D10A2214214F
:102DF0006D2007F021FB0E4B180001F085FB01232D
:102E00001800BD4680BDC04658070020A0DF00085E
:102E1000F0E00008FCE000080CE100081CE10008FC
:102E200028E1000838E1000844E100081000002013
:102E30005CE1000880B582B000AF00237B6007E052
:102E4000074A7B68D31800221A707B6801337B60C5
:102E50007B68452BF4D9C046BD4602B080BDC04654
:102E6000C808002080B584B000AF78607B68002B74
:102E700000DA0F331B111A000F23FB181A700F23EF
:102E8000FB181B78092B07D90F23FB180F22BA1840
:102E9000127837321A7006E00F23FB180F22BA1887
:102EA000127830321A700F23FB181B78180001F0CB
:102EB000CDFA7B68D9B20F23FB181B781B01DAB25D
:102EC0000F23FB188A1A1A700F23FB181B78092B83
:102ED00007D90F23FB180F22BA18127837321A704D
:102EE00006E00F23FB180F22BA18127830321A703E
:102EF0000F23FB181B78180001F0A8FAC046BD4646
:102F000004B080BD80B582B000AF7860C046BD46D9
:102F100002B080BDB0B58EB000AFF860B9607A6025
:102F20003B601023FB18464A13CA13C313CA13C3CA
:102F300003CA03C312781A703B687B6374E07B6B2F
:102F40000133FA68D3181B78342B44D17B6B0233DE
:102F5000FA68D3181B78312B06D07B6B0233FA68E2
:102F6000D3181B78332B13D13B687A6BD31A9B0889
:102F7000BA68D4187B6B0333FA68D3181B7818002F
:102F800000F0FAF802001023FB189B5C237048E065
:102F90007B6B0233FA68D3181B78322B06D07B6B1D
:102FA0000233FA68D3181B78342B3AD13B687A6B1A
:102FB000D31A9B08BA68D4187B6B0333FA68D3180A
:102FC0001B78180000F0D8F8030010331022BA184C
:102FD000D35C237025E07B6B0133FA68D3181B7830
:102FE000302B1ED13B687A6BD31A9B08BA68D41871
:102FF0007B6B0233FA68D3181B78180000F0BCF81A
:103000000300DBB21B01DDB27B6B0333FA68D3181C
:103010001B78180000F0B0F80300DBB2EB18DBB24D
:1030200023707B6B04337B633A687B68D3181A0088
:103030007B6B9A4283D8C046BD460EB0B0BDC04639
:1030400088E1000880B584B000AF786039607B68A3
:10305000180000F0CDFF03000A3BFB60FA683968F6
:1030600078680A23FFF756FFC046BD4604B080BD0E
:1030700090B597B000AF786039602C23FB18394ABF
:1030800013CA13C313CA13C303CA03C312781A7033
:103090000823FB18344A13CA13C313CA13C303CA41
:1030A00003C312781A7000237B6500233B6500235D
:1030B0007B654FE07A687B6DD3181B78402B28D84E
:1030C0002A4B180001F0A6F900233B6513E07A684B
:1030D0007B6DD3181A780823F9183B6DCB181B7831
:1030E0009A4205D13B6D20331800FFF7BBFE05E087
:1030F0003B6D01333B653B6D202BE8D97A687B6DD6
:10310000D3181B780A2B22D1194B180001F082F931
:103110001DE0184B180001F07DF900233B6513E01A
:103120007A687B6DD3181A782C23F9183B6DCB186D
:103130001B789A4205D13B6D30331800FFF792FEA1
:1031400005E03B6D01333B653B6D202BE8D97B6D82
:1031500001337B657A6D3B689A42ABD3C046BD466E
:1031600017B090BD88E10008B8E10008ACE10008A4
:10317000B0E10008B4E1000880B582B000AF020001
:10318000FB1D1A70FB1D1B78303B092B03DCFB1D5C
:103190001B78303B02E0FB1D1B78373B1800BD4617
:1031A00002B080BD80B584B000AF78607B68093321
:1031B00046221A700023FB600023FB601AE07A6845
:1031C000FB68D2180B23FB1812781A707A68FB6818
:1031D000D318FA68013279688A1812781A70FB6875
:1031E00001337A68D3180B22BA1812781A70FB6868
:1031F0000233FB60FB68092BE1D9C046BD4604B031
:1032000080BDC04680B584B000AF78600023FB600D
:103210000023FB601AE07A68FB68D2180B23FB18C6
:1032200012781A707A68FB68D318FA6801327968E4
:103230008A1812781A70FB6801337A68D3180B2247
:10324000BA1812781A70FB680233FB60FB68092B0E
:10325000E1D97B68093300221A70C046BD4604B02C
:1032600080BDC04680B586B000AF786000237B612A
:1032700000233B6100233B613AE00F23FB1801224E
:103280001A7000237B6117E01D493A6913005B0047
:103290009B189B00CA187B69D3181A7879687B69D8
:1032A000CB181B789A4204D00F23FB1800221A7007
:1032B00005E07B6901337B617B69092BE4D9104907
:1032C0003A6913005B009B189B00CB180B331B78EB
:1032D000613B5A425341DBB21A000F23FB181B78A3
:1032E000134002D03B69DBB206E03B6901333B612E
:1032F0003B69042BC1D964231800BD4606B080BDCC
:103300001000002080B584B000AF39601100FB1DB3
:10331000021C1A70BB1D0A1C1A700023FB6048E0D7
:10332000FB683A68D3181B78303B092B06DCFB6836
:103330003A68D3181B78303B002B01DA012300E0F8
:1033400000231A1C01231340DBB2FA6839688A187B
:103350001278463A511E8A41D2B21340DBB2002B9A
:1033600003D0BB1D00221A7026E0FB1D1A78FB68F3
:103370003968CB181878314913005B009B189B0003
:10338000CA18FB68D318021C1A70FB1D1A781300A8
:103390009B009B185B00DA1CFB68D018FB683A683E
:1033A000D3181B780122190001F020FDFB680133BE
:1033B000FB60FB68092BB3DDFB1D1A781F49130066
:1033C0005B009B189B00CB180B33BA1D12781A7048
:1033D000FB1D1B7835331800BB1D1B78012219001B
:1033E00001F004FD164B180001F08EF8FB1D1B7850
:1033F000180001F0C3F9134B180001F085F83B6881
:10340000180001F081F8104B180001F07DF8BB1D89
:103410001B78092B05D8BB1D1B78180001F0AEF9ED
:1034200004E0BB1D1B78180001F058F8074B18008A
:1034300001F06AF8C046BD4604B080BD100000200F
:10344000DCE10008F8E1000804E2000858DF0008A9
:1034500080B584B000AF78600A00FB1C1A700E23A0
:10346000FB1800221A800D23FB1801221A7041E07C
:10347000FB1C1B787A68D3181B782D2B08D10D23E1
:10348000FB181B785B42DAB20D23FB181A702CE094
:10349000FB1C1B787A68D3181B782F229A429B4119
:1034A0005B42DAB2FB1C1B787968CB18197839209B
:1034B000002388425B41DBB21340DBB2002B14D007
:1034C0000E23FB181B881A1C9200D318DB189AB223
:1034D000FB1C1B787968CB181B789BB2D3189BB266
:1034E000303B9AB20E23FB181A80FB1C1A78FB1C87
:1034F00001321A70FB1C1B787A68D3181B782F22B4
:103500009A429B415B42DAB2FB1C1B787968CB186C
:1035100019783920002388425B41DBB21340DBB2CB
:10352000002BA5D1FB1C1B787A68D3181B782D2B98
:103530009ED0FB1C1B787A68D3181B782B2B97D056
:103540000D23FB181B785BB29BB20E22BA181288AF
:1035500053439AB20E23FB181A800E23FB18002245
:103560009B5E1800BD4604B080BDC04680B584B0E7
:1035700000AF0023FB60ADE0FB680A33FF3301219D
:10358000180001F07DFC0200FB1D1A70FB1D1B786A
:10359000FE2B0AD05349FA681300DB009B189B00EE
:1035A000CB180733FA1D12781A70FB680133FF330A
:1035B0000121180001F064FC0200FB1D1A70FB1DC4
:1035C0001B78FE2B0AD04749FA681300DB009B18D2
:1035D0009B00CB180833FA1D12781A70FB6813335E
:1035E000FF330121180001F04BFC0200FB1D1A7093
:1035F000FB1D1B78FE2B0AD03A49FA681300DB004A
:103600009B189B00CB180633FA1D12781A70FB68C2
:103610001C33FF330121180001F032FC0200FB1DB6
:103620001A70FB1D1B78FE2B0AD02E49FA68130076
:10363000DB009B189B00CB180933FA1D12781A7017
:103640002849FA681300DB009B189B00CB180A334B
:10365000012252421A800023BB6033E0BB6825334D
:10366000FF331900FA6813001B019B1ACB180121C4
:10367000180001F005FC0200FB1D1A70FB1D1B78F1
:10368000FE2B0FD1BB68002B20D01649FA6813001F
:10369000DB009B189B00CA18BB68D31812330022AA
:1036A0001A7013E00F49FA681300DB009B189B00A7
:1036B000CA18BB68D3181233FA1D12781A70BB6887
:1036C0000133BB60BB680E2BC8DD00E0C046FB6861
:1036D0000133FB60FB68082B00DC4DE7C046BD46AC
:1036E00004B080BD4C000020B0B582B000AF050032
:1036F0000C0010001900FB1D2A1C1A70BB1D221C97
:103700001A707B1D021C1A703B1D0A1C1A70FB1DCF
:103710001A78FB1D013A1A70FB1D1B78092B00D982
:10372000FCE0FB1D1A787F491300DB009B189B000F
:10373000CB1807337A1D12781A70FB1D1B780A33D9
:10374000FF331800FB1D1A7876491300DB009B1825
:103750009B00CB1807331B780122190001F046FBB0
:10376000FB1D1A786F491300DB009B189B00CB18D8
:103770000833BA1D12781A70FB1D1B78581CFF30D5
:10378000FB1D1A7867491300DB009B189B00CB18C0
:1037900008331B780122190001F028FBFB1D1A7861
:1037A00060491300DB009B189B00CB1806333A1DC1
:1037B00012781A70FB1D1B781333FF331800FB1DA2
:1037C0001A7858491300DB009B189B00CB1806336E
:1037D0001B780122190001F009FBFB1D1A785149E1
:1037E0001300DB009B189B00CB1809331822BA1872
:1037F00012781A70FB1D1B781C33FF331800FB1D59
:103800001A7848491300DB009B189B00CB1809333A
:103810001B780122190001F0E9FA434B180000F06F
:1038200073FEFB1D1B780133180000F0A7FF3F4B10
:10383000180000F069FEFB1D1A783A491300DB00FE
:103840009B189B00CB1808331B78180000F096FFDC
:10385000374B180000F058FEFB1D1A783149130051
:10386000DB009B189B00CB1807331B78180000F077
:1038700085FF304B180000F047FEFB1D1B7801212F
:10388000180000F04BFB031E04D02B4B180000F077
:103890003BFE03E0294B180000F036FE284B1800D1
:1038A00000F032FEFB1D1B780221180000F036FBF1
:1038B000031E04D0204B180000F026FE03E01F4B2F
:1038C000180000F021FE1F4B180000F01DFEFB1D2C
:1038D0001B780421180000F021FB031E04D0164BB6
:1038E000180000F011FE03E0144B180000F00CFE6D
:1038F000154B180000F008FEFB1D1A78094913004B
:10390000DB009B189B00CB1809331B78180000F0D4
:1039100035FF0E4B180000F0F7FD00E0C046BD4635
:1039200002B0B0BD4C00002010E2000830E20008F8
:1039300038E2000840E2000850E2000858E20008BF
:1039400060E2000874E2000884E2000898E20008DF
:1039500080B584B000AF02003960FB1D1A70FB1DFA
:103960001A78FB1D013A1A70FB1D1B78092B00D930
:103970007AE00023FB6054E0FB6805331A003B68E3
:103980009B181B78002B1CD1FB1D1A78384913009B
:10399000DB009B189B00CA18FB68D3181233002267
:1039A0001A70FB1D1A7813001B019B1A2533FF3375
:1039B0001A00FB68D3180122FE21180001F016FA44
:1039C00032E0FB1D1A78FB68053319003B685B1871
:1039D000187827491300DB009B189B00CA18FB6866
:1039E000D3181233021C1A70FB1D1A7813001B0126
:1039F0009B1A2533FF331A00FB68D018FB1D1A7879
:103A00001B491300DB009B189B00CA18FB68D318E6
:103A100012331B780122190001F0E8F9FB68013329
:103A2000FB60FB680E2BA7DD124B180000F06CFD4D
:103A3000FB1D1B78180000F0A1FE0F4B180000F0D2
:103A400063FDFB1D1A781300DB009B189B001033ED
:103A50001A00074BD3180233180000F055FD074B2E
:103A6000180000F051FD00E0C046BD4604B080BD26
:103A70004C000020A0E20008BCE20008C4E20008FC
:103A800090B585B000AF78607B68052B5BDC7B6808
:103A90005A1E40491300DB009B189B00CB180C33C7
:103AA0001B68180000F0DEFB0300FB607B685A1EF9
:103AB00038491300DB009B189B00CB1807331B7899
:103AC0001A0096235B005343334A12785343642110
:103AD000180008F059F803001A00FB689A421BD935
:103AE0007B685A1E2B491300DB009B189B00CB18E8
:103AF00008331B781A0096235B005343264A12783A
:103B000053436421180008F03FF803001A00FB68D3
:103B10009A4201D2012300E000231A1C0123134022
:103B2000DCB27B68013B0421180000F0F7F90300C8
:103B30005A425341DBB26340DBB2002B01D0012378
:103B400024E0002322E07B685A1E12491300DB00A8
:103B50009B189B005B5819697B685A1E0D4813001F
:103B6000DB009B189B00C31804331B880B405A4290
:103B70005341DCB27B68013B0421180000F0CEF910
:103B800003005A1E9341DBB26340DBB21800BD460E
:103B900005B090BD4C0000200300002080B582B02D
:103BA00000AFFCF751FE00237B60DAE07B68013355
:103BB0001800FFF765FF031E00D180E06E497A68A8
:103BC0001300DB009B189B00CB1810331B78002BD5
:103BD00000D0AAE0694B180000F096FC7B68180042
:103BE00000F0CCFD664B180000F08EFC7B68DBB269
:103BF0000133DBB21800FCF7FFFD5F497A68130060
:103C0000DB009B189B00CB1810331B78002B4BD18B
:103C10007B680221180000F081F9031E07D0FCF731
:103C200053FD031E00D0A1E0FCF7FEFC9EE0FCF774
:103C30004BFD031E06D17B680121180000F06EF9D0
:103C4000031E31D04C497A681300DB009B189B009F
:103C5000CB1811331B78002B26D17B68DAB2494B85
:103C60001A7045497A681300DB009B189B00CB183B
:103C700009331B789BB21A1C9200D3189BB218B25E
:103C80003D497A681300DB009B189B00CB180A3370
:103C9000021C1A8038497A681300DB009B189B00CD
:103CA000CB18113301221A7033497A681300DB00F4
:103CB0009B189B00CB18103301221A7035E02E4957
:103CC0007A681300DB009B189B00CB1810331B781D
:103CD000002B2AD028497A681300DB009B189B0030
:103CE000CB18103300221A707B68DBB20133DBB2D1
:103CF0001800FCF795FD7B680221180000F00EF912
:103D0000031E06D0FCF7E0FC031E31D0FCF7B8FC24
:103D10002EE01A4B180000F0F7FB7B68180000F04B
:103D20002DFD194B180000F0EFFB13497A681300C2
:103D3000DB009B189B00CB180A3300229B5E002BF4
:103D40000CD10D497A681300DB009B189B00CB183F
:103D50000A33012252421A80FCF7F8FC7B680133D7
:103D60007B607B68082B00DC20E702E0C04600E0B7
:103D7000C046BD4602B080BD4C000020C8E200082D
:103D8000D0E200083A070020E0E2000880B582B0E7
:103D900000AF00237B6043E025497A681300DB0015
:103DA0009B189B00CB180A3300229B5E002B34DD4E
:103DB000204B180000F0A8FB7B68180000F0DEFC28
:103DC0001D4B180000F0A0FB19497A681300DB00B6
:103DD0009B189B00CB180A3300229B5E180000F052
:103DE000CDFC164B180000F08FFB11497A681300C8
:103DF000DB009B189B00CB180A3300229B5E9BB212
:103E0000013B9BB218B20A497A681300DB009B1889
:103E10009B00CB180A33021C1A807B6801337B603D
:103E20007B68082BB8DDC046BD4602B080BDC046E9
:103E30004C000020F0E20008F8E200080CE3000863
:103E400080B582B000AF00237B600CE00D497A683A
:103E50001300DB009B189B00CB18113300221A7053
:103E60007B6801337B607B68082BEFDD064B00220B
:103E70001A70064B012252421A80C046BD4602B05B
:103E800080BDC0464C0000203A0700209001002071
:103E900080B500AF024B1B781800BD4680BDC04600
:103EA0003A07002080B584B000AF786039607B6845
:103EB000180000F09DF80300BB600023FB6021E0C8
:103EC00015493A681300DB009B189B00CA18FB6871
:103ED000D31812331B78002B18D0BA68FB68D3189C
:103EE0001A007B6899180C483A681300DB009B188D
:103EF0009B00C218FB68D31812331B780B70FB6849
:103F00000133FB60FB68452BDADD00E0C046C046AC
:103F1000BD4604B080BDC0464C00002080B582B0D4
:103F200000AF7860396009497A681300DB009B189C
:103F30009B00CB1806331B785BB23A6852B2134031
:103F40005BB2DBB21800BD4602B080BD4C00002061
:103F500080B588B000AF786039600023FB617B6872
:103F6000180000F045F803003B613B68180000F0C2
:103F70003FF80300FB602FE07B681A78FB69396823
:103F8000CB181B789A4224D100237B610023BB61AC
:103F90001BE0BB697A68D3181A78F969BB69CB183A
:103FA00019003B685B181B789A4208D17B69013382
:103FB0007B613B697A699A4204D1012313E00023B3
:103FC0007B6106E0BB690133BB61BA693B699A4218
:103FD000DFDBFB690133FB61FA683B69D21AFB69DD
:103FE0009A42C9DA00231800BD4608B080BDC04619
:103FF00080B584B000AF78600023FB6002E0FB680E
:104000000133FB607A68FB68D3181B78002BF6D16C
:10401000FB681800BD4604B080BDC04680B588B0BE
:1040200000AFF860B9607A603B600023FB61FB6819
:104030001800FFF7DDFF03007B617B681800FFF7C6
:10404000D7FF0300BB61BA693B689A4204D93B6859
:10405000002B01D03B68BB610023FB6112E07A6951
:10406000FB69D218BB689A4211D27A69FB69D318EE
:10407000FA68D3187968FA698A1812781A70FB6995
:104080000133FB61FA69BB699A42E8D300E0C0469C
:10409000BD4608B080BDC04680B586B000AF786030
:1040A000396005237B617B681800FFF7A1FF0300DF
:1040B000FB603B68002B0ADA3B685B423B60FB68B5
:1040C0007A68D3182D221A70FB680133FB6009232C
:1040D0007B6151E03B68BB607B693B6109E0BB6889
:1040E0000A21180007F050FD0300BB603B69013B4B
:1040F0003B613B69002BF2DCBB68002B02D17B6982
:10410000002B36D1FB687A68D318BA68D2B2303245
:10411000D2B21A70FB680133FB607B693B6108E037
:10412000BA6813009B009B185B00BB603B69013BB6
:104130003B613B69002BF3DC3A68BB68D31A3B60F8
:104140003B68002B15D17B69002B12D000233B610B
:104150000AE0FB687A68D31830221A70FB680133D2
:10416000FB603B6901333B613A697B699A42F0DB52
:1041700005E07B69013B7B617B69002BAADABD46C8
:1041800006B080BD80B584B000AF78600023FB60CE
:104190007B68002B04DA0123FB607B685B427B6059
:1041A0007B68194A934204DDFB68DBB20633DBB25D
:1041B00025E07B68154A934204DDFB68DBB20533DA
:1041C000DBB21CE07B68124A934204DDFB68DBB281
:1041D0000433DBB213E07B68632B04DDFB68DBB2E6
:1041E0000333DBB20BE07B68092B04DDFB68DBB239
:1041F0000233DBB203E0FB68DBB20133DBB2180051
:10420000BD4604B080BDC0469F8601000F27000058
:10421000E703000080B500AF104B104A526B8021BD
:1042200089000A435A630E4B0D4A526906210A431C
:104230005A610B4B0A4A926801210A439A60C046B0
:10424000074B1B6801221340FAD0054B044A526801
:1042500004210A435A60C046BD4680BD001002409A
:104260000024014080B582B000AF78600A4B7A68C4
:104270009A62094B084A926804210A439A60C04630
:10428000054B1B6804221340FAD0034B1B6C18002B
:10429000BD4602B080BDC0460024014080B582B05A
:1042A00000AF0200FB1D1A70064BFA1D12781100B8
:1042B0001F220A40012191400A001A60C046BD46F3
:1042C00002B080BD00E100E080B500AF174B174A97
:1042D000526B8021C9010A435A631B20FFF7DEFF9E
:1042E000134B144A1A60124B962292015A60104BDB
:1042F00000229A600E4B0022DA600D4B00221A61F8
:104300000B4B0C225A610A4B00229A61084B002287
:10431000DA61074B180004F03DFA064B054A1268B3
:1043200020210A431A60C046BD4680BD00100240ED
:10433000F80E00200038014080B500AF174B174A37
:10434000926B802189020A439A631C20FFF7A6FF23
:10435000134B144A1A60124B962292015A60104B6A
:1043600000229A600E4B0022DA600D4B00221A6187
:104370000B4B0C225A610A4B00229A61084B002217
:10438000DA61074B180004F005FA064B054A12687B
:1043900020210A431A60C046BD4680BD001002407D
:1043A000640F00200044004080B500AF164B164A51
:1043B000926B8021C9020A439A63144B144A1A6013
:1043C000124B962292015A60104B00229A600F4BBA
:1043D0000022DA600D4B00221A610C4B0C225A614C
:1043E0000A4B00229A61094B0022DA61074B180040
:1043F00004F0D0F9064B064A126820210A431A60DD
:10440000C046BD4680BDC046001002408C0E002054
:104410000048004080B584B000AF78600023FB60A6
:1044200009E0FB687A68D3181B78180000F00EF8D2
:10443000FB680133FB60FB687A68D3181B78002B9C
:10444000EFD1C046BD4604B080BDC04680B582B045
:1044500000AF0200FB1D1A70C046064BDB698022CC
:104460001340FAD0034BFA1D12789A62C046BD463B
:1044700002B080BD0044004080B582B000AF0200B1
:10448000FB1D1A70064BFA1D12789A62C046044B47
:10449000DB6980221340FAD0C046BD4602B080BD21
:1044A0000038014080B584B000AF78600023FB6025
:1044B00009E0FB687A68D3181B781800FFF7DCFF67
:1044C000FB680133FB60FB687A68D3181B78002B0C
:1044D000EFD1C046BD4604B080BDC04680B582B0B5
:1044E00000AF0200FB1D1A70C046064BDB6980223C
:1044F0001340FAD0034BFA1D12789A62C046BD46AB
:1045000002B080BD0048004080B584B000AF786044
:104510000023FB6009E0FB687A68D3181B78180059
:10452000FFF7DCFFFB680133FB60FB687A68D31898
:104530001B78002BEFD1C046BD4604B080BDC046FD
:1045400080B500AF00F04AF8044B044AD269282134
:104550008A43DA61C046BD4680BDC046003801408E
:1045600080B500AF00F01AF8044B044AD269282144
:104570008A43DA61C046BD4680BDC0460044004063
:1045800080B500AF044B044AD26928218A43DA611E
:10459000C046BD4680BDC0460048004080B500AF63
:1045A0000B4B1A680B4B5B6AD9B20B4B9954084BF7
:1045B0001B685A1C064B1A60054B1A68FA239B00AD
:1045C0009A4202D1024B00221A60C046BD4680BD0D
:1045D0003C070020004400406C09002080B500AF7B
:1045E0000B4B1A680B4B5B6AD9B20B4B9954084BB7
:1045F0001B685A1C064B1A60054B1A6882235B0025
:104600009A4202D1024B00221A60C046BD4680BDCC
:104610004007002000380140880D002080B584B09C
:1046200000AF0200BB1D1A80BB1D1A88FA23990037
:10463000100007F01FFA03009AB20F23FB181A703C
:10464000BB1D1B883B4A934207D90F23FB181B78DD
:104650003033DBB21800FFF7F9FEBB1D1A880F23B9
:10466000FB181B7834494B43D3186421180007F01A
:104670008BFA03001A000E23FB181A70BB1D1B884F
:10468000632B07D90E23FB181B783033DBB21800DD
:10469000FFF7DCFEBB1D1A880F23FB181B78264989
:1046A0004B43D2180E23FB181B78642149424B431D
:1046B000D3180A21180007F067FA03001A000D2327
:1046C000FB181A70BB1D1B88092B07D90D23FB187B
:1046D0001B783033DBB21800FFF7B8FEBB1D1B8818
:1046E000DAB20E23FB181B78642149424B43D9B23E
:1046F0000F23FB181B7818204343DBB2CB18DBB227
:10470000D318D9B20D23FB181B780A225242534307
:10471000DAB20C23FB188A181A700C23FB181B78CA
:104720003033DBB21800FFF791FEC046BD4604B03F
:1047300080BDC046E703000018FCFFFF80B582B0D3
:1047400000AF78607B68002B14D07B680A211800CA
:1047500007F090F903001800FFF7F0FF7B680A21CB
:10476000180007F00DFA0B00DBB23033DBB2180093
:10477000FFF7B4FEC046BD4602B080BD80B582B032
:1047800000AF78607B68002B04D07B681800FFF7CF
:10479000D5FF05E07B68002B02D13020FFF79EFE9D
:1047A000C046BD4602B080BD80B582B000AF304B80
:1047B0001A68304B1B689A4217D1002353E02D4BE7
:1047C0001B685A1C2B4B1A602A4B1A6882235B0009
:1047D0009A4202D1274B00221A60254B1A68254BBA
:1047E0001B689A4201D100233DE0224B1B68224AFC
:1047F000D35CAA3B5A1E9341DAB21E4B1B680133AD
:104800001D49CB5C553B591E8B41DBB21343DBB2D8
:10481000002BD4D100237B6021E0154B1A68154B87
:104820001B689A4201D101231DE0124B1B68124AFA
:10483000D15C124A7B68D3180A1C1A700D4B1B6896
:104840005A1C0C4B1A600B4B1A6882235B009A426D
:1048500002D1084B00221A607B6801337B607B68C1
:10486000192BDADD01231800BD4602B080BDC04619
:104870004007002044070020880D0020580D00202C
:1048800080B500AF034B1A68034B1A60C046BD46A3
:1048900080BDC046440700204007002080B500AF1F
:1048A000054B1A68054B1B689A4201D1002300E0B2
:1048B00001231800BD4680BD4007002044070020AA
:1048C00080B582B000AF00237B6000237B6007E0EF
:1048D000074A7B68D31800221A707B6801337B601B
:1048E0007B68192BF4DDC046BD4602B080BDC046D2
:1048F000580D002080B500AF0A4B0A4A12684021CB
:104900000A431A60074B074A126802210A431A60D9
:10491000032000F03BF805F073FC00231800BD46AF
:1049200080BDC0460020024080B500AF104B012280
:1049300052429A620E4B00229A620D4B0122524261
:104940005A620B4B00225A62094B012252421A62F0
:10495000074B00221A62064B01225242DA61044BD5
:104960000022DA6105F052FC00231800BD4680BD2C
:104970000010024080B500AFC046BD4680BDC046B5
:1049800080B500AFC046BD4680BDC04680B582B090
:1049900000AF786003F0BAFD0200FA23990010001E
:1049A00007F068F80300180006F0D0FC79680123CE
:1049B0005B420022180006F08BFC00231800BD4665
:1049C00002B080BD80B500AF034B1B685A1C024B80
:1049D0001A60C046BD4680BD4807002080B500AFC4
:1049E000024B1B681800BD4680BDC046480700202A
:1049F00080B584B000AF78600023FB60FFF7EEFF66
:104A00000300FB60C046FFF7E9FF0200FB68D21A13
:104A10007B689A42F7D3C046BD4604B080BDC0460D
:104A200080B500AF044B044A126802218A431A6021
:104A3000C046BD4680BDC04610E000E080B500AF76
:104A4000044B044A126802210A431A60C046BD465C
:104A500080BDC04610E000E080B500AF014B1800FB
:104A6000BD4680BD0000010180B500AF024B1B6850
:104A70001B0C1800BD4680BD0058014080B500AF3A
:104A8000034B1B681B051B0D1800BD4680BDC046AF
:104A90000058014080B500AF044B044A5268012120
:104AA0000A435A60C046BD4680BDC046005801401A
:104AB00080B500AF044B044A526801218A435A6012
:104AC000C046BD4680BDC0460058014080B500AF1D
:104AD000044B044A526802210A435A60C046BD464C
:104AE00080BDC0460058014080B500AF044B044A69
:104AF000526802218A435A60C046BD4680BDC04606
:104B00000058014080B500AF044B044A52680421AC
:104B10000A435A60C046BD4680BDC04600580140A9
:104B200080B500AF044B044A526804218A435A609E
:104B3000C046BD4680BDC0460058014080B582B029
:104B400000AF78600A00FB1C1A70FB1C1B78002B5E
:104B500006D0094B084A51687A680A435A6006E051
:104B6000054B054A52687968C9430A405A60C046F5
:104B7000BD4602B080BDC0460058014080B500AFC0
:104B8000034B1A68C0239B0013401800BD4680BD2C
:104B90000000014080B582B000AF78600A00FB1CC5
:104BA0001A70FB1C1B78002B06D0094B084A516871
:104BB0007A680A435A6006E0054B054A52687968EC
:104BC000C9430A405A60C046BD4602B080BDC046D7
:104BD0000000014080B582B000AF0200FB1D1A70DA
:104BE000FB1D1B78002B06D0084B084A126A0121D6
:104BF0000A431A6205E0054B044A126A01218A43FE
:104C00001A62C046BD4602B080BDC04600000140E9
:104C100080B582B000AF7860074B074A126A302136
:104C20008A431A62044B044A116A7A680A431A6278
:104C3000C046BD4602B080BD0000014080B582B0D4
:104C400000AF0200FB1D1A70FB1D1B78002B07D064
:104C5000084B084A126A0221FF310A431A6205E032
:104C6000044B044A126A04490A401A62C046BD460F
:104C700002B080BD00000140FEFEFFFF80B582B0A3
:104C800000AF0200FB1D1A70FB1D1B78002B06D025
:104C9000084B084A126A08490A431A6205E0054BA4
:104CA000044A126A05490A401A62C046BD4602B06B
:104CB00080BDC0460000014001020000FEFDFFFF74
:104CC00080B582B000AF0200FB1D1A70FB1D1B787F
:104CD000002B06D0084B084A126A08490A431A6298
:104CE00005E0054B044A126A05490A401A62C046AB
:104CF000BD4602B080BDC04600000140011000006A
:104D0000FEEFFFFF80B582B000AF0200FB1D1A70FE
:104D1000FB1D1B78002B06D0084B084A126A084975
:104D20000A431A6205E0054B044A126A05490A4023
:104D30001A62C046BD4602B080BDC04600000140B8
:104D400001200000FEDFFFFF80B582B000AF02004F
:104D5000FB1D1A70FB1D1B78002B07D0084B084A5F
:104D6000126A802109060A431A6205E0044B044ACC
:104D7000126A520052081A62C046BD4602B080BD97
:104D80000000014080B500AF044B054ADA60034BD8
:104D9000044ADA60C046BD4680BDC04600200240DD
:104DA000EFCDAB890504030280B500AF074B5B680C
:104DB0000122134001D0FFF7E5FF044B034A52687C
:104DC00008210A435A60C046BD4680BD002002400B
:104DD00080B500AF044B044A526808218A435A60E8
:104DE000C046BD4680BDC0460020024080B586B0AA
:104DF00000AFF860B960FB1D1A70FFF7D5FFFB68C4
:104E0000002B00DA03339B103B613B699B003B6145
:104E10003B690421180000F033F803007B61FA6855
:104E20003B69D31ADB00FF229A401300DB431A00D0
:104E30007B691A40F9683B69CB1ADB00B968994075
:104E40000B0013437B617B69002B02D101235B4282
:104E50007B613B69084A944663447A691A60C0469C
:104E6000064B9B6901221340FAD1FFF7B1FFC04600
:104E7000BD4606B080BDC0460000080800200240C4
:104E800080B584B000AF78600A00FB1C1A70FB1C70
:104E90001B78012B13D17B68124A944663441A0095
:104EA0000F23FB1812781A700F23FB181B78FF2BA7
:104EB00001D1002312E00F23FB181B780EE0FB1C2E
:104EC0001B78022B05D17B68064A944663441B88F5
:104ED00004E07B68034A944663441B681800BD469F
:104EE00004B080BD0000080880B582B000AF7860D3
:104EF0007B68044A944663441B781800BD4602B0A0
:104F000080BDC0460000080880B582B000AFFFF742
:104F10004BFF00237B600FE07B680F4A944663449D
:104F20009B000E4A1A60C0460D4B9B69012213403C
:104F3000FAD17B6801337B607A689023FF339A4211
:104F4000EADDFFF745FF074B1800FFF7DDFAC04623
:104F5000BD4602B080BDC04600000202FEFEFEFE5D
:104F60000020024010E3000880B500AFBFF34F8F70
:104F7000024B034ADA60BFF34F8FFEE700ED00E01B
:104F80000400FA0580B500AF044B1800FFF7BCFA27
:104F9000FFF7EAFFC046BD4680BDC04634E30008C7
:104FA00080B500AF054B1800FFF7AEFAFFF7ACFF76
:104FB000FFF7E8FFC046BD4680BDC04644E3000899
:104FC00080B500AFC046BD4680BDC04680B500AFCD
:104FD000C046BD4680BDC04680B500AFC046BD4698
:104FE00080BDC04680B500AF01F082F802F020F825
:104FF00006F0B6FC06F010FCFFF70CF9FFF764F9B9
:10500000FFF79AF9FFF7D0F9FBF75CFE00F074F8B0
:10501000FCF71CFCFDF7C2FA304B1800FFF774FADE
:105020000220FBF7D5FA031E01D0FBF7E3FA2C4A66
:105030002C4800234621FEF7F1FF2B4A2948002384
:105040004621FEF7EBFF294A264800234621FEF7BA
:10505000E5FFFDF77DFC0200642353431F21180088
:1050600006F092FD03001A001E4B11001800FFF716
:1050700013F81F4A1B4800234621FEF7CFFF02F01A
:10508000A3F90200174B11001800FFF705F8194AA1
:10509000144800234621FEF7C1FF05F057FD02002A
:1050A000104B11001800FEF7F7FF0E4B07211800F8
:1050B000FBF756FF8020FBF78BFA031E03D005F0A9
:1050C00017FD00F075FCFDF761F9FDF791FA01207D
:1050D00006F08AFC06F096FCF5E7C04670E300088F
:1050E00084E30008C80800208CE30008A0E300085F
:1050F000A8E30008B0E3000880B582B000AF002349
:105100007B60FCF7F1F8031E5DD1002005F010F97B
:1051100007E0012006F068FC06F074FC7B680133B0
:105120007B60FCF7E1F8031E02D17B68132BF0DDF6
:10513000FCF7DAF8031E46D0012005F0F9F8002349
:105140007B6007E0012006F04FFC06F05BFC7B680B
:1051500001337B60FCF7C8F8031E02D07B68132B79
:10516000F0DDFCF7C1F8031E2DD1022005F0E0F8B8
:10517000052006F039FC06F045FC032005F0D8F8C0
:10518000052006F031FC06F03DFC042005F0D0F8C7
:10519000052006F029FC06F035FC002005F0E4F8B7
:1051A000012005F0E1F8022005F0DEF8032005F00B
:1051B000DBF8042005F0D8F8C046FCF795F8031E8C
:1051C000FBD000F005F8C046BD4602B080BDC04629
:1051D00080B584B000AF0920FEF752FC0300FB60ED
:1051E0000023BB60FCF77CFD0920FEF749FC0300AF
:1051F0007B60FB68002B0AD17B68002B07D0BB6863
:105200000133BB60BB68032B01DDFFF7C9FE7B6880
:10521000FB60E7E7F0B59FB002AF6F23FB180022F9
:105220001A7000233B660023FB656723FB180022EE
:105230001A706623FB1800221A700023BB660BE06D
:10524000BB6E1833D64AD15CD64ABB6ED3180A1C43
:105250001A70BB6E0133BB66BB6E0A2BF0DDD14BFF
:105260001800FDF7FFFF03001A00CF4B1A70CE4B5A
:105270001B78052B00D922E3CC4AC94B110018003A
:10528000FBF78CFFCA4B1800FFF73EF9C54B18001F
:10529000FFF73AF9C74B1800FFF736F9C24B1B78F6
:1052A0001800FFF76BFAC44B1800FFF72DF9C34B3A
:1052B0001800FFF729F9BD4B1800FFF725F9BE4B81
:1052C0001800FFF721F9A8E26723FB181A78672373
:1052D000FB1801321A70BA4B1800FFF715F91423A6
:1052E000FB181800FFF710F9B64B1800FFF70CF980
:1052F0001423FB181B78613B142B00D96BE29A0036
:10530000B14BD3181B689F461423FB185B78613B95
:10531000152B00D987E19A00AC4BD3181B689F4628
:105320001423FB18180000F0E5FA84E16F23FB1842
:1053300000221A701423FB1804211800FEF788F8C5
:1053400003003B663B6E1800FEF71CFF03000533AD
:10535000DAB21423FB1811001800FEF779F80300E5
:10536000FB650023BB66BB6E1C1D3B6E1800FEF781
:1053700009FF0300E3185C1CFB6D1800FEF702FF39
:105380000300E3185A1C5B23FB18142179188A5C6C
:105390001A705B23FB181B78302B04D05B23FB189F
:1053A0001B78312B13D16F23FB181B785B005AB28B
:1053B0005B23FB181B78303BDBB25BB213435AB262
:1053C0006F23FB181A70BB6E0133BB66CBE7C04678
:1053D0001423FB189B78303BD8B23B6E59B2FB6D5F
:1053E0005AB26F23FB181B7805F0A8F923E16F234D
:1053F000FB1800221A701423FB189B78742B17D10A
:105400001423FB18DB782F2B00D8ECE11423FB18B6
:10541000DB78392B00D9E6E11423FB18DB78303B2D
:10542000DBB21422BA1811001800FEF791FA02E15B
:105430001423FB189B782F2B00D8D4E11423FB18DE
:105440009B78392B00D9CEE10023BB66BB6E0833B5
:105450001422BA18D35C302B06D0BB6E083314224A
:10546000BA18D35C312B15D16F23FB181B785B0066
:105470005AB2BB6E083314217918CB5C303BDBB2D7
:105480005BB213435AB26F23FB181A70BB6E013321
:10549000BB66DBE7C0461423FB189B78303BDCB2CD
:1054A0001423FB181B79303BDDB21423FB189B79C6
:1054B000303BDEB2BB6EDBB20933DAB21423FB1829
:1054C00011001800FDF7C4FF0300DBB26F22BA1809
:1054D000127800931300320029002000FEF704F92F
:1054E000A9E00023BB660CE0BB6ED8B2BB6E0333F1
:1054F0001422BA18D35C190000F0BCFBBB6E013358
:10550000BB66BB6E042BEFDD95E00023BB660CE0B1
:10551000BB6ED8B2BB6E03331422BA18D35C190029
:1055200004F0B2FEBB6E0133BB66BB6E042BEFDD35
:1055300081E00120FBF7E8FA7DE00220FBF7E4FAC6
:1055400079E06F23FB1800221A7000233B660023CA
:10555000FB650023BB66BB6E03331422BA18D35C11
:10556000302B06D0BB6E03331422BA18D35C312B18
:105570002ED16F23FB181B785B005AB2BB6E03332E
:1055800014217918CB5C303BDBB25BB213435AB2C7
:105590006F23FB181A70BB6E0133BB66DBE7C04696
:1055A00058070020B8080020000000201009002043
:1055B000B8E30008D0E30008D8E30008DCE3000803
:1055C000E4E30008FCE3000844E4000898E4000871
:1055D000C046BB6EDBB20433DAB21423FB181100F1
:1055E0001800FDF735FF03003B66BB6EDCB23B6E77
:1055F0001800FEF7C7FD0300E318DBB20533DAB28B
:105600001423FB1811001800FDF722FF0300FB65AF
:105610003B6ED9B2FB6DDAB26F23FB181B78180012
:10562000FAF7D4FE07E06623FB181A786623FB1806
:1056300001321A70C046D6E0A34AA44800230D21C7
:10564000FEF7ECFCA24B1800FDF7DCFDA04A9F48DA
:105650000A230D21FEF7E2FC1423FB185B78002BD4
:1056600008D01423FB185B78303BDBB21800FBF743
:10567000BFFBBBE0FBF728F803005A425341DBB203
:105680001800FBF7B5FBB1E000F092F9AEE014238F
:10569000FB181800FEF7ACFC02006F23FB181A7011
:1056A0000023BB660CE0BB6E02331422BA18D15C37
:1056B0003A00BB6ED3180A1C1A70BB6E0133BB666E
:1056C0006F23FB181B789A1EBB6E9A42EBDCBB6EF5
:1056D00001333A000021D1547E4B1800FEF79AFEA8
:1056E0003B001800FEF796FE7B4A7C497C48052368
:1056F00000930223FDF7E6FA78E01423FB185B78A9
:10570000732B18D11423FB18DB78002B01D1FFF782
:1057100039FC1423FB1803211800FDF799FE030040
:105720001A006F23FB181A706F23FB181B781800E0
:10573000FAF73AFD5AE01423FB185B78722B0BD171
:105740001423FB1803211800FDF782FE0300DBB2CF
:105750001800FAF759FD49E06623FB181A7866230A
:10576000FB1801321A7041E01423FB185B78762B8A
:1057700012D11423FB1804211800FDF769FE030061
:105780003B661423FB189B78303BDBB23A6E11006A
:10579000180000F013FA29E06623FB181A78662334
:1057A000FB1801321A7021E01423FB185B78622B7E
:1057B0001BD11423FB189B78722B16D11423FB18D2
:1057C000DB786F2B11D11423FB181B79732B0CD1B1
:1057D000FFF7E6FB09E06623FB181A786623FB183F
:1057E00001321A7002E0C04600E0C0460023BB66EA
:1057F00010E01423FA18BB6ED3181B78002B00D1CD
:105800000BE01423FA18BB6ED31800221A70BB6E7B
:105810000133BB66BB6E452BEBDD6723FB181A78A3
:105820001423F9182F4B1800FBF7E6FC031E00D0D9
:105830004AE52020FAF7CCFE031E31D06723FA1880
:105840006623FB1812781B789A4211D0264A274803
:1058500000234621FEF7E2FB6723FB181A78662334
:10586000FB181B78D21A214B11001800FEF714FC0C
:105870006623FB181B78002B0DD01D4A1B48002304
:105880004621FEF7CBFB6623FB181A78174B110055
:105890001800FEF701FC154B07211800FBF760FB11
:1058A0000023BB6607E00F4ABB6ED31800221A70B4
:1058B000BB6E0133BB66BB6E452BF4DD00E0C0461A
:1058C000BD461DB0F0BDC04600E400085C090020E4
:1058D000B808002004E400085807002010E400087D
:1058E00014E400081009002018E40008C80800208B
:1058F0002CE4000880B588B000AF78607B68023384
:105900001B782F2B4FD97B6802331B78392B4AD851
:105910007B6802331B78303B7B610023FB610DE029
:10592000FB6907337A68D31819780823FA18FB69DA
:10593000D3180A1C1A70FB690133FB61FB69092B40
:10594000EED90823FB181800FDF72CFC7B681133F7
:105950001A001B23FB1812781A701B23FB181B78E4
:105960002F229A429B415B42DAB21B23FB18197823
:105970003920002388425B41DBB21340DBB2002BAD
:1059800006D01B23FB181B22BA181278303A1A7063
:105990007B69D8B21B23FB181A780823FB1819005F
:1059A000FDF7B0FC00E0C046BD4608B080BDC04673
:1059B00090B583B000AFFAF787FE031E01D0534ABB
:1059C00000E0534A534800234621FEF727FB524A82
:1059D000504800234621FEF721FB504A4D48002342
:1059E0004621FEF71BFB01237B6015E07B68180056
:1059F000FEF746F80300DBB2DB18DBB22D22D31A28
:105A0000DAB23B001A703A00424801234621FEF701
:105A100005FB7B6801337B607B68052BE6D93E4A3A
:105A20003C4800234621FEF7F9FA3D4A3948002355
:105A30004621FEF7F3FA01237B6008E03A0035487F
:105A400001234621FEF7EAFA7B6801337B607B681D
:105A5000052BF3D9304A2F4800234621FEF7DEFA02
:105A6000304A2C4800234621FEF7D8FA00237B60F9
:105A700025E07B68BC1C180005F07CF8030023803F
:105A8000BB1C00229A5EFA23DB019A4206D1264A09
:105A9000204800234621FEF7C1FA07E0BB1C002284
:105AA0009A5E1C4B11001800FEF7F6FA1F4A1948BF
:105AB00000234621FEF7B2FA7B6801337B6005F0D4
:105AC00045F803001A007B689A42D2D8124A11485E
:105AD00000234621FEF7A2FAFBF792F8031E06D137
