:020000040800F2
:10000000002000204D4400089D4400089D44000845
:1000100000000000000000000000000000000000E0
:100020000000000000000000000000009D440008E7
:100030009D440008000000009D4400089D44000805
:100040009D4400089D4400089D4400089D4400080C
:100050009D4400089D4400089D4400089D440008FC
:10006000000000009D4400089D4400089D440008D5
:100070009D4400089D440008000000009D440008C5
:10008000000000009D440008000000000000000087
:10009000F1010008000000009D4400089D44000894
:1000A0009D4400089D4400089D440008E53E00086A
:1000B000053F00089D44000800000000000000000B
:1000C00010B5064C2378002B07D1054B002B02D02E
:1000D000044800E000BF0123237010BDF806002093
:1000E000000000004CEA0008084B10B5002B03D0BC
:1000F0000749084800E000BF07480368002B00D10B
:1001000010BD064B002BFBD09847F9E7000000001C
:10011000FC0600204CEA0008F40600200000000065
:1001200080B582B000AF0200FB1D1A70064BFA1DAD
:10013000127811001F220A40012191400A001A6022
:10014000C046BD4602B080BD00E100E080B500AF12
:10015000104B104A926B01210A439A638023DB05FE
:100160008022D205126A10210A431A628023DB051D
:100170008022D2059269C021C9010A439A61802375
:10018000DB058022D205126801210A431A60C046AD
:10019000BD4680BD0010024080B500AF114B114A32
:1001A000526B04210A435A630F4B0F4A1268802195
:1001B0000A431A600C4B0C4AD26801210A43DA60E8
:1001C000094B6422DA62084B084A9A621420FFF74E
:1001D000A7FF054B044A126801210A431A60C04672
:1001E000BD4680BD00100240000801407F3E000077
:1001F00080B500AF334B1B68002B04D0314B1B681C
:100200005A1E304B1A6002F029F80BF0C3F90BF0BC
:100210002FFA05F0BFF900F04BFD2B4B1B78013393
:10022000DAB2294B1A70284B1B780A2B40D107F001
:1002300061FA264B1B780133DAB2244B1A70234B38
:100240001B783C2B2DD1214B00221A70204B1B78A0
:100250000133DAB21E4B1A701D4B1B783C2B20D198
:100260000AF042FC0AF028FC194B00221A70194BC4
:100270001B780133DAB2174B1A70164B1B78182B08
:100280000FD1144B00221A70134B1B8801339AB202
:10029000114B1A80104B1B881E2B02D10E4B0022D3
:1002A0001A80094B00221A7001F01EFE0BF00AFAA8
:1002B0000A4B0A4A126901218A431A61C046BD46A7
:1002C00080BDC046600900201507002016070020E9
:1002D00017070020180700201A0700200008014017
:1002E00080B500AF084B084A926B10210A439A630D
:1002F000064B064A126808210A431A60034B0F2274
:100300009A62C046BD4680BD001002400010004009
:1003100080B582B000AF78600B4B7A68DA620A4B26
:10032000094A526901210A435A61074B1B69064B6E
:1003300000221A61044B044A126801210A431A6020
:10034000C046BD4602B080BD0010004080B500AF81
:10035000C046044B1B6901221340FAD0C046BD467B
:1003600080BDC0460010004080B582B000AF78600C
:10037000034B7A681A60C046BD4602B080BDC046D5
:100380006009002080B500AFC046034B1B68002BFE
:10039000FBD1C046BD4680BD6009002080B500AFDE
:1003A000064B064A526901210A435A61034B1B69F5
:1003B000024B00221A61C046BD4680BD00100040BD
:1003C00080B582B000AF0200FB1D1A70FB1D1B78C8
:1003D000642B02D9FB1D64221A708023DB05FA1DF1
:1003E000127803494A439A63C046BD4602B080BDB5
:1003F0008F02000080B586B000AF786039600023BE
:10040000FB600023BB6000233B6100237B6151E163
:1004100001227B699A401300FB603B681B68FA6805
:100420001340BB60BA68FB689A4200D03FE13B686A
:100430005B68022B03D03B685B68122B23D17B697E
:10044000DA087B6808329200D3583B617B69072247
:1004500013409B000F229A401300DA433B6913407C
:100460003B613B681A697B6907210B409B009A40FE
:1004700013003A6913433B617B69DA087B680832F1
:1004800092003969D1503B685B68012B0BD03B6807
:100490005B68022B07D03B685B68112B03D03B687D
:1004A0005B68122B30D17B689B683B617B695B008A
:1004B00003229A401300DA433B6913403B613B68D7
:1004C000DA687B695B009A4013003A6913433B6129
:1004D0007B683A699A607B685B683B6101227B6953
:1004E0009A401300DA433B6913403B613B685B6809
:1004F0001B0901221A407B699A4013003A69134391
:100500003B617B683A695A607B681B683B617B6929
:100510005B0003229A401300DA433B6913403B61BE
:100520003B685B6803221A407B695B009A401300BA
:100530003A6913433B617B683A691A607B68DB6800
:100540003B617B695B0003229A401300DA433B69FD
:1005500013403B613B689A687B695B009A401300DB
:100560003A6913433B617B683A69DA603B685A68D1
:1005700080235B05134000D199E0524B514A526BE6
:1005800001210A435A63504A7B699B0802339B004E
:100590009B583B617B69032213409B00102252420F
:1005A0009A403B6913403B617A68A023DB059A427D
:1005B00019D07B68454A934213D07B68444A9342E2
:1005C0000DD07B68434A934207D07B68424A9342EE
:1005D00001D1042308E0052306E0032304E00223FD
:1005E00002E0012300E000237A6903210A4092001F
:1005F00093403A6913433B6133497B699B0802335B
:100600009B003A695A50354B1B683B61BB68DA4323
:100610003B6913403B613B685A6880235B0213408F
:1006200003D03A69BB6813433B612C4B3A691A60AB
:100630002A4B5B683B61BB68DA433B6913403B6113
:100640003B685A6880239B02134003D03A69BB6819
:1006500013433B61214B3A695A60204B9B683B61D5
:10066000BB68DA433B6913403B613B685A688023AF
:100670005B03134003D03A69BB6813433B61174BDC
:100680003A699A60154BDB683B61BB68DA433B69AA
:1006900013403B613B685A6880239B03134003D09F
:1006A0003A69BB6813433B610C4B3A69DA607B697A
:1006B00001337B617B690F2B00D8A9E6C046BD469C
:1006C00006B080BD00100240000001400004005050
:1006D00000080050000C0050001C005000040140B5
:1006E00080B586B000AF7860396000233B6100239D
:1006F000FB600023BB6000237B6182E001227B69F9
:100700009A4013003B613B683A691340FB60FA680A
:100710003B699A4272D17B681B687A695200032157
:1007200091400A00D2431A407B681A607B69DA085C
:100730007B69D9087B6808318900CB587969072023
:10074000014089000F2088400100C94319407B689F
:1007500008329200D1507B689B687A69520003216D
:1007600091400A00D2431A407B689A607B685B68BC
:1007700001217A6991400A00D2431A407B685A608D
:100780007B68DB687A695200032191400A00D243FA
:100790001A407B68DA607B69032213409B000F22BA
:1007A0009A401300BB601B487B699B0819497A6912
:1007B0009208023292005258B968C9430A40023383
:1007C0009B001A50144B144A1268F968C9430A4036
:1007D0001A60114B104A5268F968C9430A405A60BE
:1007E0000D4B0D4A9268F968C9430A409A600A4B5A
:1007F000094AD268F968C9430A40DA607B69013363
:100800007B617B690F2B00D878E7C046BD4606B0F8
:1008100080BDC046000001400004014080B584B0A6
:1008200000AF78600A00BB1C1A807B681B69BA1C89
:100830001288134004D00F23FB1801221A7003E022
:100840000F23FB1800221A700F23FB181B781800C7
:10085000BD4604B080BDC04680B582B000AF7860B0
:1008600008001100BB1C021C1A807B1C0A1C1A7099
:100870007B1C1B78002B04D0BB1C1A887B689A61F8
:1008800003E0BB1C1A887B689A62C046BD4602B072
:1008900080BDC04680B582B000AF78600A00BB1C46
:1008A0001A807B685A69BB1C1B885A407B685A6156
:1008B000C046BD4602B080BD80B584B000AF786050
:1008C0000A00BB1C1A8080235B02FB60BB1C1A88D9
:1008D000FB681343FB60FA687B68DA61BB1C1A880B
:1008E0007B68DA61FA687B68DA617B68DB69FB60E8
:1008F0007B68DA6980235B02134001D0002300E0AB
:1009000001231800BD4604B080BDC04680B582B04A
:1009100000AF0200BB1D1A80094B5B69BA1D12882B
:10092000134008D0064BBA1D12885A61BB1D1B88A4
:10093000180000F007F8C046BD4602B080BDC046B2
:100940000004014080B582B000AF0200BB1D1A80D8
:10095000C046BD4602B080BD80B584B000AF012165
:10096000E62000F043FE0200FB1D1A70FB1D1B7801
:10097000FE2B03D03F4BFA1D12781A700023FB6048
:100980006DE00023BB6018E0FB68DB00A6331A00B3
:10099000BB68D318180000F05DFE0300180036494C
:1009A000FA681300DB009B1A5B00CA18BB68D318F7
:1009B000021C1A70BB680133BB60BB68072BE3DD08
:1009C000FB68E8330121180000F010FE0200FB1D57
:1009D0001A70FB1D1B78FE2B0CD0FB1D0020185637
:1009E0002549FA681300DB009B1A5B00CB180B3318
:1009F000021C1A70FB68F0330121180000F0F6FDAC
:100A00000200FB1D1A70FB1D1B78FE2B0CD0FB1D7A
:100A1000002018561849FA681300DB009B1A5B0087
:100A2000CB180A33021C1A70FB68F8330121180036
:100A300000F0DCFD0200FB1D1A70FB1D1B78FE2B75
:100A40000AD00D49FA681300DB009B1A5B00CB1833
:100A50000D33FA1D12781A70FB680133FB60054BE9
:100A60001B781A00FB689A428BDCC046BD4604B076
:100A700080BDC0461C07002000000020B0B582B039
:100A800000AF05000C0010001900FB1D2A1C1A7095
:100A9000BB1D221C1A707B1D021C1A703B1D0A1CF8
:100AA0001A70FB1D1A78FB1D013A1A7000F0EEF95E
:100AB00003001A00FB1D1B78934200D9C1E0FB1D07
:100AC0001A7862491300DB009B1A5B00CB180B33CA
:100AD000BA1D12781A70FB1D1B78E8331800FB1D35
:100AE0001A785A491300DB009B1A5B00CB180B33B2
:100AF0001B785BB20122190000F02EFDFB1D1A7855
:100B000052491300DB009B1A5B00CB180A337A1D95
:100B100012781A70FB1D1B78F0331800FB1D1A7831
:100B20004A491300DB009B1A5B00CB180A331B7881
:100B30005BB20122190000F00FFDFB1D1A7843493A
:100B40001300DB009B1A5B00CB180D333A1D1278A3
:100B50001A70FB1D1B78F8331800FB1D1A783B49EF
:100B60001300DB009B1A5B00CB180D331B780122AE
:100B7000190000F0F1FC364B180003F097F9FB1D4B
:100B80001B78180003F0CCFA324B180003F08EF9F2
:100B9000BB1D1B785BB2180003F0C2FA2E4B180085
:100BA00003F084F97B1D1B785BB2180003F0B8FAE0
:100BB0002A4B180003F07AF9FB1D1B78012118005D
:100BC00000F058F8031E04D0254B180003F06EF90E
:100BD00003E0244B180003F069F9234B180003F0DD
:100BE00065F9FB1D1B780221180000F043F8031E75
:100BF00004D01B4B180003F059F903E0194B1800FF
:100C000003F054F9194B180003F050F9FB1D1B7841
:100C10000421180000F02EF8031E04D0104B180019
:100C200003F044F903E00F4B180003F03FF93B1DBC
:100C30001B78180003F074FA0D4B180003F036F916
:100C400000E0C046BD4602B0B0BDC0460000002076
:100C50001CDD000840DD000848DD000850DD00080C
:100C60005CDD000864DD00086CDD00087CDD000848
:100C700088DD000880B582B000AF0200FB1D1A704D
:100C8000BB1D0A1C1A70FB1D1A7808491300DB00F3
:100C90009B1A5B00CB180D331B78BA1D12781340DA
:100CA000DBB21800BD4602B080BDC0460000002087
:100CB00080B500AF064B1B78002B05D0044B1B788A
:100CC000013BDAB2024B1A70C046BD4680BDC04639
:100CD0001D07002080B584B000AF7860274B1B78DB
:100CE000072B46D8042004F05DFB254B180003F0C9
:100CF000DDF8224B1B78180003F012FA214B180084
:100D000003F0D4F81D4B1B780133DAB21B4B1A7079
:100D10001A4B1B7801221900E62000F01DFC00236D
:100D2000FB6023E0154B1B785A1EFB687968CB18D3
:100D3000187815491300DB009B1A5B00CA18FB6882
:100D4000D318021C1A700D4B1B78013BDB00A63335
:100D50001A00FB68D018FB687A68D3181B78012248
:100D6000190000F0F9FBFB680133FB60FB68072BFF
:100D7000D8DDC046BD4604B080BDC0461C0700207B
:100D800090DD0008A4DD00080000002090B585B0CB
:100D900000AF78600F23FB1800221A703CE00D238F
:100DA000FB1801221A700E23FB1800221A7020E093
:100DB0000E23FB181B787A68D31819780F23FB18B9
:100DC0001A780E23FB181878184C1300DB009B1AB6
:100DD0005B00E3181B5C994204D00D23FB18002232
:100DE0001A700BE00E23FB181A780E23FB18013241
:100DF0001A700E23FB181B78072BD9D90D23FB186B
:100E00001B78002B01D001230CE00F23FB181A786C
:100E10000F23FB1801321A700F23FB181B78072BC6
:100E2000BDD900231800BD4605B090BD00000020CC
:100E300080B582B000AF00237B6018E07A681300B1
:100E4000DB009B1A5B000F4A9B18180004F02AFF76
:100E5000030018B20B497A681300DB009B1A5B0091
:100E6000CB180833021C1A807B6801337B60064B69
:100E70001B781A007B689A42E0DCC046BD4602B08F
:100E800080BDC046000000201C07002080B500AFD8
:100E9000024B1B781800BD4680BDC0461C070020D1
:100EA00080B500AF024B1B781800BD4680BDC04620
:100EB0001E07002080B582B000AF786006497A68CE
:100EC0001300DB009B1A5B00CB18083300229B5EEB
:100ED0001800BD4602B080BD0000002090B585B06E
:100EE00000AFD34B1B78002B00D1D5E2D14B1B7840
:100EF000002B0CD1D04B1B78002B08D104F0BCFE8A
:100F0000CD4B01221A70CB4B08221A70C7E2C94B95
:100F10001B78002B00D0C1E2C64B32221A70C64BA0
:100F200000221A700023FB60B1E2C449FA68130082
:100F3000DB009B1A5B005B5C282B12D0BF49FA6870
:100F40001300DB009B1A5B005B5C222B09D0BB49C2
:100F5000FA681300DB009B1A5B005B5C102B00D06F
:100F600092E2FA681300DB009B1A5B00B34A9B18FD
:100F7000180004F097FE030018B2B049FA68130095
:100F8000DB009B1A5B00CB180833021C1A80AC4BA9
:100F9000180002F08BFFFB1D00221A7036E0FB1DCB
:100FA0001878B91DA54CFA681300DB009B1A5B008A
:100FB000E3181B5C0B70BB1D1B781B09DBB21A000E
:100FC000BB1D1B781B09DBB2092B01D9372300E0BD
:100FD0003023D318180002F053FFBB1D1B780F22DB
:100FE0001A40BB1D1B780F210B40092B01DD372355
:100FF00000E03023D318180002F042FF202002F056
:101000003FFFFB1D1A78FB1D01321A70FB1D1B7878
:10101000072BC4D98B4B180002F048FF8749FA68A8
:101020001300DB009B1A5B00CB18083300229A5E8A
:10103000FA23DB019A4204D1834B180002F036FFF9
:101040000CE07E49FA681300DB009B1A5B00CB18AA
:10105000083300229B5E180003F062F87B4B1800F7
:1010600002F024FF7549FA681300DB009B1A5B004D
:10107000CB18083300229A5EFA23DB019A4200D192
:1010800002E26E49FA681300DB009B1A5B00CB1882
:1010900008330021595E6948FA681300DB009B1A87
:1010A0005B00C3180A331B785BB21BB2994217DC92
:1010B0006249FA681300DB009B1A5B00CB18083307
:1010C0000021595E5D48FA681300DB009B1A5B0043
:1010D000C3180B331B785BB21BB2994200DB1BE1D8
:1010E0005649FA681300DB009B1A5B00CB180C33DF
:1010F0001B78002B00D0C6E1FB68DBB20221180090
:10110000FFF7B8FD031E2BD00323BB6025E0FB686F
:10111000D8B20122BB689A401300DBB21900FFF776
:10112000A9FD031E16D0FB68DBB204211800FFF7EF
:10113000A1FD031E07D0BB68033B002264211800F9
:1011400006F0A2FC06E0BB68033B01226421180004
:1011500006F09AFCBB680133BB60BB68072BD6DD89
:101160003649FA681300DB009B1A5B00CB18083382
:101170000021595E3148FA681300DB009B1A5B00BE
:10118000C3180A331B785BB21BB299420EDD2B49A0
:10119000FA681300DB009B1A5B00CB180C330122AA
:1011A0001A702B4B180002F081FE0DE02349FA68FB
:1011B0001300DB009B1A5B00CB180C3302221A7061
:1011C000244B180002F072FEFB68DBB2012118000C
:1011D000FFF750FD031E00D155E11F4A1F480023B1
:1011E000462102F061F8FB685A1C1C4B11001800E4
:1011F00002F098F81149FA681300DB009B1A5B00B3
:10120000CB1808330021595E0C48FA681300DB0044
:101210009B1A5B00C3180A331B785BB21BB299425E
:1012200020DD0F4A0D480023462102F03DF81FE063
:101230001C0700201D0700201E07002000000020C2
:10124000A8DD0008B4DD0008BCDD0008D0DD000822
:10125000D4DD0008E4DD0008F4DD0008BC0800204F
:101260000CDE00088F4A90480023462102F01CF84B
:101270008E4A8D480023462102F016F88C49FA6800
:101280001300DB009B1A5B00CB18083300229B5E27
:101290001A00854B1100180002F044F8854A824874
:1012A0000023462102F000F8834A7F4800234621AC
:1012B00001F0FAFF7E49FA681300DB009B1A5B001D
:1012C000CB180B331B785BB21A00774B1100180058
:1012D00002F028F8774A74480023462101F0E4FF21
:1012E000764A71480023462101F0DEFF7049FA6812
:1012F0001300DB009B1A5B00CB180A331B785BB230
:101300001A00694B1100180002F00CF8664B0A2114
:10131000180006F019FCB6E06549FA681300DB0016
:101320009B1A5B00CB180C331B78002B00D1ABE071
:10133000FB68DBB202211800FFF79CFC031E2BD0D8
:101340000323BB6025E0FB68D8B20122BB689A404A
:101350001300DBB21900FFF78DFC031E16D0FB68EB
:10136000DBB204211800FFF785FC031E07D0BB6821
:10137000033B01226421180006F086FB06E0BB68EF
:10138000033B00226421180006F07EFBBB6801339A
:10139000BB60BB68072BD6DDFB68DBB20121180000
:1013A000FFF768FC031E5FD0454A3F4800234621F3
:1013B00001F07AFFFB685A1C3B4B1100180001F04A
:1013C000B1FF404A38480023462101F06DFF3849FB
:1013D000FA681300DB009B1A5B00CB18083300226D
:1013E0009B5E1A00304B1100180001F09BFF314A40
:1013F0002D480023462101F057FF2F4A2A48002399
:10140000462101F051FF2A49FA681300DB009B1ABC
:101410005B00CB180B331B785BB21A00224B110018
:10142000180001F07FFF234A1F480023462101F0E6
:101430003BFF224A1C480023462101F035FF1C498E
:10144000FA681300DB009B1A5B00CB180A331B7889
:101450005BB21A00144B1100180001F063FF124B2D
:101460000A21180006F070FB1149FA681300DB002E
:101470009B1A5B00CB180C3300221A70124B180019
:1014800002F014FD00E0C046FB680133FB60FB681E
:10149000072B00DC49E502E0C04600E0C046BD463F
:1014A00005B090BD14DE0008BC0800201CDE00085A
:1014B0000000002028DE00082CDE000834DE0008D2
:1014C000F4DD00083CDE000848DE000880B500AF0F
:1014D0000AF072F80AF024F9FFF700FD00F00CFCA6
:1014E00009F078FE09F016FBC046BD4680BDC04637
:1014F00080B500AF044B054ADA60034B044ADA605A
:10150000C046BD4680BDC04600200240EFCDAB893D
:101510000504030280B500AF074B5B68012213404E
:1015200001D0FFF7E5FF044B034A526808210A4344
:101530005A60C046BD4680BD0020024080B500AF65
:10154000044B044A526808218A435A60C046BD468B
:1015500080BDC0460020024080B586B000AFF86074
:10156000B960FB1D1A70FFF7D5FFFB68002B00DA8E
:1015700003339B103B613B699B003B613B6904214A
:10158000180000F033F803007B61FA683B69D31A56
:10159000DB00FF229A401300DB431A007B691A40EC
:1015A000F9683B69CB1ADB00B96899400B0013431B
:1015B0007B617B69002B02D101235B427B613B692C
:1015C000084A944663447A691A60C046064B9B6990
:1015D00001221340FAD1FFF7B1FFC046BD4606B065
:1015E00080BDC046000008080020024080B584B0DD
:1015F00000AF78600A00FB1C1A70FB1C1B78012BE3
:1016000013D17B68124A944663441A000F23FB18D7
:1016100012781A700F23FB181B78FF2B01D10023BF
:1016200012E00F23FB181B780EE0FB1C1B78022B2B
:1016300005D17B68064A944663441B8804E07B68B6
:10164000034A944663441B681800BD4604B080BD3D
:101650000000080880B582B000AF78607B68044A5B
:10166000944663441B781800BD4602B080BDC04656
:101670000000080880B582B000AFFFF74BFF0023E1
:101680007B600FE07B680F4A944663449B000E4AE0
:101690001A60C0460D4B9B6901221340FAD17B684A
:1016A00001337B607A689023FF339A42EADDFFF7CB
:1016B00045FF074B180002F0F9FBC046BD4602B0DB
:1016C00080BDC04600000202FEFEFEFE0020024079
:1016D0005CDE000880B584B000AF0023FB60ADE0A5
:1016E000FB680A33FF3301211800FFF77FFF020078
:1016F000FB1D1A70FB1D1B78FE2B0AD05349FA689C
:101700001300DB009B189B00CB180733FA1D1278DF
:101710001A70FB680133FF3301211800FFF766FFE1
:101720000200FB1D1A70FB1D1B78FE2B0AD04749D7
:10173000FA681300DB009B189B00CB180833FA1DD6
:1017400012781A70FB681333FF3301211800FFF77A
:101750004DFF0200FB1D1A70FB1D1B78FE2B0AD0EB
:101760003A49FA681300DB009B189B00CB1806333C
:10177000FA1D12781A70FB681C33FF330121180020
:10178000FFF734FF0200FB1D1A70FB1D1B78FE2BB8
:101790000AD02E49FA681300DB009B189B00CB1877
:1017A0000933FA1D12781A702849FA681300DB0011
:1017B0009B189B00CB180A33012252421A80002347
:1017C000BB6033E0BB682533FF331900FA681300B0
:1017D0001B019B1ACB1801211800FFF707FF02001D
:1017E000FB1D1A70FB1D1B78FE2B0FD1BB68002B55
:1017F00020D01649FA681300DB009B189B00CA181A
:10180000BB68D318123300221A7013E00F49FA682C
:101810001300DB009B189B00CA18BB68D318123357
:10182000FA1D12781A70BB680133BB60BB680E2BBF
:10183000C8DD00E0C046FB680133FB60FB68082B95
:1018400000DC4DE7C046BD4604B080BD70000020FE
:10185000B0B582B000AF05000C0010001900FB1DF0
:101860002A1C1A70BB1D221C1A707B1D021C1A70C8
:101870003B1D0A1C1A70FB1D1A78FB1D013A1A70D9
:10188000FB1D1B78092B00D9F8E0FB1D1A787D4958
:101890001300DB009B189B00CB1807337A1D1278CE
:1018A0001A70FB1D1B780A33FF331800FB1D1A78D2
:1018B00074491300DB009B189B00CB1807331B787F
:1018C00001221900FFF748FEFB1D1A786D4913002D
:1018D000DB009B189B00CB180833BA1D12781A70D6
:1018E000FB1D1B78581CFF30FB1D1A78654913003F
:1018F000DB009B189B00CB1808331B7801221900D2
:10190000FFF72AFEFB1D1A785E491300DB009B18C7
:101910009B00CB1806333A1D12781A70FB1D1B78FA
:101920001333FF331800FB1D1A7856491300DB00F0
:101930009B189B00CB1806331B7801221900FFF778
:101940000BFEFB1D1A784F491300DB009B189B0010
:10195000CB1809331822BA1812781A70FB1D1B789D
:101960001C33FF331800FB1D1A7846491300DB00B7
:101970009B189B00CB1809331B7801221900FFF735
:10198000EBFD414B180002F091FAFB1D1B7801336F
:10199000180002F0C5FB3D4B180002F087FAFB1D52
:1019A0001A7838491300DB009B189B00CB180833CA
:1019B0001B78180002F0B4FB354B180002F076FAE1
:1019C000FB1D1A782F491300DB009B189B00CB18D6
:1019D00007331B78180002F0A3FB2E4B180002F00F
:1019E00065FAFB1D1B780121180000F03FFB031E68
:1019F00004D0294B180002F059FA03E0274B1800D5
:101A000002F054FA264B180002F050FAFB1D1B7826
:101A10000221180000F02AFB031E04D01E4B180000
:101A200002F044FA03E01D4B180002F03FFA1D4B90
:101A3000180002F03BFAFB1D1B780421180000F08F
:101A400015FB031E04D0144B180002F02FFA03E01C
:101A5000124B180002F02AFA134B180002F026FA73
:101A6000FB1D1A7807491300DB009B189B00CB185D
:101A700009331B78180002F053FB00E0C046BD4656
:101A800002B0B0BD7000002080DE0008A4DE0008B7
:101A9000ACDE0008B4DE0008C4DE0008C8DE0008C2
:101AA000CCDE0008E4DE0008F8DE000880B584B073
:101AB00000AF02003960FB1D1A70FB1D1A78FB1D78
:101AC000013A1A70FB1D1B78092B00D97AE000231C
:101AD000FB6054E0FB6805331A003B689B181B78D9
:101AE000002B1CD1FB1D1A7838491300DB009B1812
:101AF0009B00CA18FB68D318123300221A70FB1D12
:101B00001A7813001B019B1A2533FF331A00FB6858
:101B1000D3180122FE211800FFF71EFD32E0FB1D45
:101B20001A78FB68053319003B685B181878274959
:101B30001300DB009B189B00CA18FB68D3181233F4
:101B4000021C1A70FB1D1A7813001B019B1A253307
:101B5000FF331A00FB68D018FB1D1A781B491300CD
:101B6000DB009B189B00CA18FB68D31812331B7844
:101B700001221900FFF7F0FCFB680133FB60FB68F2
:101B80000E2BA7DD124B180002F090F9FB1D1B78FD
:101B9000180002F0C5FA0F4B180002F087F9FB1D80
:101BA0001A781300DB009B189B0010331A00074BB8
:101BB000D3180233180002F079F9074B180002F02D
:101BC00075F900E0C046BD4604B080BD700000203D
:101BD0000CDF000828DF000830DF000890B585B072
:101BE00000AF78607B68052B5BDC7B685A1E404940
:101BF0001300DB009B189B00CB180C331B681800EC
:101C000003F06CFD0300FB607B685A1E384913002B
:101C1000DB009B189B00CB1807331B781A00962318
:101C20005B005343334A12785343642118000AF08F
:101C300079F803001A00FB689A421BD97B685A1E88
:101C40002B491300DB009B189B00CB1808331B7833
:101C50001A0096235B005343264A127853436421AB
:101C600018000AF05FF803001A00FB689A4201D2DC
:101C7000012300E000231A1C01231340DCB27B681F
:101C8000013B0421180000F0F1F903005A425341CE
:101C9000DBB26340DBB2002B01D0012324E0002340
:101CA00022E07B685A1E12491300DB009B189B0040
:101CB0005B5819697B685A1E0D481300DB009B189E
:101CC0009B00C31804331B880B405A425341DCB2BB
:101CD0007B68013B0421180000F0C8F903005A1E7C
:101CE0009341DBB26340DBB21800BD4605B090BD46
:101CF00070000020AF02002080B582B000AF09F074
:101D000069FA00237B60DAE07B6801331800FFF793
:101D100065FF031E00D180E06E497A681300DB0086
:101D20009B189B00CB1810331B78002B00D0AAE027
:101D3000694B180002F0BAF87B68180002F0F0F95D
:101D4000664B180002F0B2F87B68DBB20133DBB2FD
:101D5000180009F017FA5F497A681300DB009B1836
:101D60009B00CB1810331B78002B4BD17B680221D2
:101D7000180000F07BF9031E07D009F06BF9031E71
:101D800000D0A1E009F016F99EE009F063F9031E06
:101D900006D17B680121180000F068F9031E31D0DC
:101DA0004C497A681300DB009B189B00CB18113359
:101DB0001B78002B26D17B68DAB2494B1A70454953
:101DC0007A681300DB009B189B00CB1809331B7843
:101DD0009BB21A1C9200D3189BB218B23D497A6884
:101DE0001300DB009B189B00CB180A33021C1A80DF
:101DF00038497A681300DB009B189B00CB1811331D
:101E000001221A7033497A681300DB009B189B008B
:101E1000CB18103301221A7035E02E497A6813006E
:101E2000DB009B189B00CB1810331B78002B2AD0AB
:101E300028497A681300DB009B189B00CB181033ED
:101E400000221A707B68DBB20133DBB2180009F0A4
:101E5000ADF97B680221180000F008F9031E06D0D6
:101E600009F0F8F8031E31D009F0D0F82EE01A4B33
:101E7000180002F01BF87B68180002F051F9194BAA
:101E8000180002F013F813497A681300DB009B185E
:101E90009B00CB180A3300229B5E002B0CD10D490E
:101EA0007A681300DB009B189B00CB180A330122D1
:101EB00052421A8009F010F97B6801337B607B681D
:101EC000082B00DC20E702E0C04600E0C046BD462B
:101ED00002B080BD7000002034DF000840DF000841
:101EE0001F0700204CDF000880B582B000AF002340
:101EF0007B6040E023497A681300DB009B189B005D
:101F0000CB180A3300229B5E002B31DD1E4B1800DC
:101F100001F0CCFF7B680133180002F001F91B4B84
:101F2000180001F0C3FF17497A681300DB009B1803
:101F30009B00CB180A3300229B5E180002F0F0F8D9
:101F400010497A681300DB009B189B00CB180A33FA
:101F500000229B5E9BB2013B9BB218B209497A6892
:101F60001300DB009B189B00CB180A33021C1A805D
:101F70007B6801337B607B68082BBBDDC046BD46B8
:101F800002B080BD7000002058DF000864DF000848
:101F900080B582B000AF00237B600CE00D497A6809
:101FA0001300DB009B189B00CB18113300221A7022
:101FB0007B6801337B607B68082BEFDD064B0022DA
:101FC0001A70064B012252421A80C046BD4602B02A
:101FD00080BDC046700000201F070020B401002013
:101FE00080B500AF024B1B781800BD4680BDC046CF
:101FF0001F07002080B584B000AF786039607B682F
:10200000180001F03BF90300BB600023FB6021E0F6
:1020100015493A681300DB009B189B00CA18FB683F
:10202000D31812331B78002B18D0BA68FB68D3186A
:102030001A007B6899180C483A681300DB009B185B
:102040009B00C218FB68D31812331B780B70FB6817
:102050000133FB60FB68452BDADD00E0C046C0467B
:10206000BD4604B080BDC0467000002080B582B07F
:1020700000AF7860396009497A681300DB009B186B
:102080009B00CB1806331B785BB23A6852B2134000
:102090005BB2DBB21800BD4602B080BD700000200C
:1020A00080B582B000AF00233B60C8E03B683533A9
:1020B00001211800FFF79AFA0300D8B264493A6880
:1020C00013005B009B189B00CB180B33021C1A708B
:1020D0005F493A6813005B009B189B00CB180B33D9
:1020E0001B78FE2B00D19DE000237B6056E03A6810
:1020F00013009B009B185B00DA1C7B68D31801213E
:102100001800FFF773FA0300D8B251493A68130078
:102110005B009B189B00CA187B68D318021C1A70BE
:102120004B493A6813005B009B189B00CA187B68F8
:10213000D3181B782F2B0BD945493A6813005B0045
:102140009B189B00CA187B68D3181B78392B01D9C0
:10215000012300E000231A1C01231340D9B23C489C
:102160003A6813005B009B189B00C2187B68D31869
:102170001B78463B5A1E9341DBB20B40DBB2002B6F
:1021800009D033493A6813005B009B189B00CB18B9
:102190000B3300221A707B6801337B607B68092B4C
:1021A000A5DD2B493A6813005B009B189B00CB18F8
:1021B0000A3300221A70274B180001F077FE3A68A4
:1021C00013005B009B189B00214A9B18180001F02C
:1021D0006DFE214B180001F069FE1D493A6813009D
:1021E0005B009B189B00CB180B331B78092B0CD87A
:1021F00017493A6813005B009B189B00CB180B3300
:102200001B78180001F08CFF16E011493A681300A2
:102210005B009B189B00CB180B331B78180001F058
:102220002FFE09E00A493A6813005B009B189B00E7
:10223000CB180B3300221A703B6801333B603B68BC
:10224000042B00DC32E7C046BD4602B080BDC0466C
:10225000B801002078DF000888DF000880B500AFF3
:10226000064B1B78002B05D0044B1B78013BDAB2E0
:10227000024B1A70C046BD4680BDC04631070020E3
:1022800080B500AF0F4B1B68042B0FD10E4B1B68A2
:10229000012B0BDD002009F07BFA031E0ED10B4A47
:1022A0000B4B1100180005F095FC07E000F012F848
:1022B0000420FEF759F8FEF765F8E3E7C046BD468F
:1022C00080BDC046240700206409002090DF00087C
:1022D00098DF000880B500AF00F084F91E4B1B7832
:1022E000002B33D11C4B1E221A701C4B1B68002B79
:1022F0002FD11B4B1B68072B2BD89A00194BD318D7
:102300001B689F46022202216D2003F0CFF800F0E7
:102310002DF81EE000F0BAF81BE000F0B7F818E066
:10232000114B1B78002B13D100F04CFB03001A005B
:102330000D4B1A700C4B1B78002B09D0084B042254
:102340001A6005E000F0B2F8C04602E0C04600E0C6
:10235000C046BD4680BDC046310700202007002092
:1023600024070020A4DF00083007002080B582B0D9
:1023700002AF1A4B180001F099FD194B00221A7098
:1023800000F030F922E0174B802292049A610A2073
:10239000FDF7EAFFFDF7F6FF124B802292009A61EB
:1023A0001420FDF7E1FFFDF7EDFF0F4A0F4910483C
:1023B0001E2300930A2300F0C3FA031E06D00D4B20
:1023C000180001F073FD0C4B01221A600A4B1B68C8
:1023D000002BD8D0C046BD4680BDC046C4DF000833
:1023E00030070020000400505C070020D4DF000804
:1023F000D8DF0008DCDF00082407002080B582B0A9
:1024000002AF1A4B180001F051FD194B00221A605F
:1024100000F0E8F822E0174B802292049A610A202B
:10242000FDF7A2FFFDF7AEFF124B802292009A61EA
:102430001420FDF799FFFDF7A5FF0F4A0F4910483B
:1024400010230093022300F07BFA031E06D10D4BEC
:10245000180001F02BFD0C4B07221A600A4B1B6879
:10246000072BD8D1C046BD4680BDC046ECDF000872
:102470002C070020000400505C070020D4DF000877
:10248000D8DF0008FCDF00082407002080B500AF7B
:10249000044B14221A70044B180001F08DFCC04646
:1024A000BD4680BD3107002010E0000880B500AFB8
:1024B000044B14221A70044B180001F07DFCC04636
:1024C000BD4680BD310700201CE0000880B582B009
:1024D00000AF00237B6000F011FA3E4B1A683E4BC0
:1024E0001B689A4200D168E03A4B1B68013B3B4AAB
:1024F000D35C3E2B0BD1374B1B68384AD35C202B67
:1025000005D1344B1B685A1C324B1A6056E0314BD4
:102510001B68324AD35C0A2B19D02E4B1B682F4AFA
:10252000D35C0D2B20D112E02A4B1B682B4A0021D3
:10253000D154284B1B685A1C264B1A60254B1A682D
:10254000FA239B009A4202D1224B00221A60214BAF
:102550001B68224AD35C0D2BE6D01E4B1B681F4A1A
:10256000D35C0A2BE0D029E01A4B1B68013B1B4AC5
:10257000D35C0A2B22D0174B1B68013B174AD35C54
:102580000D2B1BD0134B1B68144AD15C144A7B687B
:10259000D3180A1C1A700F4B1B685A1C0D4B1A607B
:1025A0000C4B1A68FA239B009A4202D1094B002275
:1025B0001A607B6801337B608FE7C046084B1B784D
:1025C000002B01D0012300E000231800BD4602B01B
:1025D00080BDC04628070020380700206C09002075
:1025E0005C07002080B500AF01E000F013F8FFF7B2
:1025F0006DFF031EF9D100231800BD4680BDC04603
:1026000080B500AF024B1B681800BD4680BDC046B8
:102610006409002080B582B000AF00237B60944A3B
:10262000944B1100180000F0D9FD031E04D005F0F2
:102630005DFA03237B600BE18D4A8F4B110018007C
:1026400000F0CCFD031E02D001237B6000E1884A2C
:102650008A4B1100180000F0C1FD031E02D00223B6
:102660007B60F5E0824A864B1100180000F0B6FD51
:10267000031E37D07E4BDB792C2B06D17C4B9B790C
:10268000303B1A007F4B1A600EE0794B9B79303B50
:102690001A0013009B009B185B001A00744BDB7937
:1026A000303BD218774B1A60774B180001F0FEFBD5
:1026B000744B1B68180001F033FD744BDB7A002B60
:1026C00000D1C5E06F4B1B681F2B03DC6D4B1B68F3
:1026D000052B03DC6D2008F069FDB9E06D2008F0E2
:1026E00051FDB5E0624A6A4B1100180000F076FD1A
:1026F000031E18D05E4A674B1100180000F06EFDF3
:102700005B4A654B1100180000F068FD031E00D104
:102710009EE0624B180001F0C9FB614B02221A6077
:1027200004237B6094E0524A5E4B1100180000F0D5
:1027300055FD031E16D04E4B180000F09FFD030000
:102740000F2B0BD9584B180001F0B0FB484B180069
:1027500001F0ACFB524B05221A6079E0504B03228A
:102760001A6075E0424A514B1100180000F036FD26
:10277000031E0BD04E4B180001F098FB4D4B662208
:102780001A6000F0ADF806237B6061E0384A4A4BDE
:102790001100180000F022FD031E0BD0474B18005B
:1027A00001F084FB434B68221A6000F099F807237C
:1027B0007B604DE02E4A424B1100180000F00EFDE8
:1027C000031E0BD007F082FC3E4B180001F06EFB9D
:1027D0003D4B5B78180001F0A3FC39E0244A3B4BE9
:1027E0001100180000F0FAFC031E02D007F0E0FB15
:1027F0002EE01F4A364B1100180000F0EFFC031EBC
:1028000026D11B4A334B1100180000F0E7FC031ED1
:102810000AD0174BDB79312B1AD1154BDB7A303BC1
:102820001A00244B1A6013E0114A2B4B11001800B8
:1028300000F0D4FC031E0BD008237B60274A0C4B0E
:102840001100180000F03CFA244B180001F02EFB98
:1028500000F054F87B68082B04D1204B07211800A6
:1028600005F072F97B68DBB21800BD4602B080BD8E
:102870005C07002024E000082CE0000834E0000899
:102880003CE000086409002044E00008B801002092
:102890005CE0000864E000086CE000087CE00008F0
:1028A0002407002098E00008A0E00008ACE0000841
:1028B000B4E00008A8020020C8E00008D4E0000846
:1028C000F0E00008FCE000086809002014E10008BE
:1028D0001CE1000828E1000830E10008BC080020E5
:1028E00080B500AF6D2002F023FE034B00221A607A
:1028F000C046BD4680BDC0462007002080B582B0DE
:1029000000AF00237B600DE00C4A7B68D3181B7876
:10291000002B0DD0094A7B68D31800221A707B68FF
:1029200001337B607A685E23FF339A42ECDD00E07E
:10293000C046C046BD4602B080BDC0465C07002010
:1029400090B587B000AFF860B9607A603B60FB6813
:10295000180001F031FA0D2001F04AFA2AE03B6834
:102960001800FDF701FDFDF70DFD1723FC18FFF71B
:10297000ADFD030023701723FB181B78002B04D137
:10298000BA6A3B68D31ABB6214E07A68BB6811006C
:10299000180000F023FC031E01D001230EE0BA6AE8
:1029A0003B68D31ABB62FFF735FE0300022B01D14F
:1029B000002303E0BB6A002BD1DC00231800BD46D6
:1029C00007B090BD80B582B002AF2E4A2E492F4885
:1029D000052300930223FFF7B3FF031E01D1002359
:1029E0004CE0284A28492A48052300930223FFF790
:1029F000A7FF031E01D1002340E0224A22492548B7
:102A0000052300930223FFF79BFF031E01D1002340
:102A100034E01C4A1C492048052300930223FFF799
:102A20008FFF031E01D1002328E0164A16491B48D8
:102A3000052300930223FFF783FF031E01D1002328
:102A40001CE0104A10491648052300930223FFF7A3
:102A500077FF6D2002F06CFD124B180001F026FA92
:102A6000114BDB7A002B08D10A2214216D2002F0D1
:102A70001DFD0E4B180001F019FA01231800BD4688
:102A800080BDC0465C070020D4DF000838E10008A4
:102A900044E1000854E1000864E1000870E1000826
:102AA00080E100088CE10008B8010020A0E10008E6
:102AB00080B582B000AF00237B6007E0074A7B68E7
:102AC000D31800221A707B6801337B607B68452B2A
:102AD000F4D9C046BD4602B080BDC046BC08002047
:102AE00080B584B000AF78607B68002B00DA0F33CC
:102AF0001B111A000F23FB181A700F23FB181B78E9
:102B0000092B07D90F23FB180F22BA181278373276
:102B10001A7006E00F23FB180F22BA181278303211
:102B20001A700F23FB181B78180001F061F97B68FD
:102B3000D9B20F23FB181B781B01DAB20F23FB1845
:102B40008A1A1A700F23FB181B78092B07D90F2339
:102B5000FB180F22BA18127837321A7006E00F23CA
:102B6000FB180F22BA18127830321A700F23FB1894
:102B70001B78180001F03CF9C046BD4604B080BD8A
:102B800080B582B000AF7860C046BD4602B080BD5F
:102B9000B0B58EB000AFF860B9607A603B601023CA
:102BA000FB18464A13CA13C313CA13C303CA03C389
:102BB00012781A703B687B6374E07B6B0133FA68B0
:102BC000D3181B78342B44D17B6B0233FA68D318AB
:102BD0001B78312B06D07B6B0233FA68D3181B7835
:102BE000332B13D13B687A6BD31A9B08BA68D4187D
:102BF0007B6B0333FA68D3181B78180000F0FAF8DF
:102C000002001023FB189B5C237048E07B6B0233AF
:102C1000FA68D3181B78322B06D07B6B0233FA6824
:102C2000D3181B78342B3AD13B687A6BD31A9B08A4
:102C3000BA68D4187B6B0333FA68D3181B78180072
:102C400000F0D8F8030010331022BA18D35C2370B8
:102C500025E07B6B0133FA68D3181B78302B1ED12B
:102C60003B687A6BD31A9B08BA68D4187B6B023323
:102C7000FA68D3181B78180000F0BCF80300DBB228
:102C80001B01DDB27B6B0333FA68D3181B78180085
:102C900000F0B0F80300DBB2EB18DBB223707B6B03
:102CA00004337B633A687B68D3181A007B6B9A42C3
:102CB00083D8C046BD460EB0B0BDC046CCE10008CA
:102CC00080B584B000AF786039607B68180000F090
:102CD000D5FA03000A3BFB60FA68396878680A2372
:102CE000FFF756FFC046BD4604B080BD90B597B013
:102CF00000AF786039602C23FB18394A13CA13C31C
:102D000013CA13C303CA03C312781A700823FB182B
:102D1000344A13CA13C313CA13C303CA03C31278B2
:102D20001A7000237B6500233B6500237B654FE021
:102D30007A687B6DD3181B78402B28D82A4B180053
:102D400001F03AF800233B6513E07A687B6DD318F5
:102D50001A780823F9183B6DCB181B789A4205D1D5
:102D60003B6D20331800FFF7BBFE05E03B6D0133E0
:102D70003B653B6D202BE8D97A687B6DD3181B78B7
:102D80000A2B22D1194B180001F016F81DE0184B40
:102D9000180001F011F800233B6513E07A687B6DA1
:102DA000D3181A782C23F9183B6DCB181B789A424C
:102DB00005D13B6D30331800FFF792FE05E03B6D07
:102DC00001333B653B6D202BE8D97B6D01337B657F
:102DD0007A6D3B689A42ABD3C046BD4617B090BDF2
:102DE000CCE10008FCE10008F0E10008F4E1000893
:102DF000F8E1000880B582B000AF0200FB1D1A7038
:102E0000FB1D1B78303B092B03DCFB1D1B78303B83
:102E100002E0FB1D1B78373B1800BD4602B080BDA9
:102E200080B584B000AF78607B68093346221A70A1
:102E30000023FB600023FB601AE07A68FB68D2186D
:102E40000B23FB1812781A707A68FB68D318FA689B
:102E5000013279688A1812781A70FB6801337A682F
:102E6000D3180B22BA1812781A70FB680233FB6071
:102E7000FB68092BE1D9C046BD4604B080BDC04601
:102E800080B584B000AF78600023FB600023FB6056
:102E90001AE07A68FB68D2180B23FB1812781A70B4
:102EA0007A68FB68D318FA68013279688A18127850
:102EB0001A70FB6801337A68D3180B22BA1812789B
:102EC0001A70FB680233FB60FB68092BE1D97B6851
:102ED000093300221A70C046BD4604B080BDC0460A
:102EE00080B586B000AF786000237B6100233B6132
:102EF00000233B613AE00F23FB1801221A700023E4
:102F00007B6117E01D493A6913005B009B189B0029
:102F1000CA187B69D3181A7879687B69CB181B7833
:102F20009A4204D00F23FB1800221A7005E07B6937
:102F300001337B617B69092BE4D910493A6913009D
:102F40005B009B189B00CB180B331B78613B5A42EC
:102F50005341DBB21A000F23FB181B78134002D039
:102F60003B69DBB206E03B6901333B613B69042B03
:102F7000C1D964231800BD4606B080BDB801002049
:102F800080B584B000AF39601100FB1D021C1A70BF
:102F9000BB1D0A1C1A700023FB6048E0FB683A68FE
:102FA000D3181B78303B092B06DCFB683A68D31832
:102FB0001B78303B002B01DA012300E000231A1CB0
:102FC00001231340DBB2FA6839688A181278463A4E
:102FD000511E8A41D2B21340DBB2002B03D0BB1D7D
:102FE00000221A7026E0FB1D1A78FB683968CB189E
:102FF00018782F4913005B009B189B00CA18FB68C8
:10300000D318021C1A70FB1D1A7813009B009B1822
:103010005B00DA1CFB68D018FB683A68D3181B7891
:1030200001221900FEF798FAFB680133FB60FB6888
:10303000092BB3DDFB1D1A781D4913005B009B189B
:103040009B00CB180B33BA1D12781A70FB1D1B782E
:1030500035331800BB1D1B7801221900FEF77CFADE
:10306000144B180000F022FFFB1D1B78180001F024
:1030700057F8114B180000F019FF3B68180000F0DA
:1030800015FF0E4B180000F011FFBB1D1B78092B1C
:1030900005D8BB1D1B78180001F042F804E0BB1DE9
:1030A0001B78180000F0ECFEC046BD4604B080BDA1
:1030B000B801002020E2000840E200084CE20008CD
:1030C00080B584B000AF78600A00FB1C1A700E2334
:1030D000FB1800221A800D23FB1801221A7041E010
:1030E000FB1C1B787A68D3181B782D2B08D10D2375
:1030F000FB181B785B42DAB20D23FB181A702CE028
:10310000FB1C1B787A68D3181B782F229A429B41AC
:103110005B42DAB2FB1C1B787968CB18197839202E
:10312000002388425B41DBB21340DBB2002B14D09A
:103130000E23FB181B881A1C9200D318DB189AB2B6
:10314000FB1C1B787968CB181B789BB2D3189BB2F9
:10315000303B9AB20E23FB181A80FB1C1A78FB1C1A
:1031600001321A70FB1C1B787A68D3181B782F2247
:103170009A429B415B42DAB2FB1C1B787968CB1800
:1031800019783920002388425B41DBB21340DBB25F
:10319000002BA5D1FB1C1B787A68D3181B782D2B2C
:1031A0009ED0FB1C1B787A68D3181B782B2B97D0EA
:1031B0000D23FB181B785BB29BB20E22BA18128843
:1031C00053439AB20E23FB181A800E23FB180022D9
:1031D0009B5E1800BD4604B080BDC04680B588B077
:1031E00000AF786039600023FB617B68180000F055
:1031F00045F803003B613B68180000F03FF803000E
:10320000FB602FE07B681A78FB693968CB181B7864
:103210009A4224D100237B610023BB611BE0BB6980
:103220007A68D3181A78F969BB69CB1819003B681A
:103230005B181B789A4208D17B6901337B613B693B
:103240007A699A4204D1012313E000237B6106E0EE
:10325000BB690133BB61BA693B699A42DFDBFB6939
:103260000133FB61FA683B69D21AFB699A42C9DAF9
:1032700000231800BD4608B080BDC04680B584B0AC
:1032800000AF78600023FB6002E0FB680133FB6065
:103290007A68FB68D3181B78002BF6D1FB681800FE
:1032A000BD4604B080BDC04680B588B000AFF860B0
:1032B000B9607A603B600023FB61FB681800FFF790
:1032C000DDFF03007B617B681800FFF7D7FF030079
:1032D000BB61BA693B689A4204D93B68002B01D0B4
:1032E0003B68BB610023FB6112E07A69FB69D2187D
:1032F000BB689A4211D27A69FB69D318FA68D3186D
:103300007968FA698A1812781A70FB690133FB61CF
:10331000FA69BB699A42E8D300E0C046BD4608B0EE
:1033200080BDC04680B586B000AF786039600523A7
:103330007B617B681800FFF7A1FF0300FB603B681F
:10334000002B0ADA3B685B423B60FB687A68D31863
:103350002D221A70FB680133FB6009237B6151E069
:103360003B68BB607B693B6109E0BB680A211800D0
:1033700008F0D8FC0300BB603B69013B3B613B6943
:10338000002BF2DCBB68002B02D17B69002B36D10D
:10339000FB687A68D318BA68D2B23032D2B21A70E7
:1033A000FB680133FB607B693B6108E0BA6813008E
:1033B0009B009B185B00BB603B69013B3B613B6929
:1033C000002BF3DC3A68BB68D31A3B603B68002BE8
:1033D00015D17B69002B12D000233B610AE0FB680A
:1033E0007A68D31830221A70FB680133FB603B699E
:1033F00001333B613A697B699A42F0DB05E07B6906
:10340000013B7B617B69002BAADABD4606B080BD1B
:1034100080B584B000AF78600023FB607B68002B30
:1034200004DA0123FB607B685B427B607B68194A9E
:10343000934204DDFB68DBB20633DBB225E07B6838
:10344000154A934204DDFB68DBB20533DBB21CE0B6
:103450007B68124A934204DDFB68DBB20433DBB2C3
:1034600013E07B68632B04DDFB68DBB20333DBB264
:103470000BE07B68092B04DDFB68DBB20233DBB2B7
:1034800003E0FB68DBB20133DBB21800BD4604B0D9
:1034900080BDC0469F8601000F270000E7030000A3
:1034A00080B500AF0A4B0A4A126801210A431A602C
:1034B000C046074B1B6804221340FAD0044B044A51
:1034C000D26801210A43DA60C046BD4680BDC046CD
:1034D0000010024080B500AF0A4B0A4A1268402132
:1034E0000A431A60074B074A126802210A431A600E
:1034F000032000F03BF806F041FE00231800BD4613
:1035000080BDC0460020024080B500AF104B0122B4
:1035100052429A620E4B00229A620D4B0122524295
:103520005A620B4B00225A62094B012252421A6224
:10353000074B00221A62064B01225242DA61044B09
:103540000022DA6106F020FE00231800BD4680BD8F
:103550000010024080B500AFC046BD4680BDC046E9
:1035600080B500AFC046BD4680BDC04680B582B0C4
:1035700000AF786003F04EFE0200FA2399001000BD
:1035800008F046FB0300180008F0DAFA7968012316
:103590005B420022180008F095FA00231800BD468F
:1035A00002B080BD80B500AF034B1B685A1C024BB4
:1035B0001A60C046BD4680BD3407002080B500AF0C
:1035C000024B1B681800BD4680BDC0463407002072
:1035D00080B584B000AF78600023FB60FFF7EEFF9A
:1035E0000300FB60C046FFF7E9FF0200FB68D21A48
:1035F0007B689A42F7D3C046BD4604B080BDC04642
:1036000080B500AF044B044A126802218A431A6055
:10361000C046BD4680BDC04610E000E080B500AFAA
:10362000044B044A126802210A431A60C046BD4690
:1036300080BDC04610E000E080B500AF014B18002F
:10364000BD4680BD0000010180B500AF024B1B6884
:103650001B0C1800BD4680BD0058014080B500AF6E
:10366000034B1B681B051B0D1800BD4680BDC046E3
:103670000058014080B500AF044B044A5268012154
:103680000A435A60C046BD4680BDC046005801404E
:1036900080B500AF044B044A526801218A435A6046
:1036A000C046BD4680BDC0460058014080B500AF51
:1036B000044B044A526802210A435A60C046BD4680
:1036C00080BDC0460058014080B500AF044B044A9D
:1036D000526802218A435A60C046BD4680BDC0463A
:1036E0000058014080B500AF044B044A52680421E1
:1036F0000A435A60C046BD4680BDC04600580140DE
:1037000080B500AF044B044A526804218A435A60D2
:10371000C046BD4680BDC0460058014080B582B05D
:1037200000AF78600A00FB1C1A70FB1C1B78002B92
:1037300006D0094B084A51687A680A435A6006E085
:10374000054B054A52687968C9430A405A60C04629
:10375000BD4602B080BDC0460058014080B500AFF4
:10376000034B1A68C0239B0013401800BD4680BD60
:103770000000014080B582B000AF78600A00FB1CF9
:103780001A70FB1C1B78002B06D0094B084A5168A5
:103790007A680A435A6006E0054B054A5268796820
:1037A000C9430A405A60C046BD4602B080BDC0460B
:1037B0000000014080B582B000AF0200FB1D1A700E
:1037C000FB1D1B78002B06D0084B084A126A01210A
:1037D0000A431A6205E0054B044A126A01218A4332
:1037E0001A62C046BD4602B080BDC046000001401E
:1037F00080B582B000AF7860074B074A126A30216B
:103800008A431A62044B044A116A7A680A431A62AC
:10381000C046BD4602B080BD0000014080B582B008
:1038200000AF0200FB1D1A70FB1D1B78002B07D098
:10383000084B084A126A0221FF310A431A6205E066
:10384000044B044A126A04490A401A62C046BD4643
:1038500002B080BD00000140FEFEFFFF80B582B0D7
:1038600000AF0200FB1D1A70FB1D1B78002B06D059
:10387000084B084A126A08490A431A6205E0054BD8
:10388000044A126A05490A401A62C046BD4602B09F
:1038900080BDC0460000014001020000FEFDFFFFA8
:1038A00080B582B000AF0200FB1D1A70FB1D1B78B3
:1038B000002B06D0084B084A126A08490A431A62CC
:1038C00005E0054B044A126A05490A401A62C046DF
:1038D000BD4602B080BDC04600000140011000009E
:1038E000FEEFFFFF80B582B000AF0200FB1D1A7033
:1038F000FB1D1B78002B06D0084B084A126A0849AA
:103900000A431A6205E0054B044A126A05490A4057
:103910001A62C046BD4602B080BDC04600000140EC
:1039200001200000FEDFFFFF80B582B000AF020083
:10393000FB1D1A70FB1D1B78002B07D0084B084A93
:10394000126A802109060A431A6205E0044B044A00
:10395000126A520052081A62C046BD4602B080BDCB
:103960000000014080B500AFBFF34F8F024B034A08
:10397000DA60BFF34F8FFEE700ED00E00400FA05C8
:1039800080B500AF044B180000F090FAFFF7EAFF93
:10399000C046BD4680BDC04658E2000880B500AFB5
:1039A000054B180000F082FAFDF764FEFFF7E8FF10
:1039B000C046BD4680BDC04668E2000880B500AF85
:1039C000C046BD4680BDC04680B500AFC046BD46BE
:1039D00080BDC04680B500AFC046BD4680BDC04674
:1039E00080B500AFFFF75CFD05F0F2FFFCF778FC57
:1039F000FCF7D2FB01F04AFE00F038F900F06EF956
:103A000000F0A4F907F01EFE00F08CF802F034F983
:103A1000FEF736FC394B180000F048FA022007F098
:103A20009DFA031E01D007F0ABFA354A3548002352
:103A30004621FFF739FC344A324800234621FFF77C
:103A400033FC324A2F4800234621FFF72DFC304A31
:103A50002C4800234621FFF727FC2E4A2948002343
:103A60004621FFF721FC2C4A264800234621FFF778
:103A70001BFCFEF7C5FD0200642353431F21180001
:103A800008F050F903001A001E4B11001800FFF750
:103A900049FC224A1B4800234621FFF705FC03F09E
:103AA000FDFC0200174B11001800FFF73BFC1C4AFD
:103AB000144800234621FFF7F7FBFDF7E7F9020062
:103AC000104B11001800FFF72DFC0E4B07211800BA
:103AD00004F03AF8802007F041FA031E03D0FDF706
:103AE000A7F906F025FFFDF7F1FCFEF7F3FB012037
:103AF000FCF73AFCFCF746FCF5E7C04694E2000808
:103B0000A8E20008BC080020B0E20008B8E2000803
:103B1000BCE20008C0E20008CCE20008D4E20008E1
:103B2000DCE2000880B582B000AF00237B6001F0CA
:103B3000F1FD031E5DD1002001F034FC07E00120FF
:103B4000FCF712FCFCF71EFC7B6801337B6001F084
:103B5000E1FD031E02D17B68132BF0DD01F0DAFDDD
:103B6000031E46D0012001F01DFC00237B6007E00E
:103B70000120FCF7F9FBFCF705FC7B6801337B6057
:103B800001F0C8FD031E02D07B68132BF0DD01F0AD
:103B9000C1FD031E2DD1022001F004FC0520FCF71D
:103BA000E3FBFCF7EFFB032001F0FCFB0520FCF737
:103BB000DBFBFCF7E7FB042001F0F4FB0520FCF73E
:103BC000D3FBFCF7DFFB002001F008FC012001F033
:103BD00005FC022001F002FC032001F0FFFB0420A1
:103BE00001F0FCFBC04601F095FD031EFBD000F088
:103BF00005F8C046BD4602B080BDC04680B584B061
:103C000000AF0920FDF7EAFF0300FB600023BB6063
:103C100002F0ACFA0920FDF7E1FF03007B60FB68CE
:103C2000002B0AD17B68002B07D0BB680133BB6037
:103C3000BB68032B01DDFFF7B1FE7B68FB60E7E7A4
:103C400080B582B000AF0200FB1D1A70064BFA1D52
:103C5000127811001F220A40012191400A001A60C7
:103C6000C046BD4602B080BD00E100E080B500AFB7
:103C7000174B174A526B8021C9010A435A631B2014
:103C8000FFF7DEFF134B144A1A60124B9622920183
:103C90005A60104B00229A600E4B0022DA600D4BE6
:103CA00000221A610B4B0C225A610A4B00229A61C6
:103CB000084B0022DA61074B180004F0FFF8064BAE
:103CC000054A126820210A431A60C046BD4680BDDD
:103CD00000100240E00E00200038014080B500AF27
:103CE000174B174A926B802189020A439A631C2062
:103CF000FFF7A6FF134B144A1A60124B962292014B
:103D00005A60104B00229A600E4B0022DA600D4B75
:103D100000221A610B4B0C225A610A4B00229A6155
:103D2000084B0022DA61074B180004F0C7F8064B75
:103D3000054A126820210A431A60C046BD4680BD6C
:103D4000001002404C0F00200044004080B500AF3E
:103D5000164B164A926B8021C9020A439A63144B90
:103D6000144A1A60124B962292015A60104B00229C
:103D70009A600F4B0022DA600D4B00221A610C4B47
:103D80000C225A610A4B00229A61094B0022DA6127
:103D9000074B180004F092F8064B064A12682021DF
:103DA0000A431A60C046BD4680BDC04600100240AE
:103DB000740E00200048004080B584B000AF7860E9
:103DC0000023FB6009E0FB687A68D3181B781800B1
:103DD00000F00EF8FB680133FB60FB687A68D318CB
:103DE0001B78002BEFD1C046BD4604B080BDC04655
:103DF00080B582B000AF0200FB1D1A70C046064BB2
:103E0000DB6980221340FAD0034BFA1D12789A62C4
:103E1000C046BD4602B080BD0044004080B582B0BF
:103E200000AF0200FB1D1A70064BFA1D12789A6251
:103E3000C046044BDB6980221340FAD0C046BD4621
:103E400002B080BD0038014080B584B000AF78601A
:103E50000023FB6009E0FB687A68D3181B78180020
:103E6000FFF7DCFFFB680133FB60FB687A68D3185F
:103E70001B78002BEFD1C046BD4604B080BDC046C4
:103E800080B582B000AF0200FB1D1A70C046064B21
:103E9000DB6980221340FAD0034BFA1D12789A6234
:103EA000C046BD4602B080BD0048004080B584B029
:103EB00000AF78600023FB6009E0FB687A68D318E4
:103EC0001B781800FFF7DCFFFB680133FB60FB6821
:103ED0007A68D3181B78002BEFD1C046BD4604B0DA
:103EE00080BDC04680B500AF00F04AF8044B044ADC
:103EF000D26928218A43DA61C046BD4680BDC046EA
:103F00000038014080B500AF00F01AF8044B044AB5
:103F1000D26928218A43DA61C046BD4680BDC046C9
:103F20000044004080B500AF044B044AD269282108
:103F30008A43DA61C046BD4680BDC04600480040A5
:103F400080B500AF0B4B1A680B4B5B6AD9B20B4BB9
:103F50009954084B1B685A1C064B1A60054B1A688B
:103F6000FA239B009A4202D1024B00221A60C046FB
:103F7000BD4680BD38070020004400406C09002089
:103F800080B500AF0B4B1A680B4B5B6AD9B20B4B79
:103F90009954084B1B685A1C064B1A60054B1A684B
:103FA00082235B009A4202D1024B00221A60C04673
:103FB000BD4680BD3C07002000380140700D002048
:103FC00080B584B000AF0200BB1D1A80BB1D1A88EB
:103FD000FA239900100007F01BFE03009AB20F238A
:103FE000FB181A70BB1D1B883B4A934207D90F234D
:103FF000FB181B783033DBB21800FFF7F9FEBB1D4E
:104000001A880F23FB181B7834494B43D3186421BB
:10401000180007F087FE03001A000E23FB181A7021
:10402000BB1D1B88632B07D90E23FB181B7830336D
:10403000DBB21800FFF7DCFEBB1D1A880F23FB184C
:104040001B7826494B43D2180E23FB181B7864219A
:1040500049424B43D3180A21180007F063FE0300BE
:104060001A000D23FB181A70BB1D1B88092B07D9DA
:104070000D23FB181B783033DBB21800FFF7B8FEB6
:10408000BB1D1B88DAB20E23FB181B786421494242
:104090004B43D9B20F23FB181B7818204343DBB2E4
:1040A000CB18DBB2D318D9B20D23FB181B780A2228
:1040B00052425343DAB20C23FB188A181A700C23AD
:1040C000FB181B783033DBB21800FFF791FEC046B7
:1040D000BD4604B080BDC046E703000018FCFFFFEA
:1040E00080B582B000AF78607B68002B14D07B680D
:1040F0000A21180007F08CFD03001800FFF7F0FFFD
:104100007B680A21180007F009FE0B00DBB2303390
:10411000DBB21800FFF7B4FEC046BD4602B080BD5A
:1041200080B582B000AF78607B68002B04D07B68DC
:104130001800FFF7D5FF05E07B68002B02D1302087
:10414000FFF79EFEC046BD4602B080BD80B582B07E
:1041500000AF304B1A68304B1B689A4217D10023CE
:1041600053E02D4B1B685A1C2B4B1A602A4B1A68C4
:1041700082235B009A4202D1274B00221A60254B12
:104180001A68254B1B689A4201D100233DE0224B5F
:104190001B68224AD35CAA3B5A1E9341DAB21E4BDB
:1041A0001B6801331D49CB5C553B591E8B41DBB26B
:1041B0001343DBB2002BD4D100237B6021E0154BED
:1041C0001A68154B1B689A4201D101231DE0124B5E
:1041D0001B68124AD15C124A7B68D3180A1C1A70F9
:1041E0000D4B1B685A1C0C4B1A600B4B1A68822330
:1041F0005B009A4202D1084B00221A607B680133AF
:104200007B607B68192BDADD01231800BD4602B004
:1042100080BDC0463C07002040070020700D0020F4
:10422000540D002080B500AF034B1A68034B1A6091
:10423000C046BD4680BDC046400700203C07002068
:1042400080B500AF054B1A68054B1B689A4201D137
:10425000002300E001231800BD4680BD3C0700207C
:104260004007002080B582B000AF00237B600023B0
:104270007B6007E0074A7B68D31800221A707B68CE
:1042800001337B607B68192BF4DDC046BD4602B06C
:1042900080BDC046540D002080B500AF174B174AB3
:1042A0001268802149000A431A60144B134AD268ED
:1042B00013490A40DA60114B104A126811490A404A
:1042C0001A600E4B0D4A926801218A439A600B4B8B
:1042D0000A4A12680C490A401A60084B074AD26819
:1042E0000A490A40DA60054B00221A61084B802215
:1042F00012059A60C046BD4680BDC046001002400F
:104300000C40FF88F6FFF6FEFFFFFBFFFFFF02FFFA
:1043100000ED00E080B586B000AF00237B61002394
:104320003B610023FB600023BB6000237B60414BAB
:10433000DB680C2213407B617B69042B16D002D80A
:10434000002B05D051E0082B14D00C2B16D04CE0DC
:10435000384B5A68E0231B0213405B0BFA2212020F
:104360009A4013001A00344B1A604FE0324B334A24
:104370001A604BE0304B324A1A6047E02D4BDA6846
:10438000F0239B0313403B612A4BDA68C0231B04D4
:104390001340FB603B699B0C2A4AD35CDBB23B6158
:1043A000FB689B0D0133FB60224BDA6880235B02C4
:1043B0001340BB60BB68002B0BD13B691F4A5343C2
:1043C000F968180007F024FC03001A001A4B1A6061
:1043D0001CE03B691A4A5343F968180007F018FCBF
:1043E00003001A00144B1A6010E0124B5A68E023C5
:1043F0001B0213405B0B7B607B680133802212023F
:104400009A4013001A000C4B1A60C046094BDB6837
:10441000F02213401B090C4AD35CDBB27B61064BD4
:104420001A687B69DA40044B1A60C046BD4606B084
:1044300080BDC04600100240F40100200024F400BA
:1044400000127A0008020020F80100200D4885467D
:10445000002103E00C4B5B58435004310B480C4BDC
:1044600042189A42F6D30B4A02E00023136004324A
:10447000094B9A42F9D3FFF70FFF09F087FBFFF7CB
:10448000AFFAFEE7002000204CEA00080000002000
:10449000F8060020F806002044100020FEE7000087
:1044A00080B584B000AF78600023FB607B68002B90
:1044B00001D10123B5E07B682522022199547B6854
:1044C0001B681B68FB60FB68584A1340FB607B68F5
:1044D0009A687B68DB681A437B681B691A437B68B0
:1044E0005B691A437B689B691A437B68DB691A43E3
:1044F0007B681B6A1343FA681343FB607B681B6885
:10450000FA681A607B681B68494A93420DD1494B8F
:10451000484A12680F218A431A60464A454B196877
:104520007B685B680B43136076E07B681B68424ADC
:1045300093420ED13F4B3F4A1268F0218A431A60E2
:104540003C4A3C4B19687B685B681B010B4313605A
:1045500062E07B681B68394A93420ED1354B354A7D
:10456000126837490A401A60324A324B19687B6830
:104570005B681B020B4313604EE07B681B68314A8B
:1045800093420ED12B4B2B4A12682F490A401A60D6
:10459000284A284B19687B685B681B030B43136030
:1045A0003AE07B681B68294A93420ED1214B214A8D
:1045B000126827490A401A601E4A1E4B19687B6818
:1045C0005B681B040B43136026E07B681B68214A71
:1045D00093420ED1174B174A12681F490A401A60BE
:1045E000144A144B19687B685B681B050B43136006
:1045F00012E07B681B68194A93420DD10D4B0D4A9E
:10460000126817490A401A600A4A0A4B19687B68FF
:104610005B681B060B4313607B68252201219954BC
:1046200000231800BD4604B080BDC0460FC0FFFF88
:1046300008000240A80002401C0002403000024076
:10464000FFF0FFFF44000240FF0FFFFF5800024051
:10465000FFFFF0FF6C000240FFFF0FFF80000240F1
:10466000FFFFFFF080B582B000AF78607B68002B61
:1046700001D101235EE17B6825229B5CDBB2022B2A
:1046800001D1012356E17B681B687A6812681268C1
:1046900001218A431A607B681B6800221A607B68CC
:1046A0001B6800225A607B681B6800229A607B6846
:1046B0001B680022DA60A14A7B681B681900A04BC6
:1046C00099422ED07B681B6819009E4B994226D0D8
:1046D0007B681B6819009C4B99421DD07B681B6846
:1046E00019009A4B994214D07B681B681900984BAB
:1046F00099420BD07B681B681900964B994202D1F6
:1047000080235B030EE080235B040BE080235B02CD
:1047100008E080235B0105E080235B0002E01023BA
:1047200000E001235360854A7B681B681900844BB5
:1047300099422ED07B681B681900824B994226D083
:104740007B681B681900804B99421DD07B681B68F1
:1047500019007E4B994214D07B681B6819007C4B72
:1047600099420BD07B681B6819007A4B994202D1A1
:1047700080239B030EE080239B040BE080239B029D
:1047800008E080239B0105E080239B0002E02023BA
:1047900000E002235360694A7B681B681900684B7C
:1047A00099422ED07B681B681900664B994226D02F
:1047B0007B681B681900644B99421DD07B681B689D
:1047C0001900624B994214D07B681B681900604B3A
:1047D00099420BD07B681B6819005E4B994202D14D
:1047E00080231B040EE080231B050BE080231B03AA
:1047F00008E080231B0205E080231B0102E08023E8
:1048000000E0082353604D4A7B681B6819004C4B3D
:1048100099422ED07B681B6819004A4B994226D0DA
:104820007B681B681900484B99421DD07B681B6848
:104830001900464B994214D07B681B681900444B01
:1048400099420BD07B681B681900424B994202D1F8
:104850008023DB030EE08023DB040BE08023DB02FC
:1048600008E08023DB0105E08023DB0002E0402339
:1048700000E0042353607B681B68314A934206D1F1
:10488000354B354A12680F218A431A6046E07B682F
:104890001B682C4A934206D12F4B2F4A1268F021F5
:1048A0008A431A603AE07B681B68274A934206D124
:1048B000294B294A126829490A401A602EE07B6870
:1048C0001B68224A934206D1234B234A126824498B
:1048D0000A401A6022E07B681B681D4A934206D199
:1048E0001D4B1D4A12681F490A401A6016E07B687A
:1048F0001B68184A934206D1174B174A12681A4987
:104900000A401A600AE07B681B68184A934205D186
:10491000114B114A126816490A401A607B6800223E
:104920009A637B682522002199547B682422002108
:10493000995400231800BD4602B080BD000002401B
:10494000080002401C0002403000024044000240C7
:10495000580002406C000240A8000240FFF0FFFF38
:10496000FF0FFFFFFFFFF0FFFFFF0FFF8000024080
:10497000FFFFFFF080B584B000AFF860B9607A60E7
:104980003B60FB6824229B5C012B01D102231EE0CB
:10499000FB68242201219954FB68252202219954A5
:1049A000FB681B68FA681268126801218A431A6062
:1049B0003B687A68B968F86800F056FCFB681B68C9
:1049C000FA681268126801210A431A60002318006D
:1049D000BD4604B080BDC04680B584B000AFF8606D
:1049E000B9607A603B60FB6824229B5C012B01D19B
:1049F000022336E0FB68242201219954FB6825221A
:104A000002219954FB681B68FA6812681268012138
:104A10008A431A603B687A68B968F86800F024FC39
:104A2000FB681B68FA681268126802210A431A6060
:104A3000FB681B68FA681268126804210A431A604E
:104A4000FB681B68FA681268126808210A431A603A
:104A5000FB681B68FA681268126801210A431A6031
:104A600000231800BD4604B080BDC04680B584B0A8
:104A700000AF78600023FB607B681B687A6812686F
:104A8000126801218A431A60FEF798FD0300FB605B
:104A900018E0FEF793FD0200FB68D21AFA239B0090
:104AA0009A420FD97B689B6B20221A437B689A63DA
:104AB0007B682422002199547B6825220321995484
:104AC00003230EE07B681B681B6801221340E0D1C2
:104AD0007B682422002199547B6825220121995466
:104AE00000231800BD4604B080BDC04680B586B026
:104AF00000AFF860B9607A6000233B61BB68002BAF
:104B000037D1FB681B681A00C14B9A422ED0FB6854
:104B10001B681A00BF4B9A4226D0FB681B681A001C
:104B2000BD4B9A421DD0FB681B681A00BB4B9A42D2
:104B300014D0FB681B681A00B94B9A420BD0FB6873
:104B40001B681A00B74B9A4202D180239B030EE0E8
:104B500080239B040BE080239B0208E080239B01C1
:104B600005E080239B0002E0202300E002237B611C
:104B700036E0FB681B681A00A54B9A422ED0FB68F2
:104B80001B681A00A34B9A4226D0FB681B681A00C8
:104B9000A14B9A421DD0FB681B681A009F4B9A429A
:104BA00014D0FB681B681A009D4B9A420BD0FB681F
:104BB0001B681A009B4B9A4202D18023DB030EE054
:104BC0008023DB040BE08023DB0208E08023DB0191
:104BD00005E08023DB0002E0402300E004237B614A
:104BE000FEF7ECFC03003B619FE08F4B1A68FB680B
:104BF0001B681900864B99422ED0FB681B68190070
:104C0000844B994226D0FB681B681900824B99425D
:104C10001DD0FB681B681900804B994214D0FB68BB
:104C20001B6819007E4B99420BD0FB681B6819006A
:104C30007C4B994202D180231B040EE080231B058C
:104C40000BE080231B0308E080231B0205E0802388
:104C50001B0102E0802300E00823134047D0724A82
:104C6000FB681B6819006A4B99422ED0FB681B68D1
:104C70001900684B994226D0FB681B681900664BE7
:104C800099421DD0FB681B681900644B994214D0EF
:104C9000FB681B681900624B99420BD0FB681B68CC
:104CA0001900604B994202D180231B040EE080233F
:104CB0001B050BE080231B0308E080231B0205E09B
:104CC00080231B0102E0802300E008235360FB687F
:104CD0009B6B01221A43FB689A63FB68252204211F
:104CE0009954FB682422002199540123B7E07B6882
:104CF00001331AD07B68002B07D0FEF75FFC02005F
:104D00003B69D21A7B689A420FD9FB689B6B2022C1
:104D10001A43FB689A63FB68252203219954FB68B8
:104D2000242200219954032399E03F4B1B687A69A0
:104D3000134000D159E7BB68002B40D13A4AFB68C9
:104D40001B681900324B99422ED0FB681B68190072
:104D5000304B994226D0FB681B6819002E4B9942B4
:104D60001DD0FB681B6819002C4B994214D0FB68BE
:104D70001B6819002A4B99420BD0FB681B6819006D
:104D8000284B994202D180239B030EE080239B0491
:104D90000BE080239B0208E080239B0105E0802339
:104DA0009B0002E0202300E002235360FB682522E1
:104DB00001219954FB682422002199544EE01A4A9B
:104DC000FB681B681900124B99423DD0FB681B68B9
:104DD0001900104B994235D0FB681B6819000E4B27
:104DE00099422CD0FB681B6819000C4B994223D0C8
:104DF000FB681B6819000A4B99421AD0FB681B68B4
:104E00001900084B994211D18023DB031DE0C046F5
:104E1000080002401C0002403000024044000240F2
:104E2000580002406C000240000002408023DB0476
:104E30000BE08023DB0208E08023DB0105E0802318
:104E4000DB0002E0402300E004235360FB682522DE
:104E500005219954FB68242200219954002318004D
:104E6000BD4606B080BDC04680B582B000AF786058
:104E7000B04B1A687B681B681900AF4B99422ED063
:104E80007B681B681900AD4B994226D07B681B6874
:104E90001900AB4B99421DD07B681B681900A94BC8
:104EA000994214D07B681B681900A74B99420BD01C
:104EB0007B681B681900A54B994202D180231B0413
:104EC0000EE080231B050BE080231B0308E08023FA
:104ED0001B0205E080231B0102E0802300E0082381
:104EE00013405CD07B681B681B680822134056D0B7
:104EF0007B681B687A681268126808218A431A6006
:104F00008C4A7B681B6819008B4B99422ED07B68BA
:104F10001B681900894B994226D07B681B681900D1
:104F2000874B99421DD07B681B681900854B9942BD
:104F300014D07B681B681900834B99420BD07B68A7
:104F40001B681900814B994202D180231B040EE09B
:104F500080231B050BE080231B0308E080231B023A
:104F600005E080231B0102E0802300E0082353605A
:104F70007B689B6B01221A437B689A637B682522BE
:104F8000042199547B682422002199547B685B6B2F
:104F9000002B04D07B685B6B7A6810009847654BE8
:104FA0001A687B681B681900634B99422ED07B6896
:104FB0001B681900614B994226D07B681B68190059
:104FC0005F4B99421DD07B681B6819005D4B99426D
:104FD00014D07B681B6819005B4B99420BD07B682F
:104FE0001B681900594B994202D18023DB030EE064
:104FF0008023DB040BE08023DB0208E08023DB015D
:1050000005E08023DB0002E0402300E0042313409E
:1050100058D07B681B681B680422134052D07B6801
:105020001B681B682022134007D17B681B687A68C5
:105030001268126804218A431A603E4A7B681B6822
:1050400019003D4B99422ED07B681B6819003B4BE1
:10505000994226D07B681B681900394B99421DD0B4
:105060007B681B681900374B994214D07B681B681A
:105070001900354B99420BD07B681B681900334BE4
:10508000994202D18023DB030EE08023DB040BE096
:105090008023DB0208E08023DB0105E08023DB00C6
:1050A00002E0402300E0042353607B6825220521B1
:1050B00099547B681B6B002B04D07B681B6B7A6850
:1050C000100098471B4B1A687B681B6819001A4B25
:1050D00099423DD07B681B681900184B994226D035
:1050E0007B681B681900164B99421DD07B681B68B2
:1050F0001900144B994214D07B681B681900124B9D
:1051000099420BD07B681B681900104B994202D161
:1051100080239B031DE080239B041AE080239B02D5
:1051200017E080239B0114E080239B0011E02023E3
:105130000FE0C04600000240080002401C00024090
:105140003000024044000240580002406C0002401F
:105150000223134060D07B681B681B680222134047
:105160005AD07B681B681B682022134007D17B68DC
:105170001B687A681268126802218A431A60284AFA
:105180007B681B681900274B99422ED07B681B68EF
:105190001900254B994226D07B681B681900234BC8
:1051A00099421DD07B681B681900214B994214D08D
:1051B0007B681B6819001F4B99420BD07B681B68EA
:1051C00019001D4B994202D180239B030EE08023DE
:1051D0009B040BE080239B0208E080239B0105E0F9
:1051E00080239B0002E0202300E0022353607B68C1
:1051F0009A6B7B689A637B682522012199547B68AE
:105200002422002199547B68DB6A002B04D07B6840
:10521000DB6A7A6810009847C046BD4602B080BD80
:1052200000000240080002401C0002403000024022
:1052300044000240580002406C00024080B582B039
:1052400000AF78607B6825229B5CDBB21800BD460E
:1052500002B080BD80B582B000AF78607B689B6B88
:105260001800BD4602B080BD80B584B000AFF860C4
:10527000B9607A603B60FB681B683A685A60FB68FB
:105280009B68102B08D1FB681B687A689A60FB68E2
:105290001B68BA68DA6007E0FB681B68BA689A6046
:1052A000FB681B687A68DA60C046BD4604B080BD02
:1052B00080B582B000AF00237B601BE07B68B13318
:1052C000FF3301211800FCF791F90200FB1C1A7052
:1052D000FB1C1B78FE2B0AD00A497A6813005B007E
:1052E0009B189B00CB180633FA1C12781A707B6847
:1052F00001337B607B68042BE0DDC046BD4602B015
:1053000080BDC0461402002080B582B000AF02000C
:10531000FB1D1A70BB1D0A1C1A70FB1D1A781E4952
:1053200013005B009B189B00CB180633BA1D127844
:105330001A70FB1D1B78B133FF331800FB1D1A7860
:10534000154913005B009B189B00CB1806331B7894
:1053500001221900FCF700F9104B1800FEF7A6FD1A
:10536000FB1D1B781800FEF7DBFE0D4B1800FEF747
:105370009DFDBB1D1B78092B05D8BB1D1B78180094
:10538000FEF7CEFE04E0BB1D1B781800FEF778FD8B
:10539000C046BD4602B080BD14020020E4E2000811
:1053A00004E3000880B582B000AF78600A497A68EB
:1053B00013005B009B189B005A58074879680B0044
:1053C0005B005B189B00C31804331B889361C046C5
:1053D000BD4602B080BDC0461402002080B582B038
:1053E00000AF78600A497A6813005B009B189B0045
:1053F0005A58074879680B005B005B189B00C3187C
:1054000004331B881B049361C046BD4602B080BDB7
:105410001402002080B584B000AF0200FB1D1A709A
:105420000023FB6013E00D49FA6813005B009B1832
:105430009B00CB1806331B78FA1D12789A4203D1D1
:10544000FB681800FFF7AEFFFB680133FB60FB68E9
:10545000042BE8DDC046BD4604B080BD1402002028
:1054600080B584B000AF0200FB1D1A700023FB6002
:1054700013E00D49FA6813005B009B189B00CB18E2
:1054800006331B78FA1D12789A4203D1FB68180084
:10549000FFF7A4FFFB680133FB60FB68042BE8DD2A
:1054A000C046BD4604B080BD1402002090B585B052
:1054B00000AF040008001100FB1D221C1A70BB1D68
:1054C000021C1A707B1D0A1C1A700023FB6025E069
:1054D0001649FA6813005B009B189B00CB18063333
:1054E0001B78FA1D12789A4215D11049FA681300F8
:1054F0005B009B189B00CB180833BA1D12781A70FA
:105500000A49FA6813005B009B189B00CB1809330B
:105510007A1D12781A70FB680133FB60FB68042B5C
:10552000D6DDC046BD4605B090BDC0461402002081
:1055300080B584B000AF0200FB1D1A700023FB6031
:1055400019E01349FA6813005B009B189B00CB1805
:1055500006331B78FA1D12789A4209D10C49FA6871
:1055600013005B009B189B00CB18083381221A7034
:10557000FB680133FB60FB68042BE2DDFB1D1B783D
:105580001800FFF76DFFC046BD4604B080BDC046A1
:105590001402002080B582B000AF00237B606BE076
:1055A00039497A6813005B009B189B00CB180833BD
:1055B0001B785BB27F335CD033497A6813005B00A1
:1055C0009B189B00CB1807331B785BB2DBB2013B07
:1055D000DBB258B22C497A6813005B009B189B0021
:1055E000CB180733021C1A7027497A6813005B0036
:1055F0009B189B00CB1807331B785BB2002B04DD94
:105600007B681800FFF7CEFE33E07B681800FFF7D9
:10561000E5FE1D497A6813005B009B189B00CB18C0
:1056200007331B785BB2180017497A6813005B00D8
:105630009B189B00CB1809331B785BB25B429842E6
:1056400017DC11497A6813005B009B189B00CB188C
:1056500008331B785BB2DBB20133DBB258B20A49C4
:105660007A6813005B009B189B00CB180733021C61
:105670001A707B6801337B607B68042B90DDC04629
:10568000BD4602B080BDC0461402002080B500AF08
:10569000104B104A526B802189000A435A630E4B0B
:1056A0000D4A526906210A435A610B4B0A4A926815
:1056B00001210A439A60C046074B1B680122134030
:1056C000FAD0054B044A526804210A435A60C04686
:1056D000BD4680BD001002400024014080B582B06C
:1056E00000AF78600A4B7A689A62094B084A926860
:1056F00004210A439A60C046054B1B6804221340EC
:10570000FAD0034B1B6C1800BD4602B080BDC046EA
:105710000024014080B500AFA023DB051B690122F6
:10572000134001D0012300E000231800BD4680BDD6
:1057300080B582B000AF0200FB1D1A7000F028F99E
:10574000FB1D1B78002B14D00220FAF7E1FDC046A8
:10575000144B1B6901221340FAD000F023F94120B9
:10576000FAF7D6FDC0460F4B1B6901221340FAD051
:1057700013E04120FAF7CCFDC0460A4B1B69012219
:105780001340FAD000F00EF90220FAF7C1FDC0462E
:10579000044B1B6901221340FAD0C046BD4602B03B
:1057A00080BDC0460010004080B584B000AF02004C
:1057B000FB1D1A700F23FB1808221A7013E0FB1D43
:1057C0001B7801221340DBB21800FFF7B1FFFB1D6D
:1057D000FA1D127852081A700F23FB181A780F233B
:1057E000FB18013A1A700F23FB181B78002BE6D127
:1057F000C046BD4604B080BD90B583B000AF00F098
:10580000C7F80220FAF784FDC046144B1B69012239
:105810001340FAD000F0C6F8FB1D05221A7004E010
:10582000FB1D1A78FB1D013A1A70FB1D1B78002B1B
:10583000F6D1BC1DFFF76EFF030023704120FAF77D
:1058400067FDC046054B1B6901221340FAD0BB1D02
:105850001B781800BD4603B090BDC0460010004044
:1058600080B582B000AFFB1D00221A70BB1D002264
:105870001A70BB1D08221A7014E0FB1DFA1D127865
:1058800052081A70FFF7B8FF031E06D0FB1DFA1D61
:105890001278802149420A431A70BB1D1A78BB1D39
:1058A000013A1A70BB1D1B78002BE6D1FB1D1B783B
:1058B0001800BD4602B080BD80B500AF00F036F8DC
:1058C000031E01D1002303E0CC20FFF76DFF01236D
:1058D0001800BD4680BDC04690B585B000AF786069
:1058E00000F024F8031E01D100231BE03320FFF752
:1058F0005BFF0F23FB1800221A700DE07C68631C0D
:105900007B60FFF7ADFF030023700F23FB181A78AD
:105910000F23FB1801321A700F23FB181B78072B7B
:10592000ECD901231800BD4605B090BD80B500AF8D
:1059300000F02EF8F0235B001800FAF7E9FCC046EF
:10594000124B1B6901221340FAD000F02BF84620BD
:10595000FAF7DEFCC0460D4B1B6901221340FAD05A
:10596000FFF7D8FE031E0CD1CD235B001800FAF719
:10597000CFFCC046054B1B6901221340FAD001231E
:1059800000E000231800BD4680BDC0460010004066
:1059900080B500AFA023DB05802252029A61C04689
:1059A000BD4680BD80B500AFA023DB0501229A6112
:1059B000C046BD4680BDC04680B582B000AFFB1D6D
:1059C00000221A7009E0FB1D1B78094A0021D154FE
:1059D000FB1D1A78FB1D01321A70FB1D1B78072B6B
:1059E000F1D9044B41221A70C046BD4602B080BDB9
:1059F000BC0F0020B80F002090B585B000AF5C4B05
:105A00001B78002B01D10023ADE0FFF78FFF031EB1
:105A100001D10023A7E00F23FB1808221A70554B71
:105A2000BB60FB1DBA6812781A70BB1D00221A7089
:105A30007B1D01221A70F020FFF7B6FE3B1D0022ED
:105A40001A70FC1CFFF7D8FE03002370BC1CFFF784
:105A5000D3FE03002370FB1C1B78002B2ED1BB1C34
:105A60001B78002B38D1424B1B787A1D12789A4252
:105A700011D2FB1D1B780122134007D0BB1DBA1D9C
:105A80001278802149420A431A7025E03B1D7A1D95
:105A900012781A7020E0364B1B787A1D12789A42E1
:105AA00007D1BB1DBA1D1278802149420A431A70E2
:105AB00012E03B1D7A1D12781A700DE0BB1C1B789A
:105AC000002B07D1BB1DBA1D1278802149420A4321
:105AD0001A7001E0002346E0BB1D1B787F22934330
